{
  "contractName": "Strongbox",
  "abi": [
    {
      "inputs": [
        {
          "internalType": "address",
          "name": "",
          "type": "address"
        }
      ],
      "name": "ownerToFunds",
      "outputs": [
        {
          "internalType": "uint256",
          "name": "actual",
          "type": "uint256"
        },
        {
          "internalType": "uint256",
          "name": "locked",
          "type": "uint256"
        }
      ],
      "stateMutability": "view",
      "type": "function",
      "constant": true
    },
    {
      "inputs": [],
      "name": "deposit",
      "outputs": [],
      "stateMutability": "payable",
      "type": "function",
      "payable": true
    },
    {
      "inputs": [
        {
          "internalType": "uint256",
          "name": "_amount",
          "type": "uint256"
        }
      ],
      "name": "withdraw",
      "outputs": [],
      "stateMutability": "nonpayable",
      "type": "function"
    }
  ],
  "bytecode": "0x608060405234801561001057600080fd5b506106b3806100206000396000f3fe6080604052600436106100345760003560e01c80632e1a7d4d14610039578063d0e30db014610062578063efac52471461006c575b600080fd5b34801561004557600080fd5b50610060600480360381019061005b9190610335565b6100aa565b005b61006a610236565b005b34801561007857600080fd5b50610093600480360381019061008e91906103c0565b6102d6565b6040516100a19291906103fc565b60405180910390f35b806000803373ffffffffffffffffffffffffffffffffffffffff1673ffffffffffffffffffffffffffffffffffffffff16815260200190815260200160002060000154101561012e576040517f08c379a0000000000000000000000000000000000000000000000000000000008152600401610125906104a8565b60405180910390fd5b806000803373ffffffffffffffffffffffffffffffffffffffff1673ffffffffffffffffffffffffffffffffffffffff168152602001908152602001600020600001600082825461017f91906104f7565b9250508190555060003373ffffffffffffffffffffffffffffffffffffffff16826040516101ac9061055c565b60006040518083038185875af1925050503d80600081146101e9576040519150601f19603f3d011682016040523d82523d6000602084013e6101ee565b606091505b5050905080610232576040517f08c379a0000000000000000000000000000000000000000000000000000000008152600401610229906105bd565b60405180910390fd5b5050565b633b9aca00341161027c576040517f08c379a000000000000000000000000000000000000000000000000000000000815260040161027390610629565b60405180910390fd5b346000803373ffffffffffffffffffffffffffffffffffffffff1673ffffffffffffffffffffffffffffffffffffffff16815260200190815260200160002060000160008282546102cd9190610649565b92505081905550565b60006020528060005260406000206000915090508060000154908060010154905082565b600080fd5b6000819050919050565b610312816102ff565b811461031d57600080fd5b50565b60008135905061032f81610309565b92915050565b60006020828403121561034b5761034a6102fa565b5b600061035984828501610320565b91505092915050565b600073ffffffffffffffffffffffffffffffffffffffff82169050919050565b600061038d82610362565b9050919050565b61039d81610382565b81146103a857600080fd5b50565b6000813590506103ba81610394565b92915050565b6000602082840312156103d6576103d56102fa565b5b60006103e4848285016103ab565b91505092915050565b6103f6816102ff565b82525050565b600060408201905061041160008301856103ed565b61041e60208301846103ed565b9392505050565b600082825260208201905092915050565b7f5468657265206973206e6f20656e6f7567682066756e6420666f72207468652060008201527f63757272656e74206163636f756e740000000000000000000000000000000000602082015250565b6000610492602f83610425565b915061049d82610436565b604082019050919050565b600060208201905081810360008301526104c181610485565b9050919050565b7f4e487b7100000000000000000000000000000000000000000000000000000000600052601160045260246000fd5b6000610502826102ff565b915061050d836102ff565b9250828203905081811115610525576105246104c8565b5b92915050565b600081905092915050565b50565b600061054660008361052b565b915061055182610536565b600082019050919050565b600061056782610539565b9150819050919050565b7f5472616e73666572206661696c65640000000000000000000000000000000000600082015250565b60006105a7600f83610425565b91506105b282610571565b602082019050919050565b600060208201905081810360008301526105d68161059a565b9050919050565b7f4d696e696d756d206465706f7369742076616c75652069732031204757454900600082015250565b6000610613601f83610425565b915061061e826105dd565b602082019050919050565b6000602082019050818103600083015261064281610606565b9050919050565b6000610654826102ff565b915061065f836102ff565b9250828201905080821115610677576106766104c8565b5b9291505056fea26469706673582212209ceea016a02012b9c964fb9dd09c14bb30e35318d7c26a98d5bb81dc7d473dc764736f6c63430008120033",
  "immutableReferences": {},
  "source": "// SPDX-License-Identifier: GPL-3.0\n\npragma solidity >=0.7.0 <0.9.0;\n\ncontract Strongbox {\n\n    struct Fund {\n        uint actual;\n        uint locked;\n    }\n\n    mapping (address => Fund) public ownerToFunds;\n\n    function deposit() public payable {\n        require(msg.value > 1000000000, \"Minimum deposit value is 1 GWEI\");\n        ownerToFunds[msg.sender].actual += msg.value;  \n    }\n\n    function withdraw(uint _amount) public {\n        require(ownerToFunds[msg.sender].actual >= _amount, \"There is no enough fund for the current account\");\n        ownerToFunds[msg.sender].actual -= _amount;\n        (bool sent,) = msg.sender.call{value: _amount}(\"\");\n        require(sent, \"Transfer failed\");\n    }\n\n    function lock(address _owner, uint _amount) internal {\n        require(ownerToFunds[_owner].actual >= _amount, \"There is no enough actual fund for this owner\");\n        ownerToFunds[_owner].actual -= _amount;\n        ownerToFunds[_owner].locked += _amount;\n    }\n\n    function unlock(address _owner, uint _amount) internal {\n        require(ownerToFunds[_owner].locked >= _amount, \"Amount is bigger than locked funds for this owner\");\n        ownerToFunds[_owner].actual += _amount;\n        ownerToFunds[_owner].locked -= _amount;\n    }\n\n    function transfer(address _from, address _to, uint _amount) internal {\n        require(ownerToFunds[_from].actual >= _amount, \"There is no enough actual funds for the sender\");\n        ownerToFunds[_from].actual -= _amount;\n        ownerToFunds[_to].actual += _amount;\n    } \n\n    function burn(address _owner, uint _amount) internal {\n        require(ownerToFunds[_owner].locked >= _amount, \"Amount is bigger than locked funds for this owner\");\n        (bool sent,) = address(0).call{value: _amount}(\"\");\n        if(sent) {\n            ownerToFunds[_owner].locked -= _amount;\n        } else {\n            revert(\"Transfer failed\");\n        }\n    }\n\n\n}",
  "sourcePath": "/home/sepehr/blockchain/TrustDeal/contracts/Strongbox.sol",
  "compiler": {
    "name": "solc",
    "version": "0.8.18+commit.87f61d96.Linux.g++"
  },
  "schemaVersion": "3.4.13",
  "updatedAt": "2023-09-04T19:15:00.844Z",
  "networkType": "ethereum",
  "devdoc": {
    "kind": "dev",
    "methods": {},
    "version": 1
  },
  "userdoc": {
    "kind": "user",
    "methods": {},
    "version": 1
  }
}