{
  "contractName": "TrustExchange",
  "abi": [
    {
      "inputs": [],
      "stateMutability": "nonpayable",
      "type": "constructor"
    },
    {
      "anonymous": false,
      "inputs": [
        {
          "indexed": true,
          "internalType": "address",
          "name": "sender",
          "type": "address"
        },
        {
          "indexed": true,
          "internalType": "uint256",
          "name": "taskAddr",
          "type": "uint256"
        },
        {
          "indexed": false,
          "internalType": "enum TrustExchange.TaskState",
          "name": "newState",
          "type": "uint8"
        }
      ],
      "name": "TaskStateChanged",
      "type": "event"
    },
    {
      "inputs": [],
      "name": "deposit",
      "outputs": [],
      "stateMutability": "payable",
      "type": "function",
      "payable": true
    },
    {
      "inputs": [
        {
          "internalType": "address",
          "name": "",
          "type": "address"
        }
      ],
      "name": "ownerToFunds",
      "outputs": [
        {
          "internalType": "uint256",
          "name": "actual",
          "type": "uint256"
        },
        {
          "internalType": "uint256",
          "name": "locked",
          "type": "uint256"
        }
      ],
      "stateMutability": "view",
      "type": "function",
      "constant": true
    },
    {
      "inputs": [
        {
          "internalType": "uint256",
          "name": "",
          "type": "uint256"
        }
      ],
      "name": "tasks",
      "outputs": [
        {
          "internalType": "uint256",
          "name": "taskAddr",
          "type": "uint256"
        },
        {
          "internalType": "enum TrustExchange.TaskState",
          "name": "state",
          "type": "uint8"
        },
        {
          "internalType": "address",
          "name": "requester",
          "type": "address"
        },
        {
          "internalType": "uint256",
          "name": "salary",
          "type": "uint256"
        },
        {
          "internalType": "uint256",
          "name": "requesterProofOfTrust",
          "type": "uint256"
        },
        {
          "internalType": "uint256",
          "name": "requesterMinimumTrustValueForWorker",
          "type": "uint256"
        },
        {
          "internalType": "address",
          "name": "worker",
          "type": "address"
        },
        {
          "internalType": "uint256",
          "name": "workerProofOfTrust",
          "type": "uint256"
        }
      ],
      "stateMutability": "view",
      "type": "function",
      "constant": true
    },
    {
      "inputs": [
        {
          "internalType": "uint256",
          "name": "_amount",
          "type": "uint256"
        }
      ],
      "name": "withdraw",
      "outputs": [],
      "stateMutability": "nonpayable",
      "type": "function"
    },
    {
      "inputs": [],
      "name": "NFTaddress",
      "outputs": [
        {
          "internalType": "address",
          "name": "",
          "type": "address"
        }
      ],
      "stateMutability": "view",
      "type": "function",
      "constant": true
    },
    {
      "inputs": [
        {
          "internalType": "address",
          "name": "_to",
          "type": "address"
        },
        {
          "internalType": "uint256",
          "name": "_taskAddr",
          "type": "uint256"
        }
      ],
      "name": "setDealer",
      "outputs": [],
      "stateMutability": "nonpayable",
      "type": "function"
    },
    {
      "inputs": [
        {
          "internalType": "uint256",
          "name": "_taskAddr",
          "type": "uint256"
        },
        {
          "internalType": "uint256",
          "name": "_salary",
          "type": "uint256"
        }
      ],
      "name": "setSalary",
      "outputs": [],
      "stateMutability": "nonpayable",
      "type": "function"
    },
    {
      "inputs": [
        {
          "internalType": "uint256",
          "name": "_taskAddr",
          "type": "uint256"
        },
        {
          "internalType": "uint256",
          "name": "_proof",
          "type": "uint256"
        }
      ],
      "name": "setProofOfTrust",
      "outputs": [],
      "stateMutability": "nonpayable",
      "type": "function"
    },
    {
      "inputs": [
        {
          "internalType": "uint256",
          "name": "_taskAddr",
          "type": "uint256"
        },
        {
          "internalType": "uint256",
          "name": "_proof",
          "type": "uint256"
        }
      ],
      "name": "setMinimumTrustForWorker",
      "outputs": [],
      "stateMutability": "nonpayable",
      "type": "function"
    },
    {
      "inputs": [
        {
          "internalType": "uint256",
          "name": "_salary",
          "type": "uint256"
        },
        {
          "internalType": "uint256",
          "name": "_requesterProofOfTrust",
          "type": "uint256"
        },
        {
          "internalType": "uint256",
          "name": "_requesterMinimumTrustValueForWorker",
          "type": "uint256"
        },
        {
          "internalType": "address",
          "name": "_dealer",
          "type": "address"
        }
      ],
      "name": "createTask",
      "outputs": [],
      "stateMutability": "nonpayable",
      "type": "function"
    },
    {
      "inputs": [
        {
          "internalType": "uint256",
          "name": "_taskAddr",
          "type": "uint256"
        },
        {
          "internalType": "uint256",
          "name": "_workerProofOfTrust",
          "type": "uint256"
        }
      ],
      "name": "doneTaskWithTrust",
      "outputs": [],
      "stateMutability": "nonpayable",
      "type": "function"
    },
    {
      "inputs": [
        {
          "internalType": "uint256",
          "name": "_taskAddr",
          "type": "uint256"
        }
      ],
      "name": "doneTask",
      "outputs": [],
      "stateMutability": "nonpayable",
      "type": "function"
    },
    {
      "inputs": [
        {
          "internalType": "uint256",
          "name": "_taskAddr",
          "type": "uint256"
        }
      ],
      "name": "finishTask",
      "outputs": [],
      "stateMutability": "nonpayable",
      "type": "function"
    },
    {
      "inputs": [
        {
          "internalType": "uint256",
          "name": "_taskAddr",
          "type": "uint256"
        }
      ],
      "name": "cancelTask",
      "outputs": [],
      "stateMutability": "nonpayable",
      "type": "function"
    },
    {
      "inputs": [
        {
          "internalType": "uint256",
          "name": "_taskAddr",
          "type": "uint256"
        }
      ],
      "name": "rejectTask",
      "outputs": [],
      "stateMutability": "nonpayable",
      "type": "function"
    },
    {
      "inputs": [
        {
          "internalType": "uint256",
          "name": "_taskAddr",
          "type": "uint256"
        }
      ],
      "name": "unFinishTask",
      "outputs": [],
      "stateMutability": "nonpayable",
      "type": "function"
    }
  ],
  "bytecode": "0x60806040523480156200001157600080fd5b5033600160006101000a81548173ffffffffffffffffffffffffffffffffffffffff021916908373ffffffffffffffffffffffffffffffffffffffff1602179055506040516200006190620000c5565b604051809103906000f0801580156200007e573d6000803e3d6000fd5b50600260006101000a81548173ffffffffffffffffffffffffffffffffffffffff021916908373ffffffffffffffffffffffffffffffffffffffff160217905550620000d3565b612ef080620035cf83390190565b6134ec80620000e36000396000f3fe6080604052600436106100f35760003560e01c80637d81b40b1161008a578063a293b11411610059578063a293b11414610301578063d0e30db01461032a578063dc7aea0814610334578063efac52471461035d576100f3565b80637d81b40b146102425780637eec20a81461026b578063842178b2146102945780638d977672146102bd576100f3565b80632e1a7d4d116100c65780632e1a7d4d1461019e5780635e6f8337146101c75780636c956820146101f057806374a37efc14610219576100f3565b806304c0e5aa146100f85780631207ca52146101215780632299c51f1461014a5780632bad31fc14610175575b600080fd5b34801561010457600080fd5b5061011f600480360381019061011a919061288c565b61039b565b005b34801561012d57600080fd5b50610148600480360381019061014391906128f3565b610723565b005b34801561015657600080fd5b5061015f6108fb565b60405161016c9190612942565b60405180910390f35b34801561018157600080fd5b5061019c6004803603810190610197919061295d565b610925565b005b3480156101aa57600080fd5b506101c560048036038101906101c0919061299d565b610a85565b005b3480156101d357600080fd5b506101ee60048036038101906101e9919061299d565b610c11565b005b3480156101fc57600080fd5b506102176004803603810190610212919061295d565b610df2565b005b34801561022557600080fd5b50610240600480360381019061023b919061295d565b611098565b005b34801561024e57600080fd5b506102696004803603810190610264919061299d565b6111f8565b005b34801561027757600080fd5b50610292600480360381019061028d919061299d565b6113d6565b005b3480156102a057600080fd5b506102bb60048036038101906102b6919061299d565b61156d565b005b3480156102c957600080fd5b506102e460048036038101906102df919061299d565b6118a6565b6040516102f8989796959493929190612a50565b60405180910390f35b34801561030d57600080fd5b506103286004803603810190610323919061295d565b61193b565b005b610332611a4a565b005b34801561034057600080fd5b5061035b6004803603810190610356919061299d565b611aea565b005b34801561036957600080fd5b50610384600480360381019061037f9190612ace565b612097565b604051610392929190612afb565b60405180910390f35b6103b03384866103ab9190612b53565b6120bb565b6103b8612770565b6000816020019060048111156103d1576103d06129d9565b5b908160048111156103e5576103e46129d9565b5b8152505033816040019073ffffffffffffffffffffffffffffffffffffffff16908173ffffffffffffffffffffffffffffffffffffffff16815250508481606001818152505083816080018181525050828160a001818152505061044960046121f3565b816000018181525050818160c0019073ffffffffffffffffffffffffffffffffffffffff16908173ffffffffffffffffffffffffffffffffffffffff16815250506104946004612201565b8060036000836000015181526020019081526020016000206000820151816000015560208201518160010160006101000a81548160ff021916908360048111156104e1576104e06129d9565b5b021790555060408201518160010160016101000a81548173ffffffffffffffffffffffffffffffffffffffff021916908373ffffffffffffffffffffffffffffffffffffffff160217905550606082015181600201556080820151816003015560a0820151816004015560c08201518160050160006101000a81548173ffffffffffffffffffffffffffffffffffffffff021916908373ffffffffffffffffffffffffffffffffffffffff16021790555060e08201518160060155905050600260009054906101000a900473ffffffffffffffffffffffffffffffffffffffff1673ffffffffffffffffffffffffffffffffffffffff166340c10f193383600001516040518363ffffffff1660e01b8152600401610600929190612b87565b600060405180830381600087803b15801561061a57600080fd5b505af115801561062e573d6000803e3d6000fd5b50505050600260009054906101000a900473ffffffffffffffffffffffffffffffffffffffff1673ffffffffffffffffffffffffffffffffffffffff166348e001d08383600001516040518363ffffffff1660e01b8152600401610693929190612b87565b600060405180830381600087803b1580156106ad57600080fd5b505af11580156106c1573d6000803e3d6000fd5b5050505080600001513373ffffffffffffffffffffffffffffffffffffffff167f5f54ce667b6030b388930f0357f5f8b7db064926b129a97ad5062edff2b162b183602001516040516107149190612bb0565b60405180910390a35050505050565b806000806004811115610739576107386129d9565b5b6003600084815260200190815260200160002060010160009054906101000a900460ff16600481111561076f5761076e6129d9565b5b146107af576040517f08c379a00000000000000000000000000000000000000000000000000000000081526004016107a690612c4e565b60405180910390fd5b60006003600085815260200190815260200160002090508060010160019054906101000a900473ffffffffffffffffffffffffffffffffffffffff1673ffffffffffffffffffffffffffffffffffffffff163373ffffffffffffffffffffffffffffffffffffffff161461082257600080fd5b848160050160006101000a81548173ffffffffffffffffffffffffffffffffffffffff021916908373ffffffffffffffffffffffffffffffffffffffff160217905550600260009054906101000a900473ffffffffffffffffffffffffffffffffffffffff1673ffffffffffffffffffffffffffffffffffffffff166348e001d086866040518363ffffffff1660e01b81526004016108c2929190612b87565b600060405180830381600087803b1580156108dc57600080fd5b505af11580156108f0573d6000803e3d6000fd5b505050505050505050565b6000600260009054906101000a900473ffffffffffffffffffffffffffffffffffffffff16905090565b81600080600481111561093b5761093a6129d9565b5b6003600084815260200190815260200160002060010160009054906101000a900460ff166004811115610971576109706129d9565b5b146109b1576040517f08c379a00000000000000000000000000000000000000000000000000000000081526004016109a890612c4e565b60405180910390fd5b60006003600086815260200190815260200160002090508060010160019054906101000a900473ffffffffffffffffffffffffffffffffffffffff1673ffffffffffffffffffffffffffffffffffffffff163373ffffffffffffffffffffffffffffffffffffffff1614610a2457600080fd5b8060030154841115610a4e57610a4933826003015486610a449190612c6e565b6120bb565b610a75565b8060030154841015610a7457610a7333858360030154610a6e9190612c6e565b612217565b5b5b8381600301819055505050505050565b806000803373ffffffffffffffffffffffffffffffffffffffff1673ffffffffffffffffffffffffffffffffffffffff168152602001908152602001600020600001541015610b09576040517f08c379a0000000000000000000000000000000000000000000000000000000008152600401610b0090612d14565b60405180910390fd5b806000803373ffffffffffffffffffffffffffffffffffffffff1673ffffffffffffffffffffffffffffffffffffffff1681526020019081526020016000206000016000828254610b5a9190612c6e565b9250508190555060003373ffffffffffffffffffffffffffffffffffffffff1682604051610b8790612d65565b60006040518083038185875af1925050503d8060008114610bc4576040519150601f19603f3d011682016040523d82523d6000602084013e610bc9565b606091505b5050905080610c0d576040517f08c379a0000000000000000000000000000000000000000000000000000000008152600401610c0490612dc6565b60405180910390fd5b5050565b3373ffffffffffffffffffffffffffffffffffffffff166003600083815260200190815260200160002060050160009054906101000a900473ffffffffffffffffffffffffffffffffffffffff1673ffffffffffffffffffffffffffffffffffffffff1614610cb5576040517f08c379a0000000000000000000000000000000000000000000000000000000008152600401610cac90612e32565b60405180910390fd5b600480811115610cc857610cc76129d9565b5b6003600083815260200190815260200160002060010160009054906101000a900460ff166004811115610cfe57610cfd6129d9565b5b14610d3e576040517f08c379a0000000000000000000000000000000000000000000000000000000008152600401610d3590612e9e565b60405180910390fd5b60016003600083815260200190815260200160002060010160006101000a81548160ff02191690836004811115610d7857610d776129d9565b5b0217905550803373ffffffffffffffffffffffffffffffffffffffff167f5f54ce667b6030b388930f0357f5f8b7db064926b129a97ad5062edff2b162b16003600085815260200190815260200160002060010160009054906101000a900460ff16604051610de79190612bb0565b60405180910390a350565b816000806004811115610e0857610e076129d9565b5b6003600084815260200190815260200160002060010160009054906101000a900460ff166004811115610e3e57610e3d6129d9565b5b14610e7e576040517f08c379a0000000000000000000000000000000000000000000000000000000008152600401610e7590612c4e565b60405180910390fd5b6000600360008681526020019081526020016000209050600073ffffffffffffffffffffffffffffffffffffffff168160010160019054906101000a900473ffffffffffffffffffffffffffffffffffffffff1673ffffffffffffffffffffffffffffffffffffffff1603610ef257600080fd5b8381600401541115610f0357600080fd5b600260009054906101000a900473ffffffffffffffffffffffffffffffffffffffff1673ffffffffffffffffffffffffffffffffffffffff1663430c208133876040518363ffffffff1660e01b8152600401610f60929190612b87565b602060405180830381865afa158015610f7d573d6000803e3d6000fd5b505050506040513d601f19601f82011682018060405250810190610fa19190612ef6565b610faa57600080fd5b610fb433856120bb565b60018160010160006101000a81548160ff02191690836004811115610fdc57610fdb6129d9565b5b0217905550338160050160006101000a81548173ffffffffffffffffffffffffffffffffffffffff021916908373ffffffffffffffffffffffffffffffffffffffff16021790555083816006018190555080600001543373ffffffffffffffffffffffffffffffffffffffff167f5f54ce667b6030b388930f0357f5f8b7db064926b129a97ad5062edff2b162b18360010160009054906101000a900460ff166040516110899190612bb0565b60405180910390a35050505050565b8160008060048111156110ae576110ad6129d9565b5b6003600084815260200190815260200160002060010160009054906101000a900460ff1660048111156110e4576110e36129d9565b5b14611124576040517f08c379a000000000000000000000000000000000000000000000000000000000815260040161111b90612c4e565b60405180910390fd5b60006003600086815260200190815260200160002090508060010160019054906101000a900473ffffffffffffffffffffffffffffffffffffffff1673ffffffffffffffffffffffffffffffffffffffff163373ffffffffffffffffffffffffffffffffffffffff161461119757600080fd5b80600201548411156111c1576111bc338260020154866111b79190612c6e565b6120bb565b6111e8565b80600201548410156111e7576111e6338583600201546111e19190612c6e565b612217565b5b5b8381600201819055505050505050565b80600180600481111561120e5761120d6129d9565b5b6003600084815260200190815260200160002060010160009054906101000a900460ff166004811115611244576112436129d9565b5b14611284576040517f08c379a000000000000000000000000000000000000000000000000000000000815260040161127b90612c4e565b60405180910390fd5b3373ffffffffffffffffffffffffffffffffffffffff166003600085815260200190815260200160002060010160019054906101000a900473ffffffffffffffffffffffffffffffffffffffff1673ffffffffffffffffffffffffffffffffffffffff1614611328576040517f08c379a000000000000000000000000000000000000000000000000000000000815260040161131f90612f95565b60405180910390fd5b600060036000858152602001908152602001600020905060048160010160006101000a81548160ff02191690836004811115611367576113666129d9565b5b021790555080600001543373ffffffffffffffffffffffffffffffffffffffff167f5f54ce667b6030b388930f0357f5f8b7db064926b129a97ad5062edff2b162b18360010160009054906101000a900460ff166040516113c89190612bb0565b60405180910390a350505050565b600060036000838152602001908152602001600020905060006004811115611401576114006129d9565b5b8160010160009054906101000a900460ff166004811115611425576114246129d9565b5b0361152e578060010160019054906101000a900473ffffffffffffffffffffffffffffffffffffffff1673ffffffffffffffffffffffffffffffffffffffff163373ffffffffffffffffffffffffffffffffffffffff16146114bc576040517f08c379a00000000000000000000000000000000000000000000000000000000081526004016114b390613027565b60405180910390fd5b6114c58161234f565b80600001543373ffffffffffffffffffffffffffffffffffffffff167f5f54ce667b6030b388930f0357f5f8b7db064926b129a97ad5062edff2b162b18360010160009054906101000a900460ff166040516115219190612bb0565b60405180910390a3611569565b6040517f08c379a0000000000000000000000000000000000000000000000000000000008152600401611560906130b9565b60405180910390fd5b5050565b806001806004811115611583576115826129d9565b5b6003600084815260200190815260200160002060010160009054906101000a900460ff1660048111156115b9576115b86129d9565b5b146115f9576040517f08c379a00000000000000000000000000000000000000000000000000000000081526004016115f090612c4e565b60405180910390fd5b3373ffffffffffffffffffffffffffffffffffffffff166003600085815260200190815260200160002060010160019054906101000a900473ffffffffffffffffffffffffffffffffffffffff1673ffffffffffffffffffffffffffffffffffffffff161461169d576040517f08c379a000000000000000000000000000000000000000000000000000000000815260040161169490612f95565b60405180910390fd5b60006003600085815260200190815260200160002090506116f58160010160019054906101000a900473ffffffffffffffffffffffffffffffffffffffff16826003015483600201546116f09190612b53565b612217565b6117278160050160009054906101000a900473ffffffffffffffffffffffffffffffffffffffff168260060154612217565b61177e8160010160019054906101000a900473ffffffffffffffffffffffffffffffffffffffff168260050160009054906101000a900473ffffffffffffffffffffffffffffffffffffffff168360020154612451565b60028160010160006101000a81548160ff021916908360048111156117a6576117a56129d9565b5b0217905550600260009054906101000a900473ffffffffffffffffffffffffffffffffffffffff1673ffffffffffffffffffffffffffffffffffffffff166342966c6882600001546040518263ffffffff1660e01b815260040161180a91906130d9565b600060405180830381600087803b15801561182457600080fd5b505af1158015611838573d6000803e3d6000fd5b5050505080600001543373ffffffffffffffffffffffffffffffffffffffff167f5f54ce667b6030b388930f0357f5f8b7db064926b129a97ad5062edff2b162b18360010160009054906101000a900460ff166040516118989190612bb0565b60405180910390a350505050565b60036020528060005260406000206000915090508060000154908060010160009054906101000a900460ff16908060010160019054906101000a900473ffffffffffffffffffffffffffffffffffffffff16908060020154908060030154908060040154908060050160009054906101000a900473ffffffffffffffffffffffffffffffffffffffff16908060060154905088565b816000806004811115611951576119506129d9565b5b6003600084815260200190815260200160002060010160009054906101000a900460ff166004811115611987576119866129d9565b5b146119c7576040517f08c379a00000000000000000000000000000000000000000000000000000000081526004016119be90612c4e565b60405180910390fd5b60006003600086815260200190815260200160002090508060010160019054906101000a900473ffffffffffffffffffffffffffffffffffffffff1673ffffffffffffffffffffffffffffffffffffffff163373ffffffffffffffffffffffffffffffffffffffff1614611a3a57600080fd5b8381600401819055505050505050565b633b9aca003411611a90576040517f08c379a0000000000000000000000000000000000000000000000000000000008152600401611a8790613140565b60405180910390fd5b346000803373ffffffffffffffffffffffffffffffffffffffff1673ffffffffffffffffffffffffffffffffffffffff1681526020019081526020016000206000016000828254611ae19190612b53565b92505081905550565b6000600360008381526020019081526020016000209050600480811115611b1457611b136129d9565b5b8160010160009054906101000a900460ff166004811115611b3857611b376129d9565b5b1480611b79575060016004811115611b5357611b526129d9565b5b8160010160009054906101000a900460ff166004811115611b7757611b766129d9565b5b145b611bb8576040517f08c379a0000000000000000000000000000000000000000000000000000000008152600401611baf906131ac565b60405180910390fd5b3373ffffffffffffffffffffffffffffffffffffffff168160010160019054906101000a900473ffffffffffffffffffffffffffffffffffffffff1673ffffffffffffffffffffffffffffffffffffffff161480611c6557503373ffffffffffffffffffffffffffffffffffffffff168160050160009054906101000a900473ffffffffffffffffffffffffffffffffffffffff1673ffffffffffffffffffffffffffffffffffffffff16145b611ca4576040517f08c379a0000000000000000000000000000000000000000000000000000000008152600401611c9b9061323e565b60405180910390fd5b6000611dd48260405180610100016040529081600082015481526020016001820160009054906101000a900460ff166004811115611ce557611ce46129d9565b5b6004811115611cf757611cf66129d9565b5b81526020016001820160019054906101000a900473ffffffffffffffffffffffffffffffffffffffff1673ffffffffffffffffffffffffffffffffffffffff1673ffffffffffffffffffffffffffffffffffffffff1681526020016002820154815260200160038201548152602001600482015481526020016005820160009054906101000a900473ffffffffffffffffffffffffffffffffffffffff1673ffffffffffffffffffffffffffffffffffffffff1673ffffffffffffffffffffffffffffffffffffffff16815260200160068201548152505061258a565b9050600082600301548360020154611dec9190612b53565b9050600083600601549050600060648484611e07919061325e565b611e1191906132cf565b9050600060648584611e23919061325e565b611e2d91906132cf565b9050611e5d8660010160019054906101000a900473ffffffffffffffffffffffffffffffffffffffff16836125dd565b611e8b8660050160009054906101000a900473ffffffffffffffffffffffffffffffffffffffff16826125dd565b611ec48660010160019054906101000a900473ffffffffffffffffffffffffffffffffffffffff168386611ebf9190612c6e565b612217565b611efd8660050160009054906101000a900473ffffffffffffffffffffffffffffffffffffffff168285611ef89190612c6e565b612217565b60008660010160006101000a81548160ff02191690836004811115611f2557611f246129d9565b5b021790555060008660050160006101000a81548173ffffffffffffffffffffffffffffffffffffffff021916908373ffffffffffffffffffffffffffffffffffffffff16021790555060008660040181905550600086600301819055506000866006018190555060008660020181905550600260009054906101000a900473ffffffffffffffffffffffffffffffffffffffff1673ffffffffffffffffffffffffffffffffffffffff166348e001d0600088600001546040518363ffffffff1660e01b8152600401611ff8929190612b87565b600060405180830381600087803b15801561201257600080fd5b505af1158015612026573d6000803e3d6000fd5b5050505085600001543373ffffffffffffffffffffffffffffffffffffffff167f5f54ce667b6030b388930f0357f5f8b7db064926b129a97ad5062edff2b162b18860010160009054906101000a900460ff166040516120869190612bb0565b60405180910390a350505050505050565b60006020528060005260406000206000915090508060000154908060010154905082565b806000808473ffffffffffffffffffffffffffffffffffffffff1673ffffffffffffffffffffffffffffffffffffffff16815260200190815260200160002060000154101561213f576040517f08c379a000000000000000000000000000000000000000000000000000000000815260040161213690613372565b60405180910390fd5b806000808473ffffffffffffffffffffffffffffffffffffffff1673ffffffffffffffffffffffffffffffffffffffff16815260200190815260200160002060000160008282546121909190612c6e565b92505081905550806000808473ffffffffffffffffffffffffffffffffffffffff1673ffffffffffffffffffffffffffffffffffffffff16815260200190815260200160002060010160008282546121e89190612b53565b925050819055505050565b600081600001549050919050565b6001816000016000828254019250508190555050565b806000808473ffffffffffffffffffffffffffffffffffffffff1673ffffffffffffffffffffffffffffffffffffffff16815260200190815260200160002060010154101561229b576040517f08c379a000000000000000000000000000000000000000000000000000000000815260040161229290613404565b60405180910390fd5b806000808473ffffffffffffffffffffffffffffffffffffffff1673ffffffffffffffffffffffffffffffffffffffff16815260200190815260200160002060000160008282546122ec9190612b53565b92505081905550806000808473ffffffffffffffffffffffffffffffffffffffff1673ffffffffffffffffffffffffffffffffffffffff16815260200190815260200160002060010160008282546123449190612c6e565b925050819055505050565b6123908160010160019054906101000a900473ffffffffffffffffffffffffffffffffffffffff168260030154836002015461238b9190612b53565b612217565b60038160010160006101000a81548160ff021916908360048111156123b8576123b76129d9565b5b0217905550600260009054906101000a900473ffffffffffffffffffffffffffffffffffffffff1673ffffffffffffffffffffffffffffffffffffffff166342966c6882600001546040518263ffffffff1660e01b815260040161241c91906130d9565b600060405180830381600087803b15801561243657600080fd5b505af115801561244a573d6000803e3d6000fd5b5050505050565b806000808573ffffffffffffffffffffffffffffffffffffffff1673ffffffffffffffffffffffffffffffffffffffff1681526020019081526020016000206000015410156124d5576040517f08c379a00000000000000000000000000000000000000000000000000000000081526004016124cc90613496565b60405180910390fd5b806000808573ffffffffffffffffffffffffffffffffffffffff1673ffffffffffffffffffffffffffffffffffffffff16815260200190815260200160002060000160008282546125269190612c6e565b92505081905550806000808473ffffffffffffffffffffffffffffffffffffffff1673ffffffffffffffffffffffffffffffffffffffff168152602001908152602001600020600001600082825461257e9190612b53565b92505081905550505050565b6000816080015182606001516125a09190612b53565b6064600484608001516125b391906132cf565b84606001516125c29190612b53565b6125cc919061325e565b6125d691906132cf565b9050919050565b806000808473ffffffffffffffffffffffffffffffffffffffff1673ffffffffffffffffffffffffffffffffffffffff168152602001908152602001600020600101541015612661576040517f08c379a000000000000000000000000000000000000000000000000000000000815260040161265890613404565b60405180910390fd5b60008073ffffffffffffffffffffffffffffffffffffffff168260405161268790612d65565b60006040518083038185875af1925050503d80600081146126c4576040519150601f19603f3d011682016040523d82523d6000602084013e6126c9565b606091505b50509050801561273057816000808573ffffffffffffffffffffffffffffffffffffffff1673ffffffffffffffffffffffffffffffffffffffff16815260200190815260200160002060010160008282546127249190612c6e565b9250508190555061276b565b6040517f08c379a000000000000000000000000000000000000000000000000000000000815260040161276290612dc6565b60405180910390fd5b505050565b6040518061010001604052806000815260200160006004811115612797576127966129d9565b5b8152602001600073ffffffffffffffffffffffffffffffffffffffff168152602001600081526020016000815260200160008152602001600073ffffffffffffffffffffffffffffffffffffffff168152602001600081525090565b600080fd5b6000819050919050565b61280b816127f8565b811461281657600080fd5b50565b60008135905061282881612802565b92915050565b600073ffffffffffffffffffffffffffffffffffffffff82169050919050565b60006128598261282e565b9050919050565b6128698161284e565b811461287457600080fd5b50565b60008135905061288681612860565b92915050565b600080600080608085870312156128a6576128a56127f3565b5b60006128b487828801612819565b94505060206128c587828801612819565b93505060406128d687828801612819565b92505060606128e787828801612877565b91505092959194509250565b6000806040838503121561290a576129096127f3565b5b600061291885828601612877565b925050602061292985828601612819565b9150509250929050565b61293c8161284e565b82525050565b60006020820190506129576000830184612933565b92915050565b60008060408385031215612974576129736127f3565b5b600061298285828601612819565b925050602061299385828601612819565b9150509250929050565b6000602082840312156129b3576129b26127f3565b5b60006129c184828501612819565b91505092915050565b6129d3816127f8565b82525050565b7f4e487b7100000000000000000000000000000000000000000000000000000000600052602160045260246000fd5b60058110612a1957612a186129d9565b5b50565b6000819050612a2a82612a08565b919050565b6000612a3a82612a1c565b9050919050565b612a4a81612a2f565b82525050565b600061010082019050612a66600083018b6129ca565b612a73602083018a612a41565b612a806040830189612933565b612a8d60608301886129ca565b612a9a60808301876129ca565b612aa760a08301866129ca565b612ab460c0830185612933565b612ac160e08301846129ca565b9998505050505050505050565b600060208284031215612ae457612ae36127f3565b5b6000612af284828501612877565b91505092915050565b6000604082019050612b1060008301856129ca565b612b1d60208301846129ca565b9392505050565b7f4e487b7100000000000000000000000000000000000000000000000000000000600052601160045260246000fd5b6000612b5e826127f8565b9150612b69836127f8565b9250828201905080821115612b8157612b80612b24565b5b92915050565b6000604082019050612b9c6000830185612933565b612ba960208301846129ca565b9392505050565b6000602082019050612bc56000830184612a41565b92915050565b600082825260208201905092915050565b7f5461736b206973206e6f742061742074686520636f727265637420737461746560008201527f20666f7220746869732070726f63657373000000000000000000000000000000602082015250565b6000612c38603183612bcb565b9150612c4382612bdc565b604082019050919050565b60006020820190508181036000830152612c6781612c2b565b9050919050565b6000612c79826127f8565b9150612c84836127f8565b9250828203905081811115612c9c57612c9b612b24565b5b92915050565b7f5468657265206973206e6f20656e6f7567682066756e6420666f72207468652060008201527f63757272656e74206163636f756e740000000000000000000000000000000000602082015250565b6000612cfe602f83612bcb565b9150612d0982612ca2565b604082019050919050565b60006020820190508181036000830152612d2d81612cf1565b9050919050565b600081905092915050565b50565b6000612d4f600083612d34565b9150612d5a82612d3f565b600082019050919050565b6000612d7082612d42565b9150819050919050565b7f5472616e73666572206661696c65640000000000000000000000000000000000600082015250565b6000612db0600f83612bcb565b9150612dbb82612d7a565b602082019050919050565b60006020820190508181036000830152612ddf81612da3565b9050919050565b7f53656e646572206973206e6f7420776f726b6572206f6620746865207461736b600082015250565b6000612e1c602083612bcb565b9150612e2782612de6565b602082019050919050565b60006020820190508181036000830152612e4b81612e0f565b9050919050565b7f5461736b206973206e6f742061742074686520636f7272656374207374617465600082015250565b6000612e88602083612bcb565b9150612e9382612e52565b602082019050919050565b60006020820190508181036000830152612eb781612e7b565b9050919050565b60008115159050919050565b612ed381612ebe565b8114612ede57600080fd5b50565b600081519050612ef081612eca565b92915050565b600060208284031215612f0c57612f0b6127f3565b5b6000612f1a84828501612ee1565b91505092915050565b7f53656e646572206973206e6f7420726571756573746572206f6620746865207460008201527f61736b0000000000000000000000000000000000000000000000000000000000602082015250565b6000612f7f602383612bcb565b9150612f8a82612f23565b604082019050919050565b60006020820190508181036000830152612fae81612f72565b9050919050565b7f5461736b20646f65736e7420657869737473207769746820746865207265717560008201527f6573746564206164647265737300000000000000000000000000000000000000602082015250565b6000613011602d83612bcb565b915061301c82612fb5565b604082019050919050565b6000602082019050818103600083015261304081613004565b9050919050565b7f5461736b206973206e6f742061742074686520737461746520554e415353494760008201527f4e45445f5441534b000000000000000000000000000000000000000000000000602082015250565b60006130a3602883612bcb565b91506130ae82613047565b604082019050919050565b600060208201905081810360008301526130d281613096565b9050919050565b60006020820190506130ee60008301846129ca565b92915050565b7f4d696e696d756d206465706f7369742076616c75652069732031204757454900600082015250565b600061312a601f83612bcb565b9150613135826130f4565b602082019050919050565b600060208201905081810360008301526131598161311d565b9050919050565b7f5461736b206973206e6f7420617420636f727265637420737461746500000000600082015250565b6000613196601c83612bcb565b91506131a182613160565b602082019050919050565b600060208201905081810360008301526131c581613189565b9050919050565b7f43616c6c657220686173206e6f74207072656d697373696f6e20746f2066696e60008201527f6973682074686973207461736b00000000000000000000000000000000000000602082015250565b6000613228602d83612bcb565b9150613233826131cc565b604082019050919050565b600060208201905081810360008301526132578161321b565b9050919050565b6000613269826127f8565b9150613274836127f8565b9250828202613282816127f8565b9150828204841483151761329957613298612b24565b5b5092915050565b7f4e487b7100000000000000000000000000000000000000000000000000000000600052601260045260246000fd5b60006132da826127f8565b91506132e5836127f8565b9250826132f5576132f46132a0565b5b828204905092915050565b7f5468657265206973206e6f20656e6f7567682061637475616c2066756e64206660008201527f6f722074686973206f776e657200000000000000000000000000000000000000602082015250565b600061335c602d83612bcb565b915061336782613300565b604082019050919050565b6000602082019050818103600083015261338b8161334f565b9050919050565b7f416d6f756e7420697320626967676572207468616e206c6f636b65642066756e60008201527f647320666f722074686973206f776e6572000000000000000000000000000000602082015250565b60006133ee603183612bcb565b91506133f982613392565b604082019050919050565b6000602082019050818103600083015261341d816133e1565b9050919050565b7f5468657265206973206e6f20656e6f7567682061637475616c2066756e64732060008201527f666f72207468652073656e646572000000000000000000000000000000000000602082015250565b6000613480602e83612bcb565b915061348b82613424565b604082019050919050565b600060208201905081810360008301526134af81613473565b905091905056fea2646970667358221220f59ebd4e104a3271f35b1dc0f3174ac4a3ab5e84107088bae157f68af032960564736f6c6343000812003360806040523480156200001157600080fd5b506040518060400160405280601a81526020017f4e6f6e2066756e6769626c6520746f6b656e206f66207461736b0000000000008152506040518060400160405280600481526020017f4e4654540000000000000000000000000000000000000000000000000000000081525081600090816200008f919062000412565b508060019081620000a1919062000412565b505050620000c4620000b8620000ca60201b60201c565b620000d260201b60201c565b620004f9565b600033905090565b6000600660009054906101000a900473ffffffffffffffffffffffffffffffffffffffff16905081600660006101000a81548173ffffffffffffffffffffffffffffffffffffffff021916908373ffffffffffffffffffffffffffffffffffffffff1602179055508173ffffffffffffffffffffffffffffffffffffffff168173ffffffffffffffffffffffffffffffffffffffff167f8be0079c531659141344cd1fd0a4f28419497f9722a3daafe3b4186f6b6457e060405160405180910390a35050565b600081519050919050565b7f4e487b7100000000000000000000000000000000000000000000000000000000600052604160045260246000fd5b7f4e487b7100000000000000000000000000000000000000000000000000000000600052602260045260246000fd5b600060028204905060018216806200021a57607f821691505b60208210810362000230576200022f620001d2565b5b50919050565b60008190508160005260206000209050919050565b60006020601f8301049050919050565b600082821b905092915050565b6000600883026200029a7fffffffffffffffffffffffffffffffffffffffffffffffffffffffffffffffff826200025b565b620002a686836200025b565b95508019841693508086168417925050509392505050565b6000819050919050565b6000819050919050565b6000620002f3620002ed620002e784620002be565b620002c8565b620002be565b9050919050565b6000819050919050565b6200030f83620002d2565b620003276200031e82620002fa565b84845462000268565b825550505050565b600090565b6200033e6200032f565b6200034b81848462000304565b505050565b5b8181101562000373576200036760008262000334565b60018101905062000351565b5050565b601f821115620003c2576200038c8162000236565b62000397846200024b565b81016020851015620003a7578190505b620003bf620003b6856200024b565b83018262000350565b50505b505050565b600082821c905092915050565b6000620003e760001984600802620003c7565b1980831691505092915050565b6000620004028383620003d4565b9150826002028217905092915050565b6200041d8262000198565b67ffffffffffffffff811115620004395762000438620001a3565b5b62000445825462000201565b6200045282828562000377565b600060209050601f8311600181146200048a576000841562000475578287015190505b620004818582620003f4565b865550620004f1565b601f1984166200049a8662000236565b60005b82811015620004c4578489015182556001820191506020850194506020810190506200049d565b86831015620004e45784890151620004e0601f891682620003d4565b8355505b6001600288020188555050505b505050505050565b6129e780620005096000396000f3fe608060405234801561001057600080fd5b506004361061012c5760003560e01c80636352211e116100ad578063a22cb46511610071578063a22cb4651461032d578063b88d4fde14610349578063c87b56dd14610365578063e985e9c514610395578063f2fde38b146103c55761012c565b80636352211e1461028757806370a08231146102b7578063715018a6146102e75780638da5cb5b146102f157806395d89b411461030f5761012c565b806340c10f19116100f457806340c10f19146101e757806342842e0e1461020357806342966c681461021f578063430c20811461023b57806348e001d01461026b5761012c565b806301ffc9a71461013157806306fdde0314610161578063081812fc1461017f578063095ea7b3146101af57806323b872dd146101cb575b600080fd5b61014b60048036038101906101469190611be5565b6103e1565b6040516101589190611c2d565b60405180910390f35b6101696104c3565b6040516101769190611cd8565b60405180910390f35b61019960048036038101906101949190611d30565b610555565b6040516101a69190611d9e565b60405180910390f35b6101c960048036038101906101c49190611de5565b61059b565b005b6101e560048036038101906101e09190611e25565b6106b2565b005b61020160048036038101906101fc9190611de5565b610712565b005b61021d60048036038101906102189190611e25565b610728565b005b61023960048036038101906102349190611d30565b610748565b005b61025560048036038101906102509190611de5565b61075c565b6040516102629190611c2d565b60405180910390f35b61028560048036038101906102809190611de5565b610778565b005b6102a1600480360381019061029c9190611d30565b61078e565b6040516102ae9190611d9e565b60405180910390f35b6102d160048036038101906102cc9190611e78565b610814565b6040516102de9190611eb4565b60405180910390f35b6102ef6108cb565b005b6102f96108df565b6040516103069190611d9e565b60405180910390f35b610317610909565b6040516103249190611cd8565b60405180910390f35b61034760048036038101906103429190611efb565b61099b565b005b610363600480360381019061035e9190612070565b6109b1565b005b61037f600480360381019061037a9190611d30565b610a13565b60405161038c9190611cd8565b60405180910390f35b6103af60048036038101906103aa91906120f3565b610a7b565b6040516103bc9190611c2d565b60405180910390f35b6103df60048036038101906103da9190611e78565b610b0f565b005b60007f80ac58cd000000000000000000000000000000000000000000000000000000007bffffffffffffffffffffffffffffffffffffffffffffffffffffffff1916827bffffffffffffffffffffffffffffffffffffffffffffffffffffffff191614806104ac57507f5b5e139f000000000000000000000000000000000000000000000000000000007bffffffffffffffffffffffffffffffffffffffffffffffffffffffff1916827bffffffffffffffffffffffffffffffffffffffffffffffffffffffff1916145b806104bc57506104bb82610b92565b5b9050919050565b6060600080546104d290612162565b80601f01602080910402602001604051908101604052809291908181526020018280546104fe90612162565b801561054b5780601f106105205761010080835404028352916020019161054b565b820191906000526020600020905b81548152906001019060200180831161052e57829003601f168201915b5050505050905090565b600061056082610bfc565b6004600083815260200190815260200160002060009054906101000a900473ffffffffffffffffffffffffffffffffffffffff169050919050565b60006105a68261078e565b90508073ffffffffffffffffffffffffffffffffffffffff168373ffffffffffffffffffffffffffffffffffffffff1603610616576040517f08c379a000000000000000000000000000000000000000000000000000000000815260040161060d90612205565b60405180910390fd5b8073ffffffffffffffffffffffffffffffffffffffff16610635610c47565b73ffffffffffffffffffffffffffffffffffffffff16148061066457506106638161065e610c47565b610a7b565b5b6106a3576040517f08c379a000000000000000000000000000000000000000000000000000000000815260040161069a90612297565b60405180910390fd5b6106ad8383610c4f565b505050565b6106c36106bd610c47565b82610d08565b610702576040517f08c379a00000000000000000000000000000000000000000000000000000000081526004016106f990612329565b60405180910390fd5b61070d838383610d9d565b505050565b61071a611096565b6107248282611114565b5050565b610743838383604051806020016040528060008152506109b1565b505050565b610750611096565b61075981611331565b50565b6000610766611096565b6107708383610d08565b905092915050565b610780611096565b61078a8282610c4f565b5050565b60008061079a8361147f565b9050600073ffffffffffffffffffffffffffffffffffffffff168173ffffffffffffffffffffffffffffffffffffffff160361080b576040517f08c379a000000000000000000000000000000000000000000000000000000000815260040161080290612395565b60405180910390fd5b80915050919050565b60008073ffffffffffffffffffffffffffffffffffffffff168273ffffffffffffffffffffffffffffffffffffffff1603610884576040517f08c379a000000000000000000000000000000000000000000000000000000000815260040161087b90612427565b60405180910390fd5b600360008373ffffffffffffffffffffffffffffffffffffffff1673ffffffffffffffffffffffffffffffffffffffff168152602001908152602001600020549050919050565b6108d3611096565b6108dd60006114bc565b565b6000600660009054906101000a900473ffffffffffffffffffffffffffffffffffffffff16905090565b60606001805461091890612162565b80601f016020809104026020016040519081016040528092919081815260200182805461094490612162565b80156109915780601f1061096657610100808354040283529160200191610991565b820191906000526020600020905b81548152906001019060200180831161097457829003601f168201915b5050505050905090565b6109ad6109a6610c47565b8383611582565b5050565b6109c26109bc610c47565b83610d08565b610a01576040517f08c379a00000000000000000000000000000000000000000000000000000000081526004016109f890612329565b60405180910390fd5b610a0d848484846116ee565b50505050565b6060610a1e82610bfc565b6000610a2861174a565b90506000815111610a485760405180602001604052806000815250610a73565b80610a5284611761565b604051602001610a63929190612483565b6040516020818303038152906040525b915050919050565b6000600560008473ffffffffffffffffffffffffffffffffffffffff1673ffffffffffffffffffffffffffffffffffffffff16815260200190815260200160002060008373ffffffffffffffffffffffffffffffffffffffff1673ffffffffffffffffffffffffffffffffffffffff16815260200190815260200160002060009054906101000a900460ff16905092915050565b610b17611096565b600073ffffffffffffffffffffffffffffffffffffffff168173ffffffffffffffffffffffffffffffffffffffff1603610b86576040517f08c379a0000000000000000000000000000000000000000000000000000000008152600401610b7d90612519565b60405180910390fd5b610b8f816114bc565b50565b60007f01ffc9a7000000000000000000000000000000000000000000000000000000007bffffffffffffffffffffffffffffffffffffffffffffffffffffffff1916827bffffffffffffffffffffffffffffffffffffffffffffffffffffffff1916149050919050565b610c058161182f565b610c44576040517f08c379a0000000000000000000000000000000000000000000000000000000008152600401610c3b90612395565b60405180910390fd5b50565b600033905090565b816004600083815260200190815260200160002060006101000a81548173ffffffffffffffffffffffffffffffffffffffff021916908373ffffffffffffffffffffffffffffffffffffffff160217905550808273ffffffffffffffffffffffffffffffffffffffff16610cc28361078e565b73ffffffffffffffffffffffffffffffffffffffff167f8c5be1e5ebec7d5bd14f71427d1e84f3dd0314c0f7b2291e5b200ac8c7c3b92560405160405180910390a45050565b600080610d148361078e565b90508073ffffffffffffffffffffffffffffffffffffffff168473ffffffffffffffffffffffffffffffffffffffff161480610d565750610d558185610a7b565b5b80610d9457508373ffffffffffffffffffffffffffffffffffffffff16610d7c84610555565b73ffffffffffffffffffffffffffffffffffffffff16145b91505092915050565b8273ffffffffffffffffffffffffffffffffffffffff16610dbd8261078e565b73ffffffffffffffffffffffffffffffffffffffff1614610e13576040517f08c379a0000000000000000000000000000000000000000000000000000000008152600401610e0a906125ab565b60405180910390fd5b600073ffffffffffffffffffffffffffffffffffffffff168273ffffffffffffffffffffffffffffffffffffffff1603610e82576040517f08c379a0000000000000000000000000000000000000000000000000000000008152600401610e799061263d565b60405180910390fd5b610e8f8383836001611870565b8273ffffffffffffffffffffffffffffffffffffffff16610eaf8261078e565b73ffffffffffffffffffffffffffffffffffffffff1614610f05576040517f08c379a0000000000000000000000000000000000000000000000000000000008152600401610efc906125ab565b60405180910390fd5b6004600082815260200190815260200160002060006101000a81549073ffffffffffffffffffffffffffffffffffffffff02191690556001600360008573ffffffffffffffffffffffffffffffffffffffff1673ffffffffffffffffffffffffffffffffffffffff168152602001908152602001600020600082825403925050819055506001600360008473ffffffffffffffffffffffffffffffffffffffff1673ffffffffffffffffffffffffffffffffffffffff16815260200190815260200160002060008282540192505081905550816002600083815260200190815260200160002060006101000a81548173ffffffffffffffffffffffffffffffffffffffff021916908373ffffffffffffffffffffffffffffffffffffffff160217905550808273ffffffffffffffffffffffffffffffffffffffff168473ffffffffffffffffffffffffffffffffffffffff167fddf252ad1be2c89b69c2b068fc378daa952ba7f163c4a11628f55a4df523b3ef60405160405180910390a46110918383836001611876565b505050565b61109e610c47565b73ffffffffffffffffffffffffffffffffffffffff166110bc6108df565b73ffffffffffffffffffffffffffffffffffffffff1614611112576040517f08c379a0000000000000000000000000000000000000000000000000000000008152600401611109906126a9565b60405180910390fd5b565b600073ffffffffffffffffffffffffffffffffffffffff168273ffffffffffffffffffffffffffffffffffffffff1603611183576040517f08c379a000000000000000000000000000000000000000000000000000000000815260040161117a90612715565b60405180910390fd5b61118c8161182f565b156111cc576040517f08c379a00000000000000000000000000000000000000000000000000000000081526004016111c390612781565b60405180910390fd5b6111da600083836001611870565b6111e38161182f565b15611223576040517f08c379a000000000000000000000000000000000000000000000000000000000815260040161121a90612781565b60405180910390fd5b6001600360008473ffffffffffffffffffffffffffffffffffffffff1673ffffffffffffffffffffffffffffffffffffffff16815260200190815260200160002060008282540192505081905550816002600083815260200190815260200160002060006101000a81548173ffffffffffffffffffffffffffffffffffffffff021916908373ffffffffffffffffffffffffffffffffffffffff160217905550808273ffffffffffffffffffffffffffffffffffffffff16600073ffffffffffffffffffffffffffffffffffffffff167fddf252ad1be2c89b69c2b068fc378daa952ba7f163c4a11628f55a4df523b3ef60405160405180910390a461132d600083836001611876565b5050565b600061133c8261078e565b905061134c816000846001611870565b6113558261078e565b90506004600083815260200190815260200160002060006101000a81549073ffffffffffffffffffffffffffffffffffffffff02191690556001600360008373ffffffffffffffffffffffffffffffffffffffff1673ffffffffffffffffffffffffffffffffffffffff168152602001908152602001600020600082825403925050819055506002600083815260200190815260200160002060006101000a81549073ffffffffffffffffffffffffffffffffffffffff021916905581600073ffffffffffffffffffffffffffffffffffffffff168273ffffffffffffffffffffffffffffffffffffffff167fddf252ad1be2c89b69c2b068fc378daa952ba7f163c4a11628f55a4df523b3ef60405160405180910390a461147b816000846001611876565b5050565b60006002600083815260200190815260200160002060009054906101000a900473ffffffffffffffffffffffffffffffffffffffff169050919050565b6000600660009054906101000a900473ffffffffffffffffffffffffffffffffffffffff16905081600660006101000a81548173ffffffffffffffffffffffffffffffffffffffff021916908373ffffffffffffffffffffffffffffffffffffffff1602179055508173ffffffffffffffffffffffffffffffffffffffff168173ffffffffffffffffffffffffffffffffffffffff167f8be0079c531659141344cd1fd0a4f28419497f9722a3daafe3b4186f6b6457e060405160405180910390a35050565b8173ffffffffffffffffffffffffffffffffffffffff168373ffffffffffffffffffffffffffffffffffffffff16036115f0576040517f08c379a00000000000000000000000000000000000000000000000000000000081526004016115e7906127ed565b60405180910390fd5b80600560008573ffffffffffffffffffffffffffffffffffffffff1673ffffffffffffffffffffffffffffffffffffffff16815260200190815260200160002060008473ffffffffffffffffffffffffffffffffffffffff1673ffffffffffffffffffffffffffffffffffffffff16815260200190815260200160002060006101000a81548160ff0219169083151502179055508173ffffffffffffffffffffffffffffffffffffffff168373ffffffffffffffffffffffffffffffffffffffff167f17307eab39ab6107e8899845ad3d59bd9653f200f220920489ca2b5937696c31836040516116e19190611c2d565b60405180910390a3505050565b6116f9848484610d9d565b6117058484848461187c565b611744576040517f08c379a000000000000000000000000000000000000000000000000000000000815260040161173b9061287f565b60405180910390fd5b50505050565b606060405180602001604052806000815250905090565b60606000600161177084611a03565b01905060008167ffffffffffffffff81111561178f5761178e611f45565b5b6040519080825280601f01601f1916602001820160405280156117c15781602001600182028036833780820191505090505b509050600082602001820190505b600115611824578080600190039150507f3031323334353637383961626364656600000000000000000000000000000000600a86061a8153600a85816118185761181761289f565b5b049450600085036117cf575b819350505050919050565b60008073ffffffffffffffffffffffffffffffffffffffff166118518361147f565b73ffffffffffffffffffffffffffffffffffffffff1614159050919050565b50505050565b50505050565b600061189d8473ffffffffffffffffffffffffffffffffffffffff16611b56565b156119f6578373ffffffffffffffffffffffffffffffffffffffff1663150b7a026118c6610c47565b8786866040518563ffffffff1660e01b81526004016118e89493929190612923565b6020604051808303816000875af192505050801561192457506040513d601f19601f820116820180604052508101906119219190612984565b60015b6119a6573d8060008114611954576040519150601f19603f3d011682016040523d82523d6000602084013e611959565b606091505b50600081510361199e576040517f08c379a00000000000000000000000000000000000000000000000000000000081526004016119959061287f565b60405180910390fd5b805181602001fd5b63150b7a0260e01b7bffffffffffffffffffffffffffffffffffffffffffffffffffffffff1916817bffffffffffffffffffffffffffffffffffffffffffffffffffffffff1916149150506119fb565b600190505b949350505050565b600080600090507a184f03e93ff9f4daa797ed6e38ed64bf6a1f0100000000000000008310611a61577a184f03e93ff9f4daa797ed6e38ed64bf6a1f0100000000000000008381611a5757611a5661289f565b5b0492506040810190505b6d04ee2d6d415b85acef81000000008310611a9e576d04ee2d6d415b85acef81000000008381611a9457611a9361289f565b5b0492506020810190505b662386f26fc100008310611acd57662386f26fc100008381611ac357611ac261289f565b5b0492506010810190505b6305f5e1008310611af6576305f5e1008381611aec57611aeb61289f565b5b0492506008810190505b6127108310611b1b576127108381611b1157611b1061289f565b5b0492506004810190505b60648310611b3e5760648381611b3457611b3361289f565b5b0492506002810190505b600a8310611b4d576001810190505b80915050919050565b6000808273ffffffffffffffffffffffffffffffffffffffff163b119050919050565b6000604051905090565b600080fd5b600080fd5b60007fffffffff0000000000000000000000000000000000000000000000000000000082169050919050565b611bc281611b8d565b8114611bcd57600080fd5b50565b600081359050611bdf81611bb9565b92915050565b600060208284031215611bfb57611bfa611b83565b5b6000611c0984828501611bd0565b91505092915050565b60008115159050919050565b611c2781611c12565b82525050565b6000602082019050611c426000830184611c1e565b92915050565b600081519050919050565b600082825260208201905092915050565b60005b83811015611c82578082015181840152602081019050611c67565b60008484015250505050565b6000601f19601f8301169050919050565b6000611caa82611c48565b611cb48185611c53565b9350611cc4818560208601611c64565b611ccd81611c8e565b840191505092915050565b60006020820190508181036000830152611cf28184611c9f565b905092915050565b6000819050919050565b611d0d81611cfa565b8114611d1857600080fd5b50565b600081359050611d2a81611d04565b92915050565b600060208284031215611d4657611d45611b83565b5b6000611d5484828501611d1b565b91505092915050565b600073ffffffffffffffffffffffffffffffffffffffff82169050919050565b6000611d8882611d5d565b9050919050565b611d9881611d7d565b82525050565b6000602082019050611db36000830184611d8f565b92915050565b611dc281611d7d565b8114611dcd57600080fd5b50565b600081359050611ddf81611db9565b92915050565b60008060408385031215611dfc57611dfb611b83565b5b6000611e0a85828601611dd0565b9250506020611e1b85828601611d1b565b9150509250929050565b600080600060608486031215611e3e57611e3d611b83565b5b6000611e4c86828701611dd0565b9350506020611e5d86828701611dd0565b9250506040611e6e86828701611d1b565b9150509250925092565b600060208284031215611e8e57611e8d611b83565b5b6000611e9c84828501611dd0565b91505092915050565b611eae81611cfa565b82525050565b6000602082019050611ec96000830184611ea5565b92915050565b611ed881611c12565b8114611ee357600080fd5b50565b600081359050611ef581611ecf565b92915050565b60008060408385031215611f1257611f11611b83565b5b6000611f2085828601611dd0565b9250506020611f3185828601611ee6565b9150509250929050565b600080fd5b600080fd5b7f4e487b7100000000000000000000000000000000000000000000000000000000600052604160045260246000fd5b611f7d82611c8e565b810181811067ffffffffffffffff82111715611f9c57611f9b611f45565b5b80604052505050565b6000611faf611b79565b9050611fbb8282611f74565b919050565b600067ffffffffffffffff821115611fdb57611fda611f45565b5b611fe482611c8e565b9050602081019050919050565b82818337600083830152505050565b600061201361200e84611fc0565b611fa5565b90508281526020810184848401111561202f5761202e611f40565b5b61203a848285611ff1565b509392505050565b600082601f83011261205757612056611f3b565b5b8135612067848260208601612000565b91505092915050565b6000806000806080858703121561208a57612089611b83565b5b600061209887828801611dd0565b94505060206120a987828801611dd0565b93505060406120ba87828801611d1b565b925050606085013567ffffffffffffffff8111156120db576120da611b88565b5b6120e787828801612042565b91505092959194509250565b6000806040838503121561210a57612109611b83565b5b600061211885828601611dd0565b925050602061212985828601611dd0565b9150509250929050565b7f4e487b7100000000000000000000000000000000000000000000000000000000600052602260045260246000fd5b6000600282049050600182168061217a57607f821691505b60208210810361218d5761218c612133565b5b50919050565b7f4552433732313a20617070726f76616c20746f2063757272656e74206f776e6560008201527f7200000000000000000000000000000000000000000000000000000000000000602082015250565b60006121ef602183611c53565b91506121fa82612193565b604082019050919050565b6000602082019050818103600083015261221e816121e2565b9050919050565b7f4552433732313a20617070726f76652063616c6c6572206973206e6f7420746f60008201527f6b656e206f776e6572206f7220617070726f76656420666f7220616c6c000000602082015250565b6000612281603d83611c53565b915061228c82612225565b604082019050919050565b600060208201905081810360008301526122b081612274565b9050919050565b7f4552433732313a2063616c6c6572206973206e6f7420746f6b656e206f776e6560008201527f72206f7220617070726f76656400000000000000000000000000000000000000602082015250565b6000612313602d83611c53565b915061231e826122b7565b604082019050919050565b6000602082019050818103600083015261234281612306565b9050919050565b7f4552433732313a20696e76616c696420746f6b656e2049440000000000000000600082015250565b600061237f601883611c53565b915061238a82612349565b602082019050919050565b600060208201905081810360008301526123ae81612372565b9050919050565b7f4552433732313a2061646472657373207a65726f206973206e6f74206120766160008201527f6c6964206f776e65720000000000000000000000000000000000000000000000602082015250565b6000612411602983611c53565b915061241c826123b5565b604082019050919050565b6000602082019050818103600083015261244081612404565b9050919050565b600081905092915050565b600061245d82611c48565b6124678185612447565b9350612477818560208601611c64565b80840191505092915050565b600061248f8285612452565b915061249b8284612452565b91508190509392505050565b7f4f776e61626c653a206e6577206f776e657220697320746865207a65726f206160008201527f6464726573730000000000000000000000000000000000000000000000000000602082015250565b6000612503602683611c53565b915061250e826124a7565b604082019050919050565b60006020820190508181036000830152612532816124f6565b9050919050565b7f4552433732313a207472616e736665722066726f6d20696e636f72726563742060008201527f6f776e6572000000000000000000000000000000000000000000000000000000602082015250565b6000612595602583611c53565b91506125a082612539565b604082019050919050565b600060208201905081810360008301526125c481612588565b9050919050565b7f4552433732313a207472616e7366657220746f20746865207a65726f2061646460008201527f7265737300000000000000000000000000000000000000000000000000000000602082015250565b6000612627602483611c53565b9150612632826125cb565b604082019050919050565b600060208201905081810360008301526126568161261a565b9050919050565b7f4f776e61626c653a2063616c6c6572206973206e6f7420746865206f776e6572600082015250565b6000612693602083611c53565b915061269e8261265d565b602082019050919050565b600060208201905081810360008301526126c281612686565b9050919050565b7f4552433732313a206d696e7420746f20746865207a65726f2061646472657373600082015250565b60006126ff602083611c53565b915061270a826126c9565b602082019050919050565b6000602082019050818103600083015261272e816126f2565b9050919050565b7f4552433732313a20746f6b656e20616c7265616479206d696e74656400000000600082015250565b600061276b601c83611c53565b915061277682612735565b602082019050919050565b6000602082019050818103600083015261279a8161275e565b9050919050565b7f4552433732313a20617070726f766520746f2063616c6c657200000000000000600082015250565b60006127d7601983611c53565b91506127e2826127a1565b602082019050919050565b60006020820190508181036000830152612806816127ca565b9050919050565b7f4552433732313a207472616e7366657220746f206e6f6e20455243373231526560008201527f63656976657220696d706c656d656e7465720000000000000000000000000000602082015250565b6000612869603283611c53565b91506128748261280d565b604082019050919050565b600060208201905081810360008301526128988161285c565b9050919050565b7f4e487b7100000000000000000000000000000000000000000000000000000000600052601260045260246000fd5b600081519050919050565b600082825260208201905092915050565b60006128f5826128ce565b6128ff81856128d9565b935061290f818560208601611c64565b61291881611c8e565b840191505092915050565b60006080820190506129386000830187611d8f565b6129456020830186611d8f565b6129526040830185611ea5565b818103606083015261296481846128ea565b905095945050505050565b60008151905061297e81611bb9565b92915050565b60006020828403121561299a57612999611b83565b5b60006129a88482850161296f565b9150509291505056fea26469706673582212209e62168ef47b7ad0b6c40684a3e340a049519e52acfb9d9337edfcf8d26a574564736f6c63430008120033",
  "immutableReferences": {},
  "source": "// SPDX-License-Identifier: GPL-3.0\n\npragma solidity >=0.7.0 <0.9.0;\n\nimport \"./Strongbox.sol\";\nimport \"./TaskNFT.sol\";\nimport \"@openzeppelin/contracts/utils/Counters.sol\";\n\ncontract TrustExchange is Strongbox {\n\n    address private owner;\n    TaskNFT private taskNft;\n\n    constructor() {\n        owner = msg.sender;\n        taskNft = new TaskNFT();\n    }\n\n    event TaskStateChanged(address indexed sender, uint indexed taskAddr, TaskState newState);\n\n    enum TaskState {\n        UNASSIGNED_TASK,\n        VERIFY_TASK,\n        FINISHED_TASK,\n        REMOVED_TASK,\n        REJECTED_TASK   \n    }\n\n    struct Task {\n        uint taskAddr;\n        TaskState state;\n\n        address requester;\n        uint salary;\n        uint requesterProofOfTrust;\n        uint requesterMinimumTrustValueForWorker;\n\n        address worker;\n        uint workerProofOfTrust;       \n    }\n\n    modifier CurrentTask(uint taskAddr, TaskState state) {\n        require(tasks[taskAddr].state == state, \"Task is not at the correct state for this process\");\n        _;\n    }\n\n    mapping (uint => Task) public tasks;\n\n    using Counters for Counters.Counter;\n    Counters.Counter private _taskIds;\n\n\n    function NFTaddress() public view returns (address) {\n        return address(taskNft);\n    }\n\n    function setDealer(address _to, uint256 _taskAddr) public CurrentTask(_taskAddr, TaskState.UNASSIGNED_TASK) {\n        Task storage task = tasks[_taskAddr];\n        require(msg.sender == task.requester);\n        task.worker = _to;\n        taskNft.approveTask(_to, _taskAddr);\n    }\n\n    function setSalary(uint _taskAddr, uint _salary) public CurrentTask(_taskAddr, TaskState.UNASSIGNED_TASK) {\n        Task storage task = tasks[_taskAddr];\n        require(msg.sender == task.requester);\n\n        if(_salary > task.salary) {\n            lock(msg.sender, _salary - task.salary);\n        } else if (_salary < task.salary) {\n            unlock(msg.sender, task.salary - _salary);\n        }\n        task.salary = _salary;\n    }\n\n    function setProofOfTrust(uint _taskAddr, uint _proof) public CurrentTask(_taskAddr, TaskState.UNASSIGNED_TASK) {\n        Task storage task = tasks[_taskAddr];\n        require(msg.sender == task.requester);\n\n        if(_proof > task.requesterProofOfTrust) {\n            lock(msg.sender, _proof - task.requesterProofOfTrust);\n        } else if (_proof < task.requesterProofOfTrust) {\n            unlock(msg.sender, task.requesterProofOfTrust - _proof);\n        }\n        task.requesterProofOfTrust = _proof;\n    }\n\n    function setMinimumTrustForWorker(uint _taskAddr, uint _proof) public CurrentTask(_taskAddr, TaskState.UNASSIGNED_TASK) {\n        Task storage task = tasks[_taskAddr];\n        require(msg.sender == task.requester);\n        task.requesterMinimumTrustValueForWorker = _proof;\n    }\n\n    function createTask(\n        uint _salary,\n        uint _requesterProofOfTrust,\n        uint _requesterMinimumTrustValueForWorker,\n        address _dealer\n        ) public {\n            lock(msg.sender, _salary + _requesterProofOfTrust);\n\n            Task memory task;\n            task.state = TaskState.UNASSIGNED_TASK;\n            task.requester = msg.sender;\n            task.salary = _salary;\n            task.requesterProofOfTrust = _requesterProofOfTrust;\n            task.requesterMinimumTrustValueForWorker = _requesterMinimumTrustValueForWorker;\n\n            task.taskAddr = _taskIds.current();\n            task.worker = _dealer;\n            _taskIds.increment();\n\n            tasks[task.taskAddr] = task;\n            taskNft.mint(msg.sender, task.taskAddr);\n            taskNft.approveTask(_dealer, task.taskAddr);\n            \n            emit TaskStateChanged(msg.sender, task.taskAddr, task.state);\n    }\n\n    function doneTaskWithTrust(uint256 _taskAddr, uint _workerProofOfTrust) public CurrentTask(_taskAddr, TaskState.UNASSIGNED_TASK) {\n        Task storage task = tasks[_taskAddr];\n        require(task.requester != address(0x0));\n        require(task.requesterMinimumTrustValueForWorker <= _workerProofOfTrust);\n        require(taskNft.isApprovedOrOwner(msg.sender, _taskAddr));\n\n        lock(msg.sender, _workerProofOfTrust);\n\n        task.state = TaskState.VERIFY_TASK;\n        task.worker = msg.sender;\n        task.workerProofOfTrust = _workerProofOfTrust;\n        emit TaskStateChanged(msg.sender, task.taskAddr, task.state);\n    }\n\n    function doneTask(uint256 _taskAddr) public {\n        require(tasks[_taskAddr].worker == msg.sender, \"Sender is not worker of the task\");\n        require(tasks[_taskAddr].state == TaskState.REJECTED_TASK, \"Task is not at the correct state\");\n        tasks[_taskAddr].state = TaskState.VERIFY_TASK;\n        emit TaskStateChanged(msg.sender, _taskAddr, tasks[_taskAddr].state);\n    }\n\n    function finishTask(uint256 _taskAddr) public CurrentTask(_taskAddr, TaskState.VERIFY_TASK) {\n        require(tasks[_taskAddr].requester == msg.sender, \"Sender is not requester of the task\");\n\n        Task storage task = tasks[_taskAddr];\n        unlock(task.requester, task.salary + task.requesterProofOfTrust);\n        unlock(task.worker, task.workerProofOfTrust);\n        transfer(task.requester, task.worker, task.salary);\n        task.state = TaskState.FINISHED_TASK;\n        taskNft.burn(task.taskAddr);\n        emit TaskStateChanged(msg.sender, task.taskAddr, task.state);\n    }\n\n    function cancelTask(uint256 _taskAddr) public {\n        Task storage task = tasks[_taskAddr];\n        if (task.state == TaskState.UNASSIGNED_TASK) {\n            require(msg.sender == task.requester, \"Task doesnt exists with the requested address\");    \n            _cancelTask(task);\n            emit TaskStateChanged(msg.sender, task.taskAddr, task.state);\n        } else {\n            revert(\"Task is not at the state UNASSIGNED_TASK\");\n        }\n    }\n\n    function _cancelTask(Task storage _task) private {\n        unlock(_task.requester, _task.salary + _task.requesterProofOfTrust);\n        _task.state = TaskState.REMOVED_TASK;\n        taskNft.burn(_task.taskAddr);\n    }\n\n    function rejectTask(uint256 _taskAddr) public CurrentTask(_taskAddr, TaskState.VERIFY_TASK) {\n        require(tasks[_taskAddr].requester == msg.sender, \"Sender is not requester of the task\");\n        Task storage task = tasks[_taskAddr];\n        task.state = TaskState.REJECTED_TASK;\n        emit TaskStateChanged(msg.sender, task.taskAddr, task.state);\n    }\n\n    function unFinishTask(uint256 _taskAddr) public {\n        Task storage task = tasks[_taskAddr];\n        require(task.state == TaskState.REJECTED_TASK || task.state == TaskState.VERIFY_TASK, \"Task is not at correct state\");\n        require(task.requester == msg.sender || task.worker == msg.sender, \"Caller has not premission to finish this task\");\n\n        uint repaymentRate = calcRepaymentRate(task);\n\n        uint requesterTaskLockedFund = task.salary + task.requesterProofOfTrust;\n        uint workerTaskLockedFund = task.workerProofOfTrust;\n\n        uint requesterBurnValue = requesterTaskLockedFund * repaymentRate / 100;\n        uint workerBurnValue = workerTaskLockedFund * repaymentRate / 100;\n\n        burn(task.requester, requesterBurnValue);\n        burn(task.worker, workerBurnValue);\n        unlock(task.requester, requesterTaskLockedFund - requesterBurnValue);\n        unlock(task.worker, workerTaskLockedFund - workerBurnValue);\n\n        task.state = TaskState.UNASSIGNED_TASK;\n        task.worker = address(0);\n        task.requesterMinimumTrustValueForWorker = 0;\n        task.requesterProofOfTrust = 0;\n        task.workerProofOfTrust = 0;\n        task.salary = 0;\n        taskNft.approveTask(address(0), task.taskAddr);\n\n        emit TaskStateChanged(msg.sender, task.taskAddr, task.state);\n    }\n\n    function calcRepaymentRate(Task memory task) internal pure returns (uint) {\n        return (((task.salary + (task.requesterProofOfTrust / 4)) * 100) / (task.salary + task.requesterProofOfTrust));\n    }\n\n}",
  "sourcePath": "/home/sepehr/blockchain/TrustDeal/contracts/TrustExchange.sol",
  "compiler": {
    "name": "solc",
    "version": "0.8.18+commit.87f61d96.Linux.g++"
  },
  "schemaVersion": "3.4.13",
  "updatedAt": "2023-06-22T05:37:39.449Z",
  "networkType": "ethereum",
  "devdoc": {
    "kind": "dev",
    "methods": {},
    "version": 1
  },
  "userdoc": {
    "kind": "user",
    "methods": {},
    "version": 1
  }
}