{
  "contractName": "TrustExchange",
  "abi": [
    {
      "anonymous": false,
      "inputs": [
        {
          "indexed": true,
          "internalType": "address",
          "name": "sender",
          "type": "address"
        },
        {
          "indexed": true,
          "internalType": "bytes32",
          "name": "taskAddr",
          "type": "bytes32"
        },
        {
          "indexed": false,
          "internalType": "enum TrustExchange.TaskState",
          "name": "newState",
          "type": "uint8"
        }
      ],
      "name": "TaskStateChanged",
      "type": "event"
    },
    {
      "inputs": [],
      "name": "deposit",
      "outputs": [],
      "stateMutability": "payable",
      "type": "function"
    },
    {
      "inputs": [
        {
          "internalType": "address",
          "name": "",
          "type": "address"
        }
      ],
      "name": "ownerToFunds",
      "outputs": [
        {
          "internalType": "uint256",
          "name": "actual",
          "type": "uint256"
        },
        {
          "internalType": "uint256",
          "name": "locked",
          "type": "uint256"
        }
      ],
      "stateMutability": "view",
      "type": "function"
    },
    {
      "inputs": [
        {
          "internalType": "bytes32",
          "name": "",
          "type": "bytes32"
        }
      ],
      "name": "tasks",
      "outputs": [
        {
          "internalType": "bytes32",
          "name": "taskAddr",
          "type": "bytes32"
        },
        {
          "internalType": "enum TrustExchange.TaskState",
          "name": "state",
          "type": "uint8"
        },
        {
          "internalType": "address",
          "name": "requester",
          "type": "address"
        },
        {
          "internalType": "uint256",
          "name": "salary",
          "type": "uint256"
        },
        {
          "internalType": "uint256",
          "name": "requesterProofOfTrust",
          "type": "uint256"
        },
        {
          "internalType": "uint256",
          "name": "requesterMinimumTrustValueForWorker",
          "type": "uint256"
        },
        {
          "internalType": "address",
          "name": "worker",
          "type": "address"
        },
        {
          "internalType": "uint256",
          "name": "workerProofOfTrust",
          "type": "uint256"
        }
      ],
      "stateMutability": "view",
      "type": "function"
    },
    {
      "inputs": [
        {
          "internalType": "uint256",
          "name": "_amount",
          "type": "uint256"
        }
      ],
      "name": "withdraw",
      "outputs": [],
      "stateMutability": "nonpayable",
      "type": "function"
    },
    {
      "inputs": [
        {
          "internalType": "uint256",
          "name": "_salary",
          "type": "uint256"
        },
        {
          "internalType": "uint256",
          "name": "_requesterProofOfTrust",
          "type": "uint256"
        },
        {
          "internalType": "uint256",
          "name": "_requesterMinimumTrustValueForWorker",
          "type": "uint256"
        }
      ],
      "name": "createTask",
      "outputs": [],
      "stateMutability": "nonpayable",
      "type": "function"
    },
    {
      "inputs": [
        {
          "internalType": "bytes32",
          "name": "_taskAddr",
          "type": "bytes32"
        },
        {
          "internalType": "uint256",
          "name": "_workerProofOfTrust",
          "type": "uint256"
        }
      ],
      "name": "acceptTask",
      "outputs": [],
      "stateMutability": "nonpayable",
      "type": "function"
    },
    {
      "inputs": [
        {
          "internalType": "bytes32",
          "name": "_taskAddr",
          "type": "bytes32"
        }
      ],
      "name": "doneTask",
      "outputs": [],
      "stateMutability": "nonpayable",
      "type": "function"
    },
    {
      "inputs": [
        {
          "internalType": "bytes32",
          "name": "_taskAddr",
          "type": "bytes32"
        }
      ],
      "name": "finishTask",
      "outputs": [],
      "stateMutability": "nonpayable",
      "type": "function"
    },
    {
      "inputs": [
        {
          "internalType": "bytes32",
          "name": "_taskAddr",
          "type": "bytes32"
        }
      ],
      "name": "cancelTask",
      "outputs": [],
      "stateMutability": "nonpayable",
      "type": "function"
    }
  ],
  "bytecode": "0x608060405260008060006101000a81548173ffffffffffffffffffffffffffffffffffffffff021916908373ffffffffffffffffffffffffffffffffffffffff16021790555034801561005157600080fd5b50612155806100616000396000f3fe6080604052600436106100865760003560e01c8063ab1b606f11610059578063ab1b606f1461012f578063d0e30db014610158578063e579f50014610162578063ee8ca3b5146101a6578063efac5247146101cf57610086565b80632e1a7d4d1461008b5780635dc5aec9146100b4578063781d102a146100dd5780637d2b33ee14610106575b600080fd5b34801561009757600080fd5b506100b260048036038101906100ad91906116da565b61020d565b005b3480156100c057600080fd5b506100db60048036038101906100d69190611707565b61039b565b005b3480156100e957600080fd5b5061010460048036038101906100ff9190611790565b6105dd565b005b34801561011257600080fd5b5061012d600480360381019061012891906117bd565b610885565b005b34801561013b57600080fd5b5061015660048036038101906101519190611790565b610aa8565b005b610160610c8d565b005b34801561016e57600080fd5b5061018960048036038101906101849190611790565b610d2e565b60405161019d9897969594939291906118d3565b60405180910390f35b3480156101b257600080fd5b506101cd60048036038101906101c89190611790565b610dc3565b005b3480156101db57600080fd5b506101f660048036038101906101f1919061197d565b6111a0565b6040516102049291906119aa565b60405180910390f35b80600160003373ffffffffffffffffffffffffffffffffffffffff1673ffffffffffffffffffffffffffffffffffffffff168152602001908152602001600020600001541015610292576040517f08c379a000000000000000000000000000000000000000000000000000000000815260040161028990611a56565b60405180910390fd5b80600160003373ffffffffffffffffffffffffffffffffffffffff1673ffffffffffffffffffffffffffffffffffffffff16815260200190815260200160002060000160008282546102e49190611aa5565b9250508190555060003373ffffffffffffffffffffffffffffffffffffffff168260405161031190611b0a565b60006040518083038185875af1925050503d806000811461034e576040519150601f19603f3d011682016040523d82523d6000602084013e610353565b606091505b5050905080610397576040517f08c379a000000000000000000000000000000000000000000000000000000000815260040161038e90611b6b565b60405180910390fd5b5050565b6103b03383856103ab9190611b8b565b6111c4565b6103b8611619565b6000816020019060048111156103d1576103d061180c565b5b908160048111156103e5576103e461180c565b5b8152505033816040019073ffffffffffffffffffffffffffffffffffffffff16908173ffffffffffffffffffffffffffffffffffffffff16815250508381606001818152505082816080018181525050818160a0018181525050838383426040516020016104569493929190611be0565b604051602081830303815290604052805190602001208160000181815250508060026000836000015181526020019081526020016000206000820151816000015560208201518160010160006101000a81548160ff021916908360048111156104c2576104c161180c565b5b021790555060408201518160010160016101000a81548173ffffffffffffffffffffffffffffffffffffffff021916908373ffffffffffffffffffffffffffffffffffffffff160217905550606082015181600201556080820151816003015560a0820151816004015560c08201518160050160006101000a81548173ffffffffffffffffffffffffffffffffffffffff021916908373ffffffffffffffffffffffffffffffffffffffff16021790555060e0820151816006015590505080600001513373ffffffffffffffffffffffffffffffffffffffff167f9aef3be90d711f7754bc249cb377e6b789e3f2e862a22e5f04b3f71fcca9657c83602001516040516105cf9190611c2e565b60405180910390a350505050565b8060028060048111156105f3576105f261180c565b5b6002600084815260200190815260200160002060010160009054906101000a900460ff1660048111156106295761062861180c565b5b14610669576040517f08c379a000000000000000000000000000000000000000000000000000000000815260040161066090611cbb565b60405180910390fd5b3373ffffffffffffffffffffffffffffffffffffffff166002600085815260200190815260200160002060010160019054906101000a900473ffffffffffffffffffffffffffffffffffffffff1673ffffffffffffffffffffffffffffffffffffffff161461070d576040517f08c379a000000000000000000000000000000000000000000000000000000000815260040161070490611d4d565b60405180910390fd5b60006002600085815260200190815260200160002090506107658160010160019054906101000a900473ffffffffffffffffffffffffffffffffffffffff16826003015483600201546107609190611b8b565b6112ff565b6107978160050160009054906101000a900473ffffffffffffffffffffffffffffffffffffffff1682600601546112ff565b6107ee8160010160019054906101000a900473ffffffffffffffffffffffffffffffffffffffff168260050160009054906101000a900473ffffffffffffffffffffffffffffffffffffffff16836002015461143a565b60038160010160006101000a81548160ff021916908360048111156108165761081561180c565b5b021790555080600001543373ffffffffffffffffffffffffffffffffffffffff167f9aef3be90d711f7754bc249cb377e6b789e3f2e862a22e5f04b3f71fcca9657c8360010160009054906101000a900460ff166040516108779190611c2e565b60405180910390a350505050565b81600080600481111561089b5761089a61180c565b5b6002600084815260200190815260200160002060010160009054906101000a900460ff1660048111156108d1576108d061180c565b5b14610911576040517f08c379a000000000000000000000000000000000000000000000000000000000815260040161090890611cbb565b60405180910390fd5b600073ffffffffffffffffffffffffffffffffffffffff166002600086815260200190815260200160002060010160019054906101000a900473ffffffffffffffffffffffffffffffffffffffff1673ffffffffffffffffffffffffffffffffffffffff160361098057600080fd5b82600260008681526020019081526020016000206004015411156109a357600080fd5b6109ad33846111c4565b600060026000868152602001908152602001600020905060018160010160006101000a81548160ff021916908360048111156109ec576109eb61180c565b5b0217905550338160050160006101000a81548173ffffffffffffffffffffffffffffffffffffffff021916908373ffffffffffffffffffffffffffffffffffffffff16021790555083816006018190555080600001543373ffffffffffffffffffffffffffffffffffffffff167f9aef3be90d711f7754bc249cb377e6b789e3f2e862a22e5f04b3f71fcca9657c8360010160009054906101000a900460ff16604051610a999190611c2e565b60405180910390a35050505050565b806001806004811115610abe57610abd61180c565b5b6002600084815260200190815260200160002060010160009054906101000a900460ff166004811115610af457610af361180c565b5b14610b34576040517f08c379a0000000000000000000000000000000000000000000000000000000008152600401610b2b90611cbb565b60405180910390fd5b3373ffffffffffffffffffffffffffffffffffffffff166002600085815260200190815260200160002060050160009054906101000a900473ffffffffffffffffffffffffffffffffffffffff1673ffffffffffffffffffffffffffffffffffffffff1614610bd8576040517f08c379a0000000000000000000000000000000000000000000000000000000008152600401610bcf90611db9565b60405180910390fd5b600280600085815260200190815260200160002060010160006101000a81548160ff02191690836004811115610c1157610c1061180c565b5b0217905550823373ffffffffffffffffffffffffffffffffffffffff167f9aef3be90d711f7754bc249cb377e6b789e3f2e862a22e5f04b3f71fcca9657c6002600087815260200190815260200160002060010160009054906101000a900460ff16604051610c809190611c2e565b60405180910390a3505050565b633b9aca003411610cd3576040517f08c379a0000000000000000000000000000000000000000000000000000000008152600401610cca90611e25565b60405180910390fd5b34600160003373ffffffffffffffffffffffffffffffffffffffff1673ffffffffffffffffffffffffffffffffffffffff1681526020019081526020016000206000016000828254610d259190611b8b565b92505081905550565b60026020528060005260406000206000915090508060000154908060010160009054906101000a900460ff16908060010160019054906101000a900473ffffffffffffffffffffffffffffffffffffffff16908060020154908060030154908060040154908060050160009054906101000a900473ffffffffffffffffffffffffffffffffffffffff16908060060154905088565b600060026000838152602001908152602001600020905060006004811115610dee57610ded61180c565b5b8160010160009054906101000a900460ff166004811115610e1257610e1161180c565b5b03610eae578060010160019054906101000a900473ffffffffffffffffffffffffffffffffffffffff1673ffffffffffffffffffffffffffffffffffffffff163373ffffffffffffffffffffffffffffffffffffffff1614610ea9576040517f08c379a0000000000000000000000000000000000000000000000000000000008152600401610ea090611eb7565b60405180910390fd5b6110ae565b60016004811115610ec257610ec161180c565b5b8160010160009054906101000a900460ff166004811115610ee657610ee561180c565b5b03610fdc578060010160019054906101000a900473ffffffffffffffffffffffffffffffffffffffff1673ffffffffffffffffffffffffffffffffffffffff163373ffffffffffffffffffffffffffffffffffffffff161480610f9857508060050160009054906101000a900473ffffffffffffffffffffffffffffffffffffffff1673ffffffffffffffffffffffffffffffffffffffff163373ffffffffffffffffffffffffffffffffffffffff16145b610fd7576040517f08c379a0000000000000000000000000000000000000000000000000000000008152600401610fce90611f49565b60405180910390fd5b6110ad565b60026004811115610ff057610fef61180c565b5b8160010160009054906101000a900460ff1660048111156110145761101361180c565b5b036110ac578060050160009054906101000a900473ffffffffffffffffffffffffffffffffffffffff1673ffffffffffffffffffffffffffffffffffffffff163373ffffffffffffffffffffffffffffffffffffffff16146110ab576040517f08c379a00000000000000000000000000000000000000000000000000000000081526004016110a290611f49565b60405180910390fd5b5b5b5b600360048111156110c2576110c161180c565b5b8160010160009054906101000a900460ff1660048111156110e6576110e561180c565b5b1415801561112957506004808111156111025761110161180c565b5b8160010160009054906101000a900460ff1660048111156111265761112561180c565b5b14155b1561119c5761113781611576565b80600001543373ffffffffffffffffffffffffffffffffffffffff167f9aef3be90d711f7754bc249cb377e6b789e3f2e862a22e5f04b3f71fcca9657c8360010160009054906101000a900460ff166040516111939190611c2e565b60405180910390a35b5050565b60016020528060005260406000206000915090508060000154908060010154905082565b80600160008473ffffffffffffffffffffffffffffffffffffffff1673ffffffffffffffffffffffffffffffffffffffff168152602001908152602001600020600001541015611249576040517f08c379a000000000000000000000000000000000000000000000000000000000815260040161124090611fdb565b60405180910390fd5b80600160008473ffffffffffffffffffffffffffffffffffffffff1673ffffffffffffffffffffffffffffffffffffffff168152602001908152602001600020600001600082825461129b9190611aa5565b9250508190555080600160008473ffffffffffffffffffffffffffffffffffffffff1673ffffffffffffffffffffffffffffffffffffffff16815260200190815260200160002060010160008282546112f49190611b8b565b925050819055505050565b80600160008473ffffffffffffffffffffffffffffffffffffffff1673ffffffffffffffffffffffffffffffffffffffff168152602001908152602001600020600101541015611384576040517f08c379a000000000000000000000000000000000000000000000000000000000815260040161137b9061206d565b60405180910390fd5b80600160008473ffffffffffffffffffffffffffffffffffffffff1673ffffffffffffffffffffffffffffffffffffffff16815260200190815260200160002060000160008282546113d69190611b8b565b9250508190555080600160008473ffffffffffffffffffffffffffffffffffffffff1673ffffffffffffffffffffffffffffffffffffffff168152602001908152602001600020600101600082825461142f9190611aa5565b925050819055505050565b80600160008573ffffffffffffffffffffffffffffffffffffffff1673ffffffffffffffffffffffffffffffffffffffff1681526020019081526020016000206000015410156114bf576040517f08c379a00000000000000000000000000000000000000000000000000000000081526004016114b6906120ff565b60405180910390fd5b80600160008573ffffffffffffffffffffffffffffffffffffffff1673ffffffffffffffffffffffffffffffffffffffff16815260200190815260200160002060000160008282546115119190611aa5565b9250508190555080600160008473ffffffffffffffffffffffffffffffffffffffff1673ffffffffffffffffffffffffffffffffffffffff168152602001908152602001600020600001600082825461156a9190611b8b565b92505081905550505050565b6115b78160010160019054906101000a900473ffffffffffffffffffffffffffffffffffffffff16826003015483600201546115b29190611b8b565b6112ff565b6115e98160050160009054906101000a900473ffffffffffffffffffffffffffffffffffffffff1682600601546112ff565b60048160010160006101000a81548160ff021916908360048111156116115761161061180c565b5b021790555050565b60405180610100016040528060008019168152602001600060048111156116435761164261180c565b5b8152602001600073ffffffffffffffffffffffffffffffffffffffff168152602001600081526020016000815260200160008152602001600073ffffffffffffffffffffffffffffffffffffffff168152602001600081525090565b600080fd5b6000819050919050565b6116b7816116a4565b81146116c257600080fd5b50565b6000813590506116d4816116ae565b92915050565b6000602082840312156116f0576116ef61169f565b5b60006116fe848285016116c5565b91505092915050565b6000806000606084860312156117205761171f61169f565b5b600061172e868287016116c5565b935050602061173f868287016116c5565b9250506040611750868287016116c5565b9150509250925092565b6000819050919050565b61176d8161175a565b811461177857600080fd5b50565b60008135905061178a81611764565b92915050565b6000602082840312156117a6576117a561169f565b5b60006117b48482850161177b565b91505092915050565b600080604083850312156117d4576117d361169f565b5b60006117e28582860161177b565b92505060206117f3858286016116c5565b9150509250929050565b6118068161175a565b82525050565b7f4e487b7100000000000000000000000000000000000000000000000000000000600052602160045260246000fd5b6005811061184c5761184b61180c565b5b50565b600081905061185d8261183b565b919050565b600061186d8261184f565b9050919050565b61187d81611862565b82525050565b600073ffffffffffffffffffffffffffffffffffffffff82169050919050565b60006118ae82611883565b9050919050565b6118be816118a3565b82525050565b6118cd816116a4565b82525050565b6000610100820190506118e9600083018b6117fd565b6118f6602083018a611874565b61190360408301896118b5565b61191060608301886118c4565b61191d60808301876118c4565b61192a60a08301866118c4565b61193760c08301856118b5565b61194460e08301846118c4565b9998505050505050505050565b61195a816118a3565b811461196557600080fd5b50565b60008135905061197781611951565b92915050565b6000602082840312156119935761199261169f565b5b60006119a184828501611968565b91505092915050565b60006040820190506119bf60008301856118c4565b6119cc60208301846118c4565b9392505050565b600082825260208201905092915050565b7f5468657265206973206e6f20656e6f7567682066756e6420666f72207468652060008201527f63757272656e74206163636f756e740000000000000000000000000000000000602082015250565b6000611a40602f836119d3565b9150611a4b826119e4565b604082019050919050565b60006020820190508181036000830152611a6f81611a33565b9050919050565b7f4e487b7100000000000000000000000000000000000000000000000000000000600052601160045260246000fd5b6000611ab0826116a4565b9150611abb836116a4565b9250828203905081811115611ad357611ad2611a76565b5b92915050565b600081905092915050565b50565b6000611af4600083611ad9565b9150611aff82611ae4565b600082019050919050565b6000611b1582611ae7565b9150819050919050565b7f5472616e73666572206661696c65640000000000000000000000000000000000600082015250565b6000611b55600f836119d3565b9150611b6082611b1f565b602082019050919050565b60006020820190508181036000830152611b8481611b48565b9050919050565b6000611b96826116a4565b9150611ba1836116a4565b9250828201905080821115611bb957611bb8611a76565b5b92915050565b6000819050919050565b611bda611bd5826116a4565b611bbf565b82525050565b6000611bec8287611bc9565b602082019150611bfc8286611bc9565b602082019150611c0c8285611bc9565b602082019150611c1c8284611bc9565b60208201915081905095945050505050565b6000602082019050611c436000830184611874565b92915050565b7f5461736b206973206e6f742061742074686520636f727265637420737461746560008201527f20666f7220746869732070726f63657373000000000000000000000000000000602082015250565b6000611ca56031836119d3565b9150611cb082611c49565b604082019050919050565b60006020820190508181036000830152611cd481611c98565b9050919050565b7f53656e646572206973206e6f7420726571756573746572206f6620746865207460008201527f61736b0000000000000000000000000000000000000000000000000000000000602082015250565b6000611d376023836119d3565b9150611d4282611cdb565b604082019050919050565b60006020820190508181036000830152611d6681611d2a565b9050919050565b7f53656e646572206973206e6f7420776f726b6572206f6620746865207461736b600082015250565b6000611da36020836119d3565b9150611dae82611d6d565b602082019050919050565b60006020820190508181036000830152611dd281611d96565b9050919050565b7f4d696e696d756d206465706f7369742076616c75652069732031204757454900600082015250565b6000611e0f601f836119d3565b9150611e1a82611dd9565b602082019050919050565b60006020820190508181036000830152611e3e81611e02565b9050919050565b7f5461736b20646f65736e7420657869737473207769746820746865207265717560008201527f6573746564206164647265737300000000000000000000000000000000000000602082015250565b6000611ea1602d836119d3565b9150611eac82611e45565b604082019050919050565b60006020820190508181036000830152611ed081611e94565b9050919050565b7f53656e64657220646f65736e742068617665207072656d697373696f6e20746f60008201527f2063616e63656c2074686973207461736b000000000000000000000000000000602082015250565b6000611f336031836119d3565b9150611f3e82611ed7565b604082019050919050565b60006020820190508181036000830152611f6281611f26565b9050919050565b7f5468657265206973206e6f20656e6f7567682061637475616c2066756e64206660008201527f6f722074686973206f776e657200000000000000000000000000000000000000602082015250565b6000611fc5602d836119d3565b9150611fd082611f69565b604082019050919050565b60006020820190508181036000830152611ff481611fb8565b9050919050565b7f416d6f756e7420697320626967676572207468616e206c6f636b65642066756e60008201527f647320666f722074686973206f776e6572000000000000000000000000000000602082015250565b60006120576031836119d3565b915061206282611ffb565b604082019050919050565b600060208201905081810360008301526120868161204a565b9050919050565b7f5468657265206973206e6f20656e6f7567682061637475616c2066756e64732060008201527f666f72207468652073656e646572000000000000000000000000000000000000602082015250565b60006120e9602e836119d3565b91506120f48261208d565b604082019050919050565b60006020820190508181036000830152612118816120dc565b905091905056fea26469706673582212201affcee8ef48f67133b3017d9b94fa22202fc7d40c1bc21d9a711cd8da7ed8b064736f6c63430008120033",
  "immutableReferences": {},
  "source": "// SPDX-License-Identifier: GPL-3.0\n\npragma solidity >=0.7.0 <0.9.0;\n\nimport \"./Strongbox.sol\";\n\ncontract TrustExchange is Strongbox {\n\n    event TaskStateChanged(address indexed sender, bytes32 indexed taskAddr, TaskState newState);\n\n    enum TaskState {\n        CREATED_BY_REQUESTER,\n        ACCEPTED_BY_WORKER,\n        DONE_BY_WORKER,\n        FINISH_BY_REQUESTER,\n        CANCELED        \n    }\n\n    struct Task {\n        bytes32 taskAddr;\n        TaskState state;\n\n        address requester;\n        uint salary;\n        uint requesterProofOfTrust;\n        uint requesterMinimumTrustValueForWorker;\n\n        address worker;\n        uint workerProofOfTrust;       \n    }\n\n    modifier CurrentTask(bytes32 taskAddr, TaskState state) {\n        require(tasks[taskAddr].state == state, \"Task is not at the correct state for this process\");\n        _;\n    }\n\n    mapping (bytes32 => Task) public tasks;\n\n    function createTask(\n        uint _salary,\n        uint _requesterProofOfTrust,\n        uint _requesterMinimumTrustValueForWorker\n        ) public {\n            lock(msg.sender, _salary + _requesterProofOfTrust);\n\n            Task memory task;\n            task.state = TaskState.CREATED_BY_REQUESTER;\n            task.requester = msg.sender;\n            task.salary = _salary;\n            task.requesterProofOfTrust = _requesterProofOfTrust;\n            task.requesterMinimumTrustValueForWorker = _requesterMinimumTrustValueForWorker;\n            task.taskAddr = keccak256(abi.encodePacked(_salary, _requesterProofOfTrust, _requesterMinimumTrustValueForWorker, block.timestamp));\n\n            tasks[task.taskAddr] = task;\n            emit TaskStateChanged(msg.sender, task.taskAddr, task.state);\n    }\n\n    function acceptTask(bytes32 _taskAddr, uint _workerProofOfTrust) public CurrentTask(_taskAddr, TaskState.CREATED_BY_REQUESTER) {\n        require(tasks[_taskAddr].requester != address(0x0));\n        require(tasks[_taskAddr].requesterMinimumTrustValueForWorker <= _workerProofOfTrust);\n        lock(msg.sender, _workerProofOfTrust);\n\n        Task storage task = tasks[_taskAddr];\n        task.state = TaskState.ACCEPTED_BY_WORKER;\n        task.worker = msg.sender;\n        task.workerProofOfTrust = _workerProofOfTrust;\n        emit TaskStateChanged(msg.sender, task.taskAddr, task.state);\n    }\n\n    function doneTask(bytes32 _taskAddr) public CurrentTask(_taskAddr, TaskState.ACCEPTED_BY_WORKER) {\n        require(tasks[_taskAddr].worker == msg.sender, \"Sender is not worker of the task\");\n        tasks[_taskAddr].state = TaskState.DONE_BY_WORKER;\n        emit TaskStateChanged(msg.sender, _taskAddr, tasks[_taskAddr].state);\n    }\n\n    function finishTask(bytes32 _taskAddr) public CurrentTask(_taskAddr, TaskState.DONE_BY_WORKER) {\n        require(tasks[_taskAddr].requester == msg.sender, \"Sender is not requester of the task\");\n\n        Task storage task = tasks[_taskAddr];\n        unlock(task.requester, task.salary + task.requesterProofOfTrust);\n        unlock(task.worker, task.workerProofOfTrust);\n        transfer(task.requester, task.worker, task.salary);\n        task.state = TaskState.FINISH_BY_REQUESTER;\n        emit TaskStateChanged(msg.sender, task.taskAddr, task.state);\n    }\n\n    function cancelTask(bytes32 _taskAddr) public {\n        Task storage task = tasks[_taskAddr];\n        if (task.state == TaskState.CREATED_BY_REQUESTER) {\n            require(msg.sender == task.requester, \"Task doesnt exists with the requested address\");    \n        } else if (task.state == TaskState.ACCEPTED_BY_WORKER) {\n            require(msg.sender == task.requester || msg.sender == task.worker, \"Sender doesnt have premission to cancel this task\");\n        } else if (task.state == TaskState.DONE_BY_WORKER) {\n            require(msg.sender == task.worker, \"Sender doesnt have premission to cancel this task\");\n        }\n        \n        if (task.state != TaskState.FINISH_BY_REQUESTER && task.state != TaskState.CANCELED) {\n            _cancelTask(task);\n            emit TaskStateChanged(msg.sender, task.taskAddr, task.state);\n        }\n    }\n\n    function _cancelTask(Task storage _task) private {\n        unlock(_task.requester, _task.salary + _task.requesterProofOfTrust);\n        unlock(_task.worker, _task.workerProofOfTrust);\n        _task.state = TaskState.CANCELED;\n    }\n}",
  "sourcePath": "/home/sepehr/blockchain/TrustDeal/contracts/TrustExchange.sol",
  "compiler": {
    "name": "solc",
    "version": "0.8.18+commit.87f61d96.Linux.g++"
  },
  "schemaVersion": "3.4.13",
  "updatedAt": "2023-05-29T16:11:48.338Z",
  "devdoc": {
    "kind": "dev",
    "methods": {},
    "version": 1
  },
  "userdoc": {
    "kind": "user",
    "methods": {},
    "version": 1
  }
}