{
  "contractName": "TrustExchange",
  "abi": [
    {
      "anonymous": false,
      "inputs": [
        {
          "indexed": true,
          "internalType": "address",
          "name": "sender",
          "type": "address"
        },
        {
          "indexed": true,
          "internalType": "uint256",
          "name": "taskAddr",
          "type": "uint256"
        },
        {
          "indexed": false,
          "internalType": "enum TrustExchange.TaskState",
          "name": "newState",
          "type": "uint8"
        }
      ],
      "name": "TaskStateChanged",
      "type": "event"
    },
    {
      "inputs": [],
      "name": "deposit",
      "outputs": [],
      "stateMutability": "payable",
      "type": "function",
      "payable": true
    },
    {
      "inputs": [
        {
          "internalType": "address",
          "name": "",
          "type": "address"
        }
      ],
      "name": "ownerToFunds",
      "outputs": [
        {
          "internalType": "uint256",
          "name": "actual",
          "type": "uint256"
        },
        {
          "internalType": "uint256",
          "name": "locked",
          "type": "uint256"
        }
      ],
      "stateMutability": "view",
      "type": "function",
      "constant": true
    },
    {
      "inputs": [
        {
          "internalType": "uint256",
          "name": "",
          "type": "uint256"
        }
      ],
      "name": "tasks",
      "outputs": [
        {
          "internalType": "uint256",
          "name": "taskAddr",
          "type": "uint256"
        },
        {
          "internalType": "enum TrustExchange.TaskState",
          "name": "state",
          "type": "uint8"
        },
        {
          "internalType": "address",
          "name": "requester",
          "type": "address"
        },
        {
          "internalType": "uint256",
          "name": "salary",
          "type": "uint256"
        },
        {
          "internalType": "uint256",
          "name": "requesterProofOfTrust",
          "type": "uint256"
        },
        {
          "internalType": "uint256",
          "name": "requesterMinimumTrustValueForWorker",
          "type": "uint256"
        },
        {
          "internalType": "address",
          "name": "worker",
          "type": "address"
        },
        {
          "internalType": "uint256",
          "name": "workerProofOfTrust",
          "type": "uint256"
        }
      ],
      "stateMutability": "view",
      "type": "function",
      "constant": true
    },
    {
      "inputs": [
        {
          "internalType": "uint256",
          "name": "_amount",
          "type": "uint256"
        }
      ],
      "name": "withdraw",
      "outputs": [],
      "stateMutability": "nonpayable",
      "type": "function"
    },
    {
      "inputs": [
        {
          "internalType": "uint256",
          "name": "_salary",
          "type": "uint256"
        },
        {
          "internalType": "uint256",
          "name": "_requesterProofOfTrust",
          "type": "uint256"
        },
        {
          "internalType": "uint256",
          "name": "_requesterMinimumTrustValueForWorker",
          "type": "uint256"
        }
      ],
      "name": "createTask",
      "outputs": [],
      "stateMutability": "nonpayable",
      "type": "function"
    },
    {
      "inputs": [
        {
          "internalType": "uint256",
          "name": "_taskAddr",
          "type": "uint256"
        },
        {
          "internalType": "uint256",
          "name": "_workerProofOfTrust",
          "type": "uint256"
        }
      ],
      "name": "doneTaskWithTrust",
      "outputs": [],
      "stateMutability": "nonpayable",
      "type": "function"
    },
    {
      "inputs": [
        {
          "internalType": "uint256",
          "name": "_taskAddr",
          "type": "uint256"
        }
      ],
      "name": "doneTask",
      "outputs": [],
      "stateMutability": "nonpayable",
      "type": "function"
    },
    {
      "inputs": [
        {
          "internalType": "uint256",
          "name": "_taskAddr",
          "type": "uint256"
        }
      ],
      "name": "finishTask",
      "outputs": [],
      "stateMutability": "nonpayable",
      "type": "function"
    },
    {
      "inputs": [
        {
          "internalType": "uint256",
          "name": "_taskAddr",
          "type": "uint256"
        }
      ],
      "name": "cancelTask",
      "outputs": [],
      "stateMutability": "nonpayable",
      "type": "function"
    },
    {
      "inputs": [
        {
          "internalType": "uint256",
          "name": "_taskAddr",
          "type": "uint256"
        }
      ],
      "name": "rejectTask",
      "outputs": [],
      "stateMutability": "nonpayable",
      "type": "function"
    },
    {
      "inputs": [
        {
          "internalType": "uint256",
          "name": "_taskAddr",
          "type": "uint256"
        }
      ],
      "name": "unFinishTask",
      "outputs": [],
      "stateMutability": "nonpayable",
      "type": "function"
    }
  ],
  "bytecode": "0x608060405260008060006101000a81548173ffffffffffffffffffffffffffffffffffffffff021916908373ffffffffffffffffffffffffffffffffffffffff16021790555034801561005157600080fd5b50612b57806100616000396000f3fe60806040526004361061009c5760003560e01c80637eec20a8116100645780637eec20a81461016e578063842178b2146101975780638d977672146101c0578063d0e30db014610204578063dc7aea081461020e578063efac5247146102375761009c565b80632e1a7d4d146100a15780635dc5aec9146100ca5780635e6f8337146100f35780636c9568201461011c5780637d81b40b14610145575b600080fd5b3480156100ad57600080fd5b506100c860048036038101906100c39190611ee9565b610275565b005b3480156100d657600080fd5b506100f160048036038101906100ec9190611f16565b610403565b005b3480156100ff57600080fd5b5061011a60048036038101906101159190611ee9565b61064a565b005b34801561012857600080fd5b50610143600480360381019061013e9190611f69565b61082c565b005b34801561015157600080fd5b5061016c60048036038101906101679190611ee9565b610a4f565b005b34801561017a57600080fd5b5061019560048036038101906101909190611ee9565b610c2d565b005b3480156101a357600080fd5b506101be60048036038101906101b99190611ee9565b610f1d565b005b3480156101cc57600080fd5b506101e760048036038101906101e29190611ee9565b6111c5565b6040516101fb989796959493929190612070565b60405180910390f35b61020c61125a565b005b34801561021a57600080fd5b5061023560048036038101906102309190611ee9565b6112fb565b005b34801561024357600080fd5b5061025e6004803603810190610259919061211a565b6117a9565b60405161026c929190612147565b60405180910390f35b80600160003373ffffffffffffffffffffffffffffffffffffffff1673ffffffffffffffffffffffffffffffffffffffff1681526020019081526020016000206000015410156102fa576040517f08c379a00000000000000000000000000000000000000000000000000000000081526004016102f1906121f3565b60405180910390fd5b80600160003373ffffffffffffffffffffffffffffffffffffffff1673ffffffffffffffffffffffffffffffffffffffff168152602001908152602001600020600001600082825461034c9190612242565b9250508190555060003373ffffffffffffffffffffffffffffffffffffffff1682604051610379906122a7565b60006040518083038185875af1925050503d80600081146103b6576040519150601f19603f3d011682016040523d82523d6000602084013e6103bb565b606091505b50509050806103ff576040517f08c379a00000000000000000000000000000000000000000000000000000000081526004016103f690612308565b60405180910390fd5b5050565b6104183383856104139190612328565b6117cd565b610420611e2b565b60008160200190600581111561043957610438611fb8565b5b9081600581111561044d5761044c611fb8565b5b8152505033816040019073ffffffffffffffffffffffffffffffffffffffff16908173ffffffffffffffffffffffffffffffffffffffff16815250508381606001818152505082816080018181525050818160a001818152505083838333426040516020016104c09594939291906123c5565b6040516020818303038152906040528051906020012060001c8160000181815250508060026000836000015181526020019081526020016000206000820151816000015560208201518160010160006101000a81548160ff0219169083600581111561052f5761052e611fb8565b5b021790555060408201518160010160016101000a81548173ffffffffffffffffffffffffffffffffffffffff021916908373ffffffffffffffffffffffffffffffffffffffff160217905550606082015181600201556080820151816003015560a0820151816004015560c08201518160050160006101000a81548173ffffffffffffffffffffffffffffffffffffffff021916908373ffffffffffffffffffffffffffffffffffffffff16021790555060e0820151816006015590505080600001513373ffffffffffffffffffffffffffffffffffffffff167f5f54ce667b6030b388930f0357f5f8b7db064926b129a97ad5062edff2b162b1836020015160405161063c9190612424565b60405180910390a350505050565b3373ffffffffffffffffffffffffffffffffffffffff166002600083815260200190815260200160002060050160009054906101000a900473ffffffffffffffffffffffffffffffffffffffff1673ffffffffffffffffffffffffffffffffffffffff16146106ee576040517f08c379a00000000000000000000000000000000000000000000000000000000081526004016106e59061248b565b60405180910390fd5b6004600581111561070257610701611fb8565b5b6002600083815260200190815260200160002060010160009054906101000a900460ff16600581111561073857610737611fb8565b5b14610778576040517f08c379a000000000000000000000000000000000000000000000000000000000815260040161076f906124f7565b60405180910390fd5b60016002600083815260200190815260200160002060010160006101000a81548160ff021916908360058111156107b2576107b1611fb8565b5b0217905550803373ffffffffffffffffffffffffffffffffffffffff167f5f54ce667b6030b388930f0357f5f8b7db064926b129a97ad5062edff2b162b16002600085815260200190815260200160002060010160009054906101000a900460ff166040516108219190612424565b60405180910390a350565b81600080600581111561084257610841611fb8565b5b6002600084815260200190815260200160002060010160009054906101000a900460ff16600581111561087857610877611fb8565b5b146108b8576040517f08c379a00000000000000000000000000000000000000000000000000000000081526004016108af90612589565b60405180910390fd5b600073ffffffffffffffffffffffffffffffffffffffff166002600086815260200190815260200160002060010160019054906101000a900473ffffffffffffffffffffffffffffffffffffffff1673ffffffffffffffffffffffffffffffffffffffff160361092757600080fd5b826002600086815260200190815260200160002060040154111561094a57600080fd5b61095433846117cd565b600060026000868152602001908152602001600020905060018160010160006101000a81548160ff0219169083600581111561099357610992611fb8565b5b0217905550338160050160006101000a81548173ffffffffffffffffffffffffffffffffffffffff021916908373ffffffffffffffffffffffffffffffffffffffff16021790555083816006018190555080600001543373ffffffffffffffffffffffffffffffffffffffff167f5f54ce667b6030b388930f0357f5f8b7db064926b129a97ad5062edff2b162b18360010160009054906101000a900460ff16604051610a409190612424565b60405180910390a35050505050565b806001806005811115610a6557610a64611fb8565b5b6002600084815260200190815260200160002060010160009054906101000a900460ff166005811115610a9b57610a9a611fb8565b5b14610adb576040517f08c379a0000000000000000000000000000000000000000000000000000000008152600401610ad290612589565b60405180910390fd5b3373ffffffffffffffffffffffffffffffffffffffff166002600085815260200190815260200160002060010160019054906101000a900473ffffffffffffffffffffffffffffffffffffffff1673ffffffffffffffffffffffffffffffffffffffff1614610b7f576040517f08c379a0000000000000000000000000000000000000000000000000000000008152600401610b769061261b565b60405180910390fd5b600060026000858152602001908152602001600020905060048160010160006101000a81548160ff02191690836005811115610bbe57610bbd611fb8565b5b021790555080600001543373ffffffffffffffffffffffffffffffffffffffff167f5f54ce667b6030b388930f0357f5f8b7db064926b129a97ad5062edff2b162b18360010160009054906101000a900460ff16604051610c1f9190612424565b60405180910390a350505050565b600060026000838152602001908152602001600020905060006005811115610c5857610c57611fb8565b5b8160010160009054906101000a900460ff166005811115610c7c57610c7b611fb8565b5b03610d18578060010160019054906101000a900473ffffffffffffffffffffffffffffffffffffffff1673ffffffffffffffffffffffffffffffffffffffff163373ffffffffffffffffffffffffffffffffffffffff1614610d13576040517f08c379a0000000000000000000000000000000000000000000000000000000008152600401610d0a906126ad565b60405180910390fd5b610de9565b60016005811115610d2c57610d2b611fb8565b5b8160010160009054906101000a900460ff166005811115610d5057610d4f611fb8565b5b03610de8578060050160009054906101000a900473ffffffffffffffffffffffffffffffffffffffff1673ffffffffffffffffffffffffffffffffffffffff163373ffffffffffffffffffffffffffffffffffffffff1614610de7576040517f08c379a0000000000000000000000000000000000000000000000000000000008152600401610dde9061273f565b60405180910390fd5b5b5b60026005811115610dfd57610dfc611fb8565b5b8160010160009054906101000a900460ff166005811115610e2157610e20611fb8565b5b14158015610e65575060036005811115610e3e57610e3d611fb8565b5b8160010160009054906101000a900460ff166005811115610e6257610e61611fb8565b5b14155b8015610ea65750600580811115610e7f57610e7e611fb8565b5b8160010160009054906101000a900460ff166005811115610ea357610ea2611fb8565b5b14155b15610f1957610eb481611908565b80600001543373ffffffffffffffffffffffffffffffffffffffff167f5f54ce667b6030b388930f0357f5f8b7db064926b129a97ad5062edff2b162b18360010160009054906101000a900460ff16604051610f109190612424565b60405180910390a35b5050565b806001806005811115610f3357610f32611fb8565b5b6002600084815260200190815260200160002060010160009054906101000a900460ff166005811115610f6957610f68611fb8565b5b14610fa9576040517f08c379a0000000000000000000000000000000000000000000000000000000008152600401610fa090612589565b60405180910390fd5b3373ffffffffffffffffffffffffffffffffffffffff166002600085815260200190815260200160002060010160019054906101000a900473ffffffffffffffffffffffffffffffffffffffff1673ffffffffffffffffffffffffffffffffffffffff161461104d576040517f08c379a00000000000000000000000000000000000000000000000000000000081526004016110449061261b565b60405180910390fd5b60006002600085815260200190815260200160002090506110a58160010160019054906101000a900473ffffffffffffffffffffffffffffffffffffffff16826003015483600201546110a09190612328565b6119ab565b6110d78160050160009054906101000a900473ffffffffffffffffffffffffffffffffffffffff1682600601546119ab565b61112e8160010160019054906101000a900473ffffffffffffffffffffffffffffffffffffffff168260050160009054906101000a900473ffffffffffffffffffffffffffffffffffffffff168360020154611ae6565b60028160010160006101000a81548160ff0219169083600581111561115657611155611fb8565b5b021790555080600001543373ffffffffffffffffffffffffffffffffffffffff167f5f54ce667b6030b388930f0357f5f8b7db064926b129a97ad5062edff2b162b18360010160009054906101000a900460ff166040516111b79190612424565b60405180910390a350505050565b60026020528060005260406000206000915090508060000154908060010160009054906101000a900460ff16908060010160019054906101000a900473ffffffffffffffffffffffffffffffffffffffff16908060020154908060030154908060040154908060050160009054906101000a900473ffffffffffffffffffffffffffffffffffffffff16908060060154905088565b633b9aca0034116112a0576040517f08c379a0000000000000000000000000000000000000000000000000000000008152600401611297906127ab565b60405180910390fd5b34600160003373ffffffffffffffffffffffffffffffffffffffff1673ffffffffffffffffffffffffffffffffffffffff16815260200190815260200160002060000160008282546112f29190612328565b92505081905550565b60006002600083815260200190815260200160002090506004600581111561132657611325611fb8565b5b8160010160009054906101000a900460ff16600581111561134a57611349611fb8565b5b148061138b57506001600581111561136557611364611fb8565b5b8160010160009054906101000a900460ff16600581111561138957611388611fb8565b5b145b6113ca576040517f08c379a00000000000000000000000000000000000000000000000000000000081526004016113c190612817565b60405180910390fd5b3373ffffffffffffffffffffffffffffffffffffffff168160010160019054906101000a900473ffffffffffffffffffffffffffffffffffffffff1673ffffffffffffffffffffffffffffffffffffffff16148061147757503373ffffffffffffffffffffffffffffffffffffffff168160050160009054906101000a900473ffffffffffffffffffffffffffffffffffffffff1673ffffffffffffffffffffffffffffffffffffffff16145b6114b6576040517f08c379a00000000000000000000000000000000000000000000000000000000081526004016114ad906128a9565b60405180910390fd5b60006115e68260405180610100016040529081600082015481526020016001820160009054906101000a900460ff1660058111156114f7576114f6611fb8565b5b600581111561150957611508611fb8565b5b81526020016001820160019054906101000a900473ffffffffffffffffffffffffffffffffffffffff1673ffffffffffffffffffffffffffffffffffffffff1673ffffffffffffffffffffffffffffffffffffffff1681526020016002820154815260200160038201548152602001600482015481526020016005820160009054906101000a900473ffffffffffffffffffffffffffffffffffffffff1673ffffffffffffffffffffffffffffffffffffffff1673ffffffffffffffffffffffffffffffffffffffff168152602001600682015481525050611c22565b90506000826003015483600201546115fe9190612328565b905060008360060154905060006064848461161991906128c9565b611623919061293a565b905060006064858461163591906128c9565b61163f919061293a565b905061166f8660010160019054906101000a900473ffffffffffffffffffffffffffffffffffffffff1683611c75565b61169d8660050160009054906101000a900473ffffffffffffffffffffffffffffffffffffffff1682611c75565b6116d68660010160019054906101000a900473ffffffffffffffffffffffffffffffffffffffff1683866116d19190612242565b6119ab565b61170f8660050160009054906101000a900473ffffffffffffffffffffffffffffffffffffffff16828561170a9190612242565b6119ab565b60058660010160006101000a81548160ff0219169083600581111561173757611736611fb8565b5b021790555085600001543373ffffffffffffffffffffffffffffffffffffffff167f5f54ce667b6030b388930f0357f5f8b7db064926b129a97ad5062edff2b162b18860010160009054906101000a900460ff166040516117989190612424565b60405180910390a350505050505050565b60016020528060005260406000206000915090508060000154908060010154905082565b80600160008473ffffffffffffffffffffffffffffffffffffffff1673ffffffffffffffffffffffffffffffffffffffff168152602001908152602001600020600001541015611852576040517f08c379a0000000000000000000000000000000000000000000000000000000008152600401611849906129dd565b60405180910390fd5b80600160008473ffffffffffffffffffffffffffffffffffffffff1673ffffffffffffffffffffffffffffffffffffffff16815260200190815260200160002060000160008282546118a49190612242565b9250508190555080600160008473ffffffffffffffffffffffffffffffffffffffff1673ffffffffffffffffffffffffffffffffffffffff16815260200190815260200160002060010160008282546118fd9190612328565b925050819055505050565b6119498160010160019054906101000a900473ffffffffffffffffffffffffffffffffffffffff16826003015483600201546119449190612328565b6119ab565b61197b8160050160009054906101000a900473ffffffffffffffffffffffffffffffffffffffff1682600601546119ab565b60038160010160006101000a81548160ff021916908360058111156119a3576119a2611fb8565b5b021790555050565b80600160008473ffffffffffffffffffffffffffffffffffffffff1673ffffffffffffffffffffffffffffffffffffffff168152602001908152602001600020600101541015611a30576040517f08c379a0000000000000000000000000000000000000000000000000000000008152600401611a2790612a6f565b60405180910390fd5b80600160008473ffffffffffffffffffffffffffffffffffffffff1673ffffffffffffffffffffffffffffffffffffffff1681526020019081526020016000206000016000828254611a829190612328565b9250508190555080600160008473ffffffffffffffffffffffffffffffffffffffff1673ffffffffffffffffffffffffffffffffffffffff1681526020019081526020016000206001016000828254611adb9190612242565b925050819055505050565b80600160008573ffffffffffffffffffffffffffffffffffffffff1673ffffffffffffffffffffffffffffffffffffffff168152602001908152602001600020600001541015611b6b576040517f08c379a0000000000000000000000000000000000000000000000000000000008152600401611b6290612b01565b60405180910390fd5b80600160008573ffffffffffffffffffffffffffffffffffffffff1673ffffffffffffffffffffffffffffffffffffffff1681526020019081526020016000206000016000828254611bbd9190612242565b9250508190555080600160008473ffffffffffffffffffffffffffffffffffffffff1673ffffffffffffffffffffffffffffffffffffffff1681526020019081526020016000206000016000828254611c169190612328565b92505081905550505050565b600081608001518260600151611c389190612328565b606460048460800151611c4b919061293a565b8460600151611c5a9190612328565b611c6491906128c9565b611c6e919061293a565b9050919050565b80600160008473ffffffffffffffffffffffffffffffffffffffff1673ffffffffffffffffffffffffffffffffffffffff168152602001908152602001600020600101541015611cfa576040517f08c379a0000000000000000000000000000000000000000000000000000000008152600401611cf190612a6f565b60405180910390fd5b60008060009054906101000a900473ffffffffffffffffffffffffffffffffffffffff1673ffffffffffffffffffffffffffffffffffffffff1682604051611d41906122a7565b60006040518083038185875af1925050503d8060008114611d7e576040519150601f19603f3d011682016040523d82523d6000602084013e611d83565b606091505b505090508015611deb5781600160008573ffffffffffffffffffffffffffffffffffffffff1673ffffffffffffffffffffffffffffffffffffffff1681526020019081526020016000206001016000828254611ddf9190612242565b92505081905550611e26565b6040517f08c379a0000000000000000000000000000000000000000000000000000000008152600401611e1d90612308565b60405180910390fd5b505050565b6040518061010001604052806000815260200160006005811115611e5257611e51611fb8565b5b8152602001600073ffffffffffffffffffffffffffffffffffffffff168152602001600081526020016000815260200160008152602001600073ffffffffffffffffffffffffffffffffffffffff168152602001600081525090565b600080fd5b6000819050919050565b611ec681611eb3565b8114611ed157600080fd5b50565b600081359050611ee381611ebd565b92915050565b600060208284031215611eff57611efe611eae565b5b6000611f0d84828501611ed4565b91505092915050565b600080600060608486031215611f2f57611f2e611eae565b5b6000611f3d86828701611ed4565b9350506020611f4e86828701611ed4565b9250506040611f5f86828701611ed4565b9150509250925092565b60008060408385031215611f8057611f7f611eae565b5b6000611f8e85828601611ed4565b9250506020611f9f85828601611ed4565b9150509250929050565b611fb281611eb3565b82525050565b7f4e487b7100000000000000000000000000000000000000000000000000000000600052602160045260246000fd5b60068110611ff857611ff7611fb8565b5b50565b600081905061200982611fe7565b919050565b600061201982611ffb565b9050919050565b6120298161200e565b82525050565b600073ffffffffffffffffffffffffffffffffffffffff82169050919050565b600061205a8261202f565b9050919050565b61206a8161204f565b82525050565b600061010082019050612086600083018b611fa9565b612093602083018a612020565b6120a06040830189612061565b6120ad6060830188611fa9565b6120ba6080830187611fa9565b6120c760a0830186611fa9565b6120d460c0830185612061565b6120e160e0830184611fa9565b9998505050505050505050565b6120f78161204f565b811461210257600080fd5b50565b600081359050612114816120ee565b92915050565b6000602082840312156121305761212f611eae565b5b600061213e84828501612105565b91505092915050565b600060408201905061215c6000830185611fa9565b6121696020830184611fa9565b9392505050565b600082825260208201905092915050565b7f5468657265206973206e6f20656e6f7567682066756e6420666f72207468652060008201527f63757272656e74206163636f756e740000000000000000000000000000000000602082015250565b60006121dd602f83612170565b91506121e882612181565b604082019050919050565b6000602082019050818103600083015261220c816121d0565b9050919050565b7f4e487b7100000000000000000000000000000000000000000000000000000000600052601160045260246000fd5b600061224d82611eb3565b915061225883611eb3565b92508282039050818111156122705761226f612213565b5b92915050565b600081905092915050565b50565b6000612291600083612276565b915061229c82612281565b600082019050919050565b60006122b282612284565b9150819050919050565b7f5472616e73666572206661696c65640000000000000000000000000000000000600082015250565b60006122f2600f83612170565b91506122fd826122bc565b602082019050919050565b60006020820190508181036000830152612321816122e5565b9050919050565b600061233382611eb3565b915061233e83611eb3565b925082820190508082111561235657612355612213565b5b92915050565b6000819050919050565b61237761237282611eb3565b61235c565b82525050565b60008160601b9050919050565b60006123958261237d565b9050919050565b60006123a78261238a565b9050919050565b6123bf6123ba8261204f565b61239c565b82525050565b60006123d18288612366565b6020820191506123e18287612366565b6020820191506123f18286612366565b60208201915061240182856123ae565b6014820191506124118284612366565b6020820191508190509695505050505050565b60006020820190506124396000830184612020565b92915050565b7f53656e646572206973206e6f7420776f726b6572206f6620746865207461736b600082015250565b6000612475602083612170565b91506124808261243f565b602082019050919050565b600060208201905081810360008301526124a481612468565b9050919050565b7f5461736b206973206e6f742061742074686520636f7272656374207374617465600082015250565b60006124e1602083612170565b91506124ec826124ab565b602082019050919050565b60006020820190508181036000830152612510816124d4565b9050919050565b7f5461736b206973206e6f742061742074686520636f727265637420737461746560008201527f20666f7220746869732070726f63657373000000000000000000000000000000602082015250565b6000612573603183612170565b915061257e82612517565b604082019050919050565b600060208201905081810360008301526125a281612566565b9050919050565b7f53656e646572206973206e6f7420726571756573746572206f6620746865207460008201527f61736b0000000000000000000000000000000000000000000000000000000000602082015250565b6000612605602383612170565b9150612610826125a9565b604082019050919050565b60006020820190508181036000830152612634816125f8565b9050919050565b7f5461736b20646f65736e7420657869737473207769746820746865207265717560008201527f6573746564206164647265737300000000000000000000000000000000000000602082015250565b6000612697602d83612170565b91506126a28261263b565b604082019050919050565b600060208201905081810360008301526126c68161268a565b9050919050565b7f53656e64657220646f65736e742068617665207072656d697373696f6e20746f60008201527f2063616e63656c2074686973207461736b000000000000000000000000000000602082015250565b6000612729603183612170565b9150612734826126cd565b604082019050919050565b600060208201905081810360008301526127588161271c565b9050919050565b7f4d696e696d756d206465706f7369742076616c75652069732031204757454900600082015250565b6000612795601f83612170565b91506127a08261275f565b602082019050919050565b600060208201905081810360008301526127c481612788565b9050919050565b7f5461736b206973206e6f7420617420636f727265637420737461746500000000600082015250565b6000612801601c83612170565b915061280c826127cb565b602082019050919050565b60006020820190508181036000830152612830816127f4565b9050919050565b7f43616c6c657220686173206e6f74207072656d697373696f6e20746f2066696e60008201527f6973682074686973207461736b00000000000000000000000000000000000000602082015250565b6000612893602d83612170565b915061289e82612837565b604082019050919050565b600060208201905081810360008301526128c281612886565b9050919050565b60006128d482611eb3565b91506128df83611eb3565b92508282026128ed81611eb3565b9150828204841483151761290457612903612213565b5b5092915050565b7f4e487b7100000000000000000000000000000000000000000000000000000000600052601260045260246000fd5b600061294582611eb3565b915061295083611eb3565b9250826129605761295f61290b565b5b828204905092915050565b7f5468657265206973206e6f20656e6f7567682061637475616c2066756e64206660008201527f6f722074686973206f776e657200000000000000000000000000000000000000602082015250565b60006129c7602d83612170565b91506129d28261296b565b604082019050919050565b600060208201905081810360008301526129f6816129ba565b9050919050565b7f416d6f756e7420697320626967676572207468616e206c6f636b65642066756e60008201527f647320666f722074686973206f776e6572000000000000000000000000000000602082015250565b6000612a59603183612170565b9150612a64826129fd565b604082019050919050565b60006020820190508181036000830152612a8881612a4c565b9050919050565b7f5468657265206973206e6f20656e6f7567682061637475616c2066756e64732060008201527f666f72207468652073656e646572000000000000000000000000000000000000602082015250565b6000612aeb602e83612170565b9150612af682612a8f565b604082019050919050565b60006020820190508181036000830152612b1a81612ade565b905091905056fea264697066735822122090f513ead1269869fdfbf38f5c4c9b9c13793d8708d9c2256a882ef955f7bb4964736f6c63430008120033",
  "immutableReferences": {},
  "source": "// SPDX-License-Identifier: GPL-3.0\n\npragma solidity >=0.7.0 <0.9.0;\n\nimport \"./Strongbox.sol\";\n\ncontract TrustExchange is Strongbox {\n\n    event TaskStateChanged(address indexed sender, uint indexed taskAddr, TaskState newState);\n\n    enum TaskState {\n        CREATED_BY_REQUESTER,\n        DONE_BY_WORKER,\n        FINISH_BY_REQUESTER,\n        CANCELED,\n        REJECTED,\n        UNFINISHED   \n    }\n\n    struct Task {\n        uint taskAddr;\n        TaskState state;\n\n        address requester;\n        uint salary;\n        uint requesterProofOfTrust;\n        uint requesterMinimumTrustValueForWorker;\n\n        address worker;\n        uint workerProofOfTrust;       \n    }\n\n    modifier CurrentTask(uint taskAddr, TaskState state) {\n        require(tasks[taskAddr].state == state, \"Task is not at the correct state for this process\");\n        _;\n    }\n\n    mapping (uint => Task) public tasks;\n\n    function createTask(\n        uint _salary,\n        uint _requesterProofOfTrust,\n        uint _requesterMinimumTrustValueForWorker\n        ) public {\n            lock(msg.sender, _salary + _requesterProofOfTrust);\n\n            Task memory task;\n            task.state = TaskState.CREATED_BY_REQUESTER;\n            task.requester = msg.sender;\n            task.salary = _salary;\n            task.requesterProofOfTrust = _requesterProofOfTrust;\n            task.requesterMinimumTrustValueForWorker = _requesterMinimumTrustValueForWorker;\n            task.taskAddr = uint(keccak256(abi.encodePacked(_salary, _requesterProofOfTrust, _requesterMinimumTrustValueForWorker, msg.sender, block.timestamp)));\n\n            tasks[task.taskAddr] = task;\n            emit TaskStateChanged(msg.sender, task.taskAddr, task.state);\n    }\n\n    function doneTaskWithTrust(uint256 _taskAddr, uint _workerProofOfTrust) public CurrentTask(_taskAddr, TaskState.CREATED_BY_REQUESTER) {\n        require(tasks[_taskAddr].requester != address(0x0));\n        require(tasks[_taskAddr].requesterMinimumTrustValueForWorker <= _workerProofOfTrust);\n        lock(msg.sender, _workerProofOfTrust);\n\n        Task storage task = tasks[_taskAddr];\n        task.state = TaskState.DONE_BY_WORKER;\n        task.worker = msg.sender;\n        task.workerProofOfTrust = _workerProofOfTrust;\n        emit TaskStateChanged(msg.sender, task.taskAddr, task.state);\n    }\n\n    function doneTask(uint256 _taskAddr) public {\n        require(tasks[_taskAddr].worker == msg.sender, \"Sender is not worker of the task\");\n        require(tasks[_taskAddr].state == TaskState.REJECTED, \"Task is not at the correct state\");\n        tasks[_taskAddr].state = TaskState.DONE_BY_WORKER;\n        emit TaskStateChanged(msg.sender, _taskAddr, tasks[_taskAddr].state);\n    }\n\n    function finishTask(uint256 _taskAddr) public CurrentTask(_taskAddr, TaskState.DONE_BY_WORKER) {\n        require(tasks[_taskAddr].requester == msg.sender, \"Sender is not requester of the task\");\n\n        Task storage task = tasks[_taskAddr];\n        unlock(task.requester, task.salary + task.requesterProofOfTrust);\n        unlock(task.worker, task.workerProofOfTrust);\n        transfer(task.requester, task.worker, task.salary);\n        task.state = TaskState.FINISH_BY_REQUESTER;\n        emit TaskStateChanged(msg.sender, task.taskAddr, task.state);\n    }\n\n    function cancelTask(uint256 _taskAddr) public {\n        Task storage task = tasks[_taskAddr];\n        if (task.state == TaskState.CREATED_BY_REQUESTER) {\n            require(msg.sender == task.requester, \"Task doesnt exists with the requested address\");    \n        } else if (task.state == TaskState.DONE_BY_WORKER) {\n            require(msg.sender == task.worker, \"Sender doesnt have premission to cancel this task\");\n        }\n        \n        if (task.state != TaskState.FINISH_BY_REQUESTER && \n            task.state != TaskState.CANCELED &&\n            task.state != TaskState.UNFINISHED) {\n            _cancelTask(task);\n            emit TaskStateChanged(msg.sender, task.taskAddr, task.state);\n        }\n    }\n\n    function _cancelTask(Task storage _task) private {\n        unlock(_task.requester, _task.salary + _task.requesterProofOfTrust);\n        unlock(_task.worker, _task.workerProofOfTrust);\n        _task.state = TaskState.CANCELED;\n    }\n\n    function rejectTask(uint256 _taskAddr) public CurrentTask(_taskAddr, TaskState.DONE_BY_WORKER) {\n        require(tasks[_taskAddr].requester == msg.sender, \"Sender is not requester of the task\");\n        Task storage task = tasks[_taskAddr];\n        task.state = TaskState.REJECTED;\n        emit TaskStateChanged(msg.sender, task.taskAddr, task.state);\n    }\n\n    function unFinishTask(uint256 _taskAddr) public {\n        Task storage task = tasks[_taskAddr];\n        require(task.state == TaskState.REJECTED || task.state == TaskState.DONE_BY_WORKER, \"Task is not at correct state\");\n        require(task.requester == msg.sender || task.worker == msg.sender, \"Caller has not premission to finish this task\");\n\n        uint repaymentRate = calcRepaymentRate(task);\n\n        uint requesterTaskLockedFund = task.salary + task.requesterProofOfTrust;\n        uint workerTaskLockedFund = task.workerProofOfTrust;\n\n        uint requesterBurnValue = requesterTaskLockedFund * repaymentRate / 100;\n        uint workerBurnValue = workerTaskLockedFund * repaymentRate / 100;\n\n        burn(task.requester, requesterBurnValue);\n        burn(task.worker, workerBurnValue);\n        unlock(task.requester, requesterTaskLockedFund - requesterBurnValue);\n        unlock(task.worker, workerTaskLockedFund - workerBurnValue);\n\n        task.state = TaskState.UNFINISHED;\n        emit TaskStateChanged(msg.sender, task.taskAddr, task.state);\n    }\n\n    function calcRepaymentRate(Task memory task) internal pure returns (uint) {\n        return (((task.salary + (task.requesterProofOfTrust / 4)) * 100) / (task.salary + task.requesterProofOfTrust));\n    }\n\n}",
  "sourcePath": "/home/sepehr/blockchain/TrustDeal/contracts/TrustExchange.sol",
  "compiler": {
    "name": "solc",
    "version": "0.8.18+commit.87f61d96.Linux.g++"
  },
  "schemaVersion": "3.4.13",
  "updatedAt": "2023-06-02T20:17:28.444Z",
  "networkType": "ethereum",
  "devdoc": {
    "kind": "dev",
    "methods": {},
    "version": 1
  },
  "userdoc": {
    "kind": "user",
    "methods": {},
    "version": 1
  }
}