{
  "contractName": "TrustExchange",
  "abi": [
    {
      "anonymous": false,
      "inputs": [
        {
          "indexed": true,
          "internalType": "address",
          "name": "sender",
          "type": "address"
        },
        {
          "indexed": true,
          "internalType": "bytes32",
          "name": "taskAddr",
          "type": "bytes32"
        },
        {
          "indexed": false,
          "internalType": "enum TrustExchange.TaskState",
          "name": "newState",
          "type": "uint8"
        }
      ],
      "name": "TaskStateChanged",
      "type": "event"
    },
    {
      "inputs": [],
      "name": "deposit",
      "outputs": [],
      "stateMutability": "payable",
      "type": "function"
    },
    {
      "inputs": [
        {
          "internalType": "address",
          "name": "",
          "type": "address"
        }
      ],
      "name": "ownerToFunds",
      "outputs": [
        {
          "internalType": "uint256",
          "name": "actual",
          "type": "uint256"
        },
        {
          "internalType": "uint256",
          "name": "locked",
          "type": "uint256"
        }
      ],
      "stateMutability": "view",
      "type": "function"
    },
    {
      "inputs": [
        {
          "internalType": "bytes32",
          "name": "",
          "type": "bytes32"
        }
      ],
      "name": "tasks",
      "outputs": [
        {
          "internalType": "bytes32",
          "name": "taskAddr",
          "type": "bytes32"
        },
        {
          "internalType": "enum TrustExchange.TaskState",
          "name": "state",
          "type": "uint8"
        },
        {
          "internalType": "address",
          "name": "requester",
          "type": "address"
        },
        {
          "internalType": "uint256",
          "name": "salary",
          "type": "uint256"
        },
        {
          "internalType": "uint256",
          "name": "requesterProofOfTrust",
          "type": "uint256"
        },
        {
          "internalType": "uint256",
          "name": "requesterMinimumTrustValueForWorker",
          "type": "uint256"
        },
        {
          "internalType": "address",
          "name": "worker",
          "type": "address"
        },
        {
          "internalType": "uint256",
          "name": "workerProofOfTrust",
          "type": "uint256"
        }
      ],
      "stateMutability": "view",
      "type": "function"
    },
    {
      "inputs": [
        {
          "internalType": "uint256",
          "name": "_amount",
          "type": "uint256"
        }
      ],
      "name": "withdraw",
      "outputs": [],
      "stateMutability": "nonpayable",
      "type": "function"
    },
    {
      "inputs": [
        {
          "internalType": "uint256",
          "name": "_salary",
          "type": "uint256"
        },
        {
          "internalType": "uint256",
          "name": "_requesterProofOfTrust",
          "type": "uint256"
        },
        {
          "internalType": "uint256",
          "name": "_requesterMinimumTrustValueForWorker",
          "type": "uint256"
        }
      ],
      "name": "createTask",
      "outputs": [],
      "stateMutability": "nonpayable",
      "type": "function"
    },
    {
      "inputs": [
        {
          "internalType": "bytes32",
          "name": "_taskAddr",
          "type": "bytes32"
        },
        {
          "internalType": "uint256",
          "name": "_workerProofOfTrust",
          "type": "uint256"
        }
      ],
      "name": "acceptTask",
      "outputs": [],
      "stateMutability": "nonpayable",
      "type": "function"
    },
    {
      "inputs": [
        {
          "internalType": "bytes32",
          "name": "_taskAddr",
          "type": "bytes32"
        }
      ],
      "name": "doneTask",
      "outputs": [],
      "stateMutability": "nonpayable",
      "type": "function"
    },
    {
      "inputs": [
        {
          "internalType": "bytes32",
          "name": "_taskAddr",
          "type": "bytes32"
        }
      ],
      "name": "finishTask",
      "outputs": [],
      "stateMutability": "nonpayable",
      "type": "function"
    },
    {
      "inputs": [
        {
          "internalType": "bytes32",
          "name": "_taskAddr",
          "type": "bytes32"
        }
      ],
      "name": "cancelTask",
      "outputs": [],
      "stateMutability": "nonpayable",
      "type": "function"
    },
    {
      "inputs": [
        {
          "internalType": "bytes32",
          "name": "_taskAddr",
          "type": "bytes32"
        }
      ],
      "name": "rejectTask",
      "outputs": [],
      "stateMutability": "nonpayable",
      "type": "function"
    }
  ],
  "bytecode": "0x608060405260008060006101000a81548173ffffffffffffffffffffffffffffffffffffffff021916908373ffffffffffffffffffffffffffffffffffffffff16021790555034801561005157600080fd5b50612422806100616000396000f3fe6080604052600436106100915760003560e01c8063c531062a11610059578063c531062a14610163578063d0e30db01461018c578063e579f50014610196578063ee8ca3b5146101da578063efac52471461020357610091565b80632e1a7d4d146100965780635dc5aec9146100bf578063781d102a146100e85780637d2b33ee14610111578063ab1b606f1461013a575b600080fd5b3480156100a257600080fd5b506100bd60048036038101906100b8919061193b565b610241565b005b3480156100cb57600080fd5b506100e660048036038101906100e19190611968565b6103cf565b005b3480156100f457600080fd5b5061010f600480360381019061010a91906119f1565b610611565b005b34801561011d57600080fd5b5061013860048036038101906101339190611a1e565b6108b9565b005b34801561014657600080fd5b50610161600480360381019061015c91906119f1565b610adc565b005b34801561016f57600080fd5b5061018a600480360381019061018591906119f1565b610d0f565b005b610194610eed565b005b3480156101a257600080fd5b506101bd60048036038101906101b891906119f1565b610f8e565b6040516101d1989796959493929190611b34565b60405180910390f35b3480156101e657600080fd5b5061020160048036038101906101fc91906119f1565b611023565b005b34801561020f57600080fd5b5061022a60048036038101906102259190611bde565b611401565b604051610238929190611c0b565b60405180910390f35b80600160003373ffffffffffffffffffffffffffffffffffffffff1673ffffffffffffffffffffffffffffffffffffffff1681526020019081526020016000206000015410156102c6576040517f08c379a00000000000000000000000000000000000000000000000000000000081526004016102bd90611cb7565b60405180910390fd5b80600160003373ffffffffffffffffffffffffffffffffffffffff1673ffffffffffffffffffffffffffffffffffffffff16815260200190815260200160002060000160008282546103189190611d06565b9250508190555060003373ffffffffffffffffffffffffffffffffffffffff168260405161034590611d6b565b60006040518083038185875af1925050503d8060008114610382576040519150601f19603f3d011682016040523d82523d6000602084013e610387565b606091505b50509050806103cb576040517f08c379a00000000000000000000000000000000000000000000000000000000081526004016103c290611dcc565b60405180910390fd5b5050565b6103e43383856103df9190611dec565b611425565b6103ec61187a565b60008160200190600681111561040557610404611a6d565b5b9081600681111561041957610418611a6d565b5b8152505033816040019073ffffffffffffffffffffffffffffffffffffffff16908173ffffffffffffffffffffffffffffffffffffffff16815250508381606001818152505082816080018181525050818160a00181815250508383834260405160200161048a9493929190611e41565b604051602081830303815290604052805190602001208160000181815250508060026000836000015181526020019081526020016000206000820151816000015560208201518160010160006101000a81548160ff021916908360068111156104f6576104f5611a6d565b5b021790555060408201518160010160016101000a81548173ffffffffffffffffffffffffffffffffffffffff021916908373ffffffffffffffffffffffffffffffffffffffff160217905550606082015181600201556080820151816003015560a0820151816004015560c08201518160050160006101000a81548173ffffffffffffffffffffffffffffffffffffffff021916908373ffffffffffffffffffffffffffffffffffffffff16021790555060e0820151816006015590505080600001513373ffffffffffffffffffffffffffffffffffffffff167f9aef3be90d711f7754bc249cb377e6b789e3f2e862a22e5f04b3f71fcca9657c83602001516040516106039190611e8f565b60405180910390a350505050565b80600280600681111561062757610626611a6d565b5b6002600084815260200190815260200160002060010160009054906101000a900460ff16600681111561065d5761065c611a6d565b5b1461069d576040517f08c379a000000000000000000000000000000000000000000000000000000000815260040161069490611f1c565b60405180910390fd5b3373ffffffffffffffffffffffffffffffffffffffff166002600085815260200190815260200160002060010160019054906101000a900473ffffffffffffffffffffffffffffffffffffffff1673ffffffffffffffffffffffffffffffffffffffff1614610741576040517f08c379a000000000000000000000000000000000000000000000000000000000815260040161073890611fae565b60405180910390fd5b60006002600085815260200190815260200160002090506107998160010160019054906101000a900473ffffffffffffffffffffffffffffffffffffffff16826003015483600201546107949190611dec565b611560565b6107cb8160050160009054906101000a900473ffffffffffffffffffffffffffffffffffffffff168260060154611560565b6108228160010160019054906101000a900473ffffffffffffffffffffffffffffffffffffffff168260050160009054906101000a900473ffffffffffffffffffffffffffffffffffffffff16836002015461169b565b60038160010160006101000a81548160ff0219169083600681111561084a57610849611a6d565b5b021790555080600001543373ffffffffffffffffffffffffffffffffffffffff167f9aef3be90d711f7754bc249cb377e6b789e3f2e862a22e5f04b3f71fcca9657c8360010160009054906101000a900460ff166040516108ab9190611e8f565b60405180910390a350505050565b8160008060068111156108cf576108ce611a6d565b5b6002600084815260200190815260200160002060010160009054906101000a900460ff16600681111561090557610904611a6d565b5b14610945576040517f08c379a000000000000000000000000000000000000000000000000000000000815260040161093c90611f1c565b60405180910390fd5b600073ffffffffffffffffffffffffffffffffffffffff166002600086815260200190815260200160002060010160019054906101000a900473ffffffffffffffffffffffffffffffffffffffff1673ffffffffffffffffffffffffffffffffffffffff16036109b457600080fd5b82600260008681526020019081526020016000206004015411156109d757600080fd5b6109e13384611425565b600060026000868152602001908152602001600020905060018160010160006101000a81548160ff02191690836006811115610a2057610a1f611a6d565b5b0217905550338160050160006101000a81548173ffffffffffffffffffffffffffffffffffffffff021916908373ffffffffffffffffffffffffffffffffffffffff16021790555083816006018190555080600001543373ffffffffffffffffffffffffffffffffffffffff167f9aef3be90d711f7754bc249cb377e6b789e3f2e862a22e5f04b3f71fcca9657c8360010160009054906101000a900460ff16604051610acd9190611e8f565b60405180910390a35050505050565b3373ffffffffffffffffffffffffffffffffffffffff166002600083815260200190815260200160002060050160009054906101000a900473ffffffffffffffffffffffffffffffffffffffff1673ffffffffffffffffffffffffffffffffffffffff1614610b80576040517f08c379a0000000000000000000000000000000000000000000000000000000008152600401610b779061201a565b60405180910390fd5b60016006811115610b9457610b93611a6d565b5b6002600083815260200190815260200160002060010160009054906101000a900460ff166006811115610bca57610bc9611a6d565b5b1480610c1d575060056006811115610be557610be4611a6d565b5b6002600083815260200190815260200160002060010160009054906101000a900460ff166006811115610c1b57610c1a611a6d565b5b145b610c5c576040517f08c379a0000000000000000000000000000000000000000000000000000000008152600401610c5390612086565b60405180910390fd5b600280600083815260200190815260200160002060010160006101000a81548160ff02191690836006811115610c9557610c94611a6d565b5b0217905550803373ffffffffffffffffffffffffffffffffffffffff167f9aef3be90d711f7754bc249cb377e6b789e3f2e862a22e5f04b3f71fcca9657c6002600085815260200190815260200160002060010160009054906101000a900460ff16604051610d049190611e8f565b60405180910390a350565b806002806006811115610d2557610d24611a6d565b5b6002600084815260200190815260200160002060010160009054906101000a900460ff166006811115610d5b57610d5a611a6d565b5b14610d9b576040517f08c379a0000000000000000000000000000000000000000000000000000000008152600401610d9290611f1c565b60405180910390fd5b3373ffffffffffffffffffffffffffffffffffffffff166002600085815260200190815260200160002060010160019054906101000a900473ffffffffffffffffffffffffffffffffffffffff1673ffffffffffffffffffffffffffffffffffffffff1614610e3f576040517f08c379a0000000000000000000000000000000000000000000000000000000008152600401610e3690611fae565b60405180910390fd5b600060026000858152602001908152602001600020905060058160010160006101000a81548160ff02191690836006811115610e7e57610e7d611a6d565b5b021790555080600001543373ffffffffffffffffffffffffffffffffffffffff167f9aef3be90d711f7754bc249cb377e6b789e3f2e862a22e5f04b3f71fcca9657c8360010160009054906101000a900460ff16604051610edf9190611e8f565b60405180910390a350505050565b633b9aca003411610f33576040517f08c379a0000000000000000000000000000000000000000000000000000000008152600401610f2a906120f2565b60405180910390fd5b34600160003373ffffffffffffffffffffffffffffffffffffffff1673ffffffffffffffffffffffffffffffffffffffff1681526020019081526020016000206000016000828254610f859190611dec565b92505081905550565b60026020528060005260406000206000915090508060000154908060010160009054906101000a900460ff16908060010160019054906101000a900473ffffffffffffffffffffffffffffffffffffffff16908060020154908060030154908060040154908060050160009054906101000a900473ffffffffffffffffffffffffffffffffffffffff16908060060154905088565b60006002600083815260200190815260200160002090506000600681111561104e5761104d611a6d565b5b8160010160009054906101000a900460ff16600681111561107257611071611a6d565b5b0361110e578060010160019054906101000a900473ffffffffffffffffffffffffffffffffffffffff1673ffffffffffffffffffffffffffffffffffffffff163373ffffffffffffffffffffffffffffffffffffffff1614611109576040517f08c379a000000000000000000000000000000000000000000000000000000000815260040161110090612184565b60405180910390fd5b61130e565b6001600681111561112257611121611a6d565b5b8160010160009054906101000a900460ff16600681111561114657611145611a6d565b5b0361123c578060010160019054906101000a900473ffffffffffffffffffffffffffffffffffffffff1673ffffffffffffffffffffffffffffffffffffffff163373ffffffffffffffffffffffffffffffffffffffff1614806111f857508060050160009054906101000a900473ffffffffffffffffffffffffffffffffffffffff1673ffffffffffffffffffffffffffffffffffffffff163373ffffffffffffffffffffffffffffffffffffffff16145b611237576040517f08c379a000000000000000000000000000000000000000000000000000000000815260040161122e90612216565b60405180910390fd5b61130d565b600260068111156112505761124f611a6d565b5b8160010160009054906101000a900460ff16600681111561127457611273611a6d565b5b0361130c578060050160009054906101000a900473ffffffffffffffffffffffffffffffffffffffff1673ffffffffffffffffffffffffffffffffffffffff163373ffffffffffffffffffffffffffffffffffffffff161461130b576040517f08c379a000000000000000000000000000000000000000000000000000000000815260040161130290612216565b60405180910390fd5b5b5b5b6003600681111561132257611321611a6d565b5b8160010160009054906101000a900460ff16600681111561134657611345611a6d565b5b1415801561138a57506004600681111561136357611362611a6d565b5b8160010160009054906101000a900460ff16600681111561138757611386611a6d565b5b14155b156113fd57611398816117d7565b80600001543373ffffffffffffffffffffffffffffffffffffffff167f9aef3be90d711f7754bc249cb377e6b789e3f2e862a22e5f04b3f71fcca9657c8360010160009054906101000a900460ff166040516113f49190611e8f565b60405180910390a35b5050565b60016020528060005260406000206000915090508060000154908060010154905082565b80600160008473ffffffffffffffffffffffffffffffffffffffff1673ffffffffffffffffffffffffffffffffffffffff1681526020019081526020016000206000015410156114aa576040517f08c379a00000000000000000000000000000000000000000000000000000000081526004016114a1906122a8565b60405180910390fd5b80600160008473ffffffffffffffffffffffffffffffffffffffff1673ffffffffffffffffffffffffffffffffffffffff16815260200190815260200160002060000160008282546114fc9190611d06565b9250508190555080600160008473ffffffffffffffffffffffffffffffffffffffff1673ffffffffffffffffffffffffffffffffffffffff16815260200190815260200160002060010160008282546115559190611dec565b925050819055505050565b80600160008473ffffffffffffffffffffffffffffffffffffffff1673ffffffffffffffffffffffffffffffffffffffff1681526020019081526020016000206001015410156115e5576040517f08c379a00000000000000000000000000000000000000000000000000000000081526004016115dc9061233a565b60405180910390fd5b80600160008473ffffffffffffffffffffffffffffffffffffffff1673ffffffffffffffffffffffffffffffffffffffff16815260200190815260200160002060000160008282546116379190611dec565b9250508190555080600160008473ffffffffffffffffffffffffffffffffffffffff1673ffffffffffffffffffffffffffffffffffffffff16815260200190815260200160002060010160008282546116909190611d06565b925050819055505050565b80600160008573ffffffffffffffffffffffffffffffffffffffff1673ffffffffffffffffffffffffffffffffffffffff168152602001908152602001600020600001541015611720576040517f08c379a0000000000000000000000000000000000000000000000000000000008152600401611717906123cc565b60405180910390fd5b80600160008573ffffffffffffffffffffffffffffffffffffffff1673ffffffffffffffffffffffffffffffffffffffff16815260200190815260200160002060000160008282546117729190611d06565b9250508190555080600160008473ffffffffffffffffffffffffffffffffffffffff1673ffffffffffffffffffffffffffffffffffffffff16815260200190815260200160002060000160008282546117cb9190611dec565b92505081905550505050565b6118188160010160019054906101000a900473ffffffffffffffffffffffffffffffffffffffff16826003015483600201546118139190611dec565b611560565b61184a8160050160009054906101000a900473ffffffffffffffffffffffffffffffffffffffff168260060154611560565b60048160010160006101000a81548160ff0219169083600681111561187257611871611a6d565b5b021790555050565b60405180610100016040528060008019168152602001600060068111156118a4576118a3611a6d565b5b8152602001600073ffffffffffffffffffffffffffffffffffffffff168152602001600081526020016000815260200160008152602001600073ffffffffffffffffffffffffffffffffffffffff168152602001600081525090565b600080fd5b6000819050919050565b61191881611905565b811461192357600080fd5b50565b6000813590506119358161190f565b92915050565b60006020828403121561195157611950611900565b5b600061195f84828501611926565b91505092915050565b60008060006060848603121561198157611980611900565b5b600061198f86828701611926565b93505060206119a086828701611926565b92505060406119b186828701611926565b9150509250925092565b6000819050919050565b6119ce816119bb565b81146119d957600080fd5b50565b6000813590506119eb816119c5565b92915050565b600060208284031215611a0757611a06611900565b5b6000611a15848285016119dc565b91505092915050565b60008060408385031215611a3557611a34611900565b5b6000611a43858286016119dc565b9250506020611a5485828601611926565b9150509250929050565b611a67816119bb565b82525050565b7f4e487b7100000000000000000000000000000000000000000000000000000000600052602160045260246000fd5b60078110611aad57611aac611a6d565b5b50565b6000819050611abe82611a9c565b919050565b6000611ace82611ab0565b9050919050565b611ade81611ac3565b82525050565b600073ffffffffffffffffffffffffffffffffffffffff82169050919050565b6000611b0f82611ae4565b9050919050565b611b1f81611b04565b82525050565b611b2e81611905565b82525050565b600061010082019050611b4a600083018b611a5e565b611b57602083018a611ad5565b611b646040830189611b16565b611b716060830188611b25565b611b7e6080830187611b25565b611b8b60a0830186611b25565b611b9860c0830185611b16565b611ba560e0830184611b25565b9998505050505050505050565b611bbb81611b04565b8114611bc657600080fd5b50565b600081359050611bd881611bb2565b92915050565b600060208284031215611bf457611bf3611900565b5b6000611c0284828501611bc9565b91505092915050565b6000604082019050611c206000830185611b25565b611c2d6020830184611b25565b9392505050565b600082825260208201905092915050565b7f5468657265206973206e6f20656e6f7567682066756e6420666f72207468652060008201527f63757272656e74206163636f756e740000000000000000000000000000000000602082015250565b6000611ca1602f83611c34565b9150611cac82611c45565b604082019050919050565b60006020820190508181036000830152611cd081611c94565b9050919050565b7f4e487b7100000000000000000000000000000000000000000000000000000000600052601160045260246000fd5b6000611d1182611905565b9150611d1c83611905565b9250828203905081811115611d3457611d33611cd7565b5b92915050565b600081905092915050565b50565b6000611d55600083611d3a565b9150611d6082611d45565b600082019050919050565b6000611d7682611d48565b9150819050919050565b7f5472616e73666572206661696c65640000000000000000000000000000000000600082015250565b6000611db6600f83611c34565b9150611dc182611d80565b602082019050919050565b60006020820190508181036000830152611de581611da9565b9050919050565b6000611df782611905565b9150611e0283611905565b9250828201905080821115611e1a57611e19611cd7565b5b92915050565b6000819050919050565b611e3b611e3682611905565b611e20565b82525050565b6000611e4d8287611e2a565b602082019150611e5d8286611e2a565b602082019150611e6d8285611e2a565b602082019150611e7d8284611e2a565b60208201915081905095945050505050565b6000602082019050611ea46000830184611ad5565b92915050565b7f5461736b206973206e6f742061742074686520636f727265637420737461746560008201527f20666f7220746869732070726f63657373000000000000000000000000000000602082015250565b6000611f06603183611c34565b9150611f1182611eaa565b604082019050919050565b60006020820190508181036000830152611f3581611ef9565b9050919050565b7f53656e646572206973206e6f7420726571756573746572206f6620746865207460008201527f61736b0000000000000000000000000000000000000000000000000000000000602082015250565b6000611f98602383611c34565b9150611fa382611f3c565b604082019050919050565b60006020820190508181036000830152611fc781611f8b565b9050919050565b7f53656e646572206973206e6f7420776f726b6572206f6620746865207461736b600082015250565b6000612004602083611c34565b915061200f82611fce565b602082019050919050565b6000602082019050818103600083015261203381611ff7565b9050919050565b7f5461736b206973206e6f742061742074686520636f7272656374207374617465600082015250565b6000612070602083611c34565b915061207b8261203a565b602082019050919050565b6000602082019050818103600083015261209f81612063565b9050919050565b7f4d696e696d756d206465706f7369742076616c75652069732031204757454900600082015250565b60006120dc601f83611c34565b91506120e7826120a6565b602082019050919050565b6000602082019050818103600083015261210b816120cf565b9050919050565b7f5461736b20646f65736e7420657869737473207769746820746865207265717560008201527f6573746564206164647265737300000000000000000000000000000000000000602082015250565b600061216e602d83611c34565b915061217982612112565b604082019050919050565b6000602082019050818103600083015261219d81612161565b9050919050565b7f53656e64657220646f65736e742068617665207072656d697373696f6e20746f60008201527f2063616e63656c2074686973207461736b000000000000000000000000000000602082015250565b6000612200603183611c34565b915061220b826121a4565b604082019050919050565b6000602082019050818103600083015261222f816121f3565b9050919050565b7f5468657265206973206e6f20656e6f7567682061637475616c2066756e64206660008201527f6f722074686973206f776e657200000000000000000000000000000000000000602082015250565b6000612292602d83611c34565b915061229d82612236565b604082019050919050565b600060208201905081810360008301526122c181612285565b9050919050565b7f416d6f756e7420697320626967676572207468616e206c6f636b65642066756e60008201527f647320666f722074686973206f776e6572000000000000000000000000000000602082015250565b6000612324603183611c34565b915061232f826122c8565b604082019050919050565b6000602082019050818103600083015261235381612317565b9050919050565b7f5468657265206973206e6f20656e6f7567682061637475616c2066756e64732060008201527f666f72207468652073656e646572000000000000000000000000000000000000602082015250565b60006123b6602e83611c34565b91506123c18261235a565b604082019050919050565b600060208201905081810360008301526123e5816123a9565b905091905056fea2646970667358221220d6c054a0f3ec6e2eefd6326a10a989e86ca5cbe46e38d84760c1d53c6593892664736f6c63430008120033",
  "immutableReferences": {},
  "source": "// SPDX-License-Identifier: GPL-3.0\n\npragma solidity >=0.7.0 <0.9.0;\n\nimport \"./Strongbox.sol\";\n\ncontract TrustExchange is Strongbox {\n\n    event TaskStateChanged(address indexed sender, bytes32 indexed taskAddr, TaskState newState);\n\n    enum TaskState {\n        CREATED_BY_REQUESTER,\n        ACCEPTED_BY_WORKER,\n        DONE_BY_WORKER,\n        FINISH_BY_REQUESTER,\n        CANCELED,\n        REJECTED,\n        UNFINISHED   \n    }\n\n    struct Task {\n        bytes32 taskAddr;\n        TaskState state;\n\n        address requester;\n        uint salary;\n        uint requesterProofOfTrust;\n        uint requesterMinimumTrustValueForWorker;\n\n        address worker;\n        uint workerProofOfTrust;       \n    }\n\n    modifier CurrentTask(bytes32 taskAddr, TaskState state) {\n        require(tasks[taskAddr].state == state, \"Task is not at the correct state for this process\");\n        _;\n    }\n\n    mapping (bytes32 => Task) public tasks;\n\n    function createTask(\n        uint _salary,\n        uint _requesterProofOfTrust,\n        uint _requesterMinimumTrustValueForWorker\n        ) public {\n            lock(msg.sender, _salary + _requesterProofOfTrust);\n\n            Task memory task;\n            task.state = TaskState.CREATED_BY_REQUESTER;\n            task.requester = msg.sender;\n            task.salary = _salary;\n            task.requesterProofOfTrust = _requesterProofOfTrust;\n            task.requesterMinimumTrustValueForWorker = _requesterMinimumTrustValueForWorker;\n            task.taskAddr = keccak256(abi.encodePacked(_salary, _requesterProofOfTrust, _requesterMinimumTrustValueForWorker, block.timestamp));\n\n            tasks[task.taskAddr] = task;\n            emit TaskStateChanged(msg.sender, task.taskAddr, task.state);\n    }\n\n    function acceptTask(bytes32 _taskAddr, uint _workerProofOfTrust) public CurrentTask(_taskAddr, TaskState.CREATED_BY_REQUESTER) {\n        require(tasks[_taskAddr].requester != address(0x0));\n        require(tasks[_taskAddr].requesterMinimumTrustValueForWorker <= _workerProofOfTrust);\n        lock(msg.sender, _workerProofOfTrust);\n\n        Task storage task = tasks[_taskAddr];\n        task.state = TaskState.ACCEPTED_BY_WORKER;\n        task.worker = msg.sender;\n        task.workerProofOfTrust = _workerProofOfTrust;\n        emit TaskStateChanged(msg.sender, task.taskAddr, task.state);\n    }\n\n    function doneTask(bytes32 _taskAddr) public {\n        require(tasks[_taskAddr].worker == msg.sender, \"Sender is not worker of the task\");\n        require(tasks[_taskAddr].state == TaskState.ACCEPTED_BY_WORKER || tasks[_taskAddr].state == TaskState.REJECTED, \"Task is not at the correct state\");\n        tasks[_taskAddr].state = TaskState.DONE_BY_WORKER;\n        emit TaskStateChanged(msg.sender, _taskAddr, tasks[_taskAddr].state);\n    }\n\n    function finishTask(bytes32 _taskAddr) public CurrentTask(_taskAddr, TaskState.DONE_BY_WORKER) {\n        require(tasks[_taskAddr].requester == msg.sender, \"Sender is not requester of the task\");\n\n        Task storage task = tasks[_taskAddr];\n        unlock(task.requester, task.salary + task.requesterProofOfTrust);\n        unlock(task.worker, task.workerProofOfTrust);\n        transfer(task.requester, task.worker, task.salary);\n        task.state = TaskState.FINISH_BY_REQUESTER;\n        emit TaskStateChanged(msg.sender, task.taskAddr, task.state);\n    }\n\n    function cancelTask(bytes32 _taskAddr) public {\n        Task storage task = tasks[_taskAddr];\n        if (task.state == TaskState.CREATED_BY_REQUESTER) {\n            require(msg.sender == task.requester, \"Task doesnt exists with the requested address\");    \n        } else if (task.state == TaskState.ACCEPTED_BY_WORKER) {\n            require(msg.sender == task.requester || msg.sender == task.worker, \"Sender doesnt have premission to cancel this task\");\n        } else if (task.state == TaskState.DONE_BY_WORKER) {\n            require(msg.sender == task.worker, \"Sender doesnt have premission to cancel this task\");\n        }\n        \n        if (task.state != TaskState.FINISH_BY_REQUESTER && task.state != TaskState.CANCELED) {\n            _cancelTask(task);\n            emit TaskStateChanged(msg.sender, task.taskAddr, task.state);\n        }\n    }\n\n    function _cancelTask(Task storage _task) private {\n        unlock(_task.requester, _task.salary + _task.requesterProofOfTrust);\n        unlock(_task.worker, _task.workerProofOfTrust);\n        _task.state = TaskState.CANCELED;\n    }\n\n    function rejectTask(bytes32 _taskAddr) public CurrentTask(_taskAddr, TaskState.DONE_BY_WORKER) {\n        require(tasks[_taskAddr].requester == msg.sender, \"Sender is not requester of the task\");\n        Task storage task = tasks[_taskAddr];\n        task.state = TaskState.REJECTED;\n        emit TaskStateChanged(msg.sender, task.taskAddr, task.state);\n    }\n}",
  "sourcePath": "/home/sepehr/blockchain/TrustDeal/contracts/TrustExchange.sol",
  "compiler": {
    "name": "solc",
    "version": "0.8.18+commit.87f61d96.Linux.g++"
  },
  "schemaVersion": "3.4.13",
  "updatedAt": "2023-05-29T16:37:45.926Z",
  "devdoc": {
    "kind": "dev",
    "methods": {},
    "version": 1
  },
  "userdoc": {
    "kind": "user",
    "methods": {},
    "version": 1
  }
}