{
  "contractName": "TrustExchange",
  "abi": [
    {
      "anonymous": false,
      "inputs": [
        {
          "indexed": true,
          "internalType": "address",
          "name": "sender",
          "type": "address"
        },
        {
          "indexed": true,
          "internalType": "bytes32",
          "name": "taskAddr",
          "type": "bytes32"
        },
        {
          "indexed": false,
          "internalType": "enum TrustExchange.TaskState",
          "name": "newState",
          "type": "uint8"
        }
      ],
      "name": "TaskStateChanged",
      "type": "event"
    },
    {
      "inputs": [],
      "name": "deposit",
      "outputs": [],
      "stateMutability": "payable",
      "type": "function",
      "payable": true
    },
    {
      "inputs": [
        {
          "internalType": "address",
          "name": "",
          "type": "address"
        }
      ],
      "name": "ownerToFunds",
      "outputs": [
        {
          "internalType": "uint256",
          "name": "actual",
          "type": "uint256"
        },
        {
          "internalType": "uint256",
          "name": "locked",
          "type": "uint256"
        }
      ],
      "stateMutability": "view",
      "type": "function",
      "constant": true
    },
    {
      "inputs": [
        {
          "internalType": "bytes32",
          "name": "",
          "type": "bytes32"
        }
      ],
      "name": "tasks",
      "outputs": [
        {
          "internalType": "bytes32",
          "name": "taskAddr",
          "type": "bytes32"
        },
        {
          "internalType": "enum TrustExchange.TaskState",
          "name": "state",
          "type": "uint8"
        },
        {
          "internalType": "address",
          "name": "requester",
          "type": "address"
        },
        {
          "internalType": "uint256",
          "name": "salary",
          "type": "uint256"
        },
        {
          "internalType": "uint256",
          "name": "requesterProofOfTrust",
          "type": "uint256"
        },
        {
          "internalType": "uint256",
          "name": "requesterMinimumTrustValueForWorker",
          "type": "uint256"
        },
        {
          "internalType": "address",
          "name": "worker",
          "type": "address"
        },
        {
          "internalType": "uint256",
          "name": "workerProofOfTrust",
          "type": "uint256"
        }
      ],
      "stateMutability": "view",
      "type": "function",
      "constant": true
    },
    {
      "inputs": [
        {
          "internalType": "uint256",
          "name": "_amount",
          "type": "uint256"
        }
      ],
      "name": "withdraw",
      "outputs": [],
      "stateMutability": "nonpayable",
      "type": "function"
    },
    {
      "inputs": [
        {
          "internalType": "uint256",
          "name": "_salary",
          "type": "uint256"
        },
        {
          "internalType": "uint256",
          "name": "_requesterProofOfTrust",
          "type": "uint256"
        },
        {
          "internalType": "uint256",
          "name": "_requesterMinimumTrustValueForWorker",
          "type": "uint256"
        }
      ],
      "name": "createTask",
      "outputs": [],
      "stateMutability": "nonpayable",
      "type": "function"
    },
    {
      "inputs": [
        {
          "internalType": "bytes32",
          "name": "_taskAddr",
          "type": "bytes32"
        },
        {
          "internalType": "uint256",
          "name": "_workerProofOfTrust",
          "type": "uint256"
        }
      ],
      "name": "acceptTask",
      "outputs": [],
      "stateMutability": "nonpayable",
      "type": "function"
    },
    {
      "inputs": [
        {
          "internalType": "bytes32",
          "name": "_taskAddr",
          "type": "bytes32"
        }
      ],
      "name": "doneTask",
      "outputs": [],
      "stateMutability": "nonpayable",
      "type": "function"
    },
    {
      "inputs": [
        {
          "internalType": "bytes32",
          "name": "_taskAddr",
          "type": "bytes32"
        }
      ],
      "name": "finishTask",
      "outputs": [],
      "stateMutability": "nonpayable",
      "type": "function"
    },
    {
      "inputs": [
        {
          "internalType": "bytes32",
          "name": "_taskAddr",
          "type": "bytes32"
        }
      ],
      "name": "cancelTask",
      "outputs": [],
      "stateMutability": "nonpayable",
      "type": "function"
    }
  ],
  "bytecode": "0x608060405234801561001057600080fd5b5061214a806100206000396000f3fe6080604052600436106100865760003560e01c8063ab1b606f11610059578063ab1b606f1461012f578063d0e30db014610158578063e579f50014610162578063ee8ca3b5146101a6578063efac5247146101cf57610086565b80632e1a7d4d1461008b5780635dc5aec9146100b4578063781d102a146100dd5780637d2b33ee14610106575b600080fd5b34801561009757600080fd5b506100b260048036038101906100ad91906116cf565b61020d565b005b3480156100c057600080fd5b506100db60048036038101906100d691906116fc565b610399565b005b3480156100e957600080fd5b5061010460048036038101906100ff9190611785565b6105db565b005b34801561011257600080fd5b5061012d600480360381019061012891906117b2565b610883565b005b34801561013b57600080fd5b5061015660048036038101906101519190611785565b610aa6565b005b610160610c8c565b005b34801561016e57600080fd5b5061018960048036038101906101849190611785565b610d2c565b60405161019d9897969594939291906118c8565b60405180910390f35b3480156101b257600080fd5b506101cd60048036038101906101c89190611785565b610dc1565b005b3480156101db57600080fd5b506101f660048036038101906101f19190611972565b61119e565b60405161020492919061199f565b60405180910390f35b806000803373ffffffffffffffffffffffffffffffffffffffff1673ffffffffffffffffffffffffffffffffffffffff168152602001908152602001600020600001541015610291576040517f08c379a000000000000000000000000000000000000000000000000000000000815260040161028890611a4b565b60405180910390fd5b806000803373ffffffffffffffffffffffffffffffffffffffff1673ffffffffffffffffffffffffffffffffffffffff16815260200190815260200160002060000160008282546102e29190611a9a565b9250508190555060003373ffffffffffffffffffffffffffffffffffffffff168260405161030f90611aff565b60006040518083038185875af1925050503d806000811461034c576040519150601f19603f3d011682016040523d82523d6000602084013e610351565b606091505b5050905080610395576040517f08c379a000000000000000000000000000000000000000000000000000000000815260040161038c90611b60565b60405180910390fd5b5050565b6103ae3383856103a99190611b80565b6111c2565b6103b661160e565b6000816020019060048111156103cf576103ce611801565b5b908160048111156103e3576103e2611801565b5b8152505033816040019073ffffffffffffffffffffffffffffffffffffffff16908173ffffffffffffffffffffffffffffffffffffffff16815250508381606001818152505082816080018181525050818160a0018181525050838383426040516020016104549493929190611bd5565b604051602081830303815290604052805190602001208160000181815250508060016000836000015181526020019081526020016000206000820151816000015560208201518160010160006101000a81548160ff021916908360048111156104c0576104bf611801565b5b021790555060408201518160010160016101000a81548173ffffffffffffffffffffffffffffffffffffffff021916908373ffffffffffffffffffffffffffffffffffffffff160217905550606082015181600201556080820151816003015560a0820151816004015560c08201518160050160006101000a81548173ffffffffffffffffffffffffffffffffffffffff021916908373ffffffffffffffffffffffffffffffffffffffff16021790555060e0820151816006015590505080600001513373ffffffffffffffffffffffffffffffffffffffff167f9aef3be90d711f7754bc249cb377e6b789e3f2e862a22e5f04b3f71fcca9657c83602001516040516105cd9190611c23565b60405180910390a350505050565b8060028060048111156105f1576105f0611801565b5b6001600084815260200190815260200160002060010160009054906101000a900460ff16600481111561062757610626611801565b5b14610667576040517f08c379a000000000000000000000000000000000000000000000000000000000815260040161065e90611cb0565b60405180910390fd5b3373ffffffffffffffffffffffffffffffffffffffff166001600085815260200190815260200160002060010160019054906101000a900473ffffffffffffffffffffffffffffffffffffffff1673ffffffffffffffffffffffffffffffffffffffff161461070b576040517f08c379a000000000000000000000000000000000000000000000000000000000815260040161070290611d42565b60405180910390fd5b60006001600085815260200190815260200160002090506107638160010160019054906101000a900473ffffffffffffffffffffffffffffffffffffffff168260030154836002015461075e9190611b80565b6112fa565b6107958160050160009054906101000a900473ffffffffffffffffffffffffffffffffffffffff1682600601546112fa565b6107ec8160010160019054906101000a900473ffffffffffffffffffffffffffffffffffffffff168260050160009054906101000a900473ffffffffffffffffffffffffffffffffffffffff168360020154611432565b60038160010160006101000a81548160ff0219169083600481111561081457610813611801565b5b021790555080600001543373ffffffffffffffffffffffffffffffffffffffff167f9aef3be90d711f7754bc249cb377e6b789e3f2e862a22e5f04b3f71fcca9657c8360010160009054906101000a900460ff166040516108759190611c23565b60405180910390a350505050565b81600080600481111561089957610898611801565b5b6001600084815260200190815260200160002060010160009054906101000a900460ff1660048111156108cf576108ce611801565b5b1461090f576040517f08c379a000000000000000000000000000000000000000000000000000000000815260040161090690611cb0565b60405180910390fd5b600073ffffffffffffffffffffffffffffffffffffffff166001600086815260200190815260200160002060010160019054906101000a900473ffffffffffffffffffffffffffffffffffffffff1673ffffffffffffffffffffffffffffffffffffffff160361097e57600080fd5b82600160008681526020019081526020016000206004015411156109a157600080fd5b6109ab33846111c2565b600060016000868152602001908152602001600020905060018160010160006101000a81548160ff021916908360048111156109ea576109e9611801565b5b0217905550338160050160006101000a81548173ffffffffffffffffffffffffffffffffffffffff021916908373ffffffffffffffffffffffffffffffffffffffff16021790555083816006018190555080600001543373ffffffffffffffffffffffffffffffffffffffff167f9aef3be90d711f7754bc249cb377e6b789e3f2e862a22e5f04b3f71fcca9657c8360010160009054906101000a900460ff16604051610a979190611c23565b60405180910390a35050505050565b806001806004811115610abc57610abb611801565b5b6001600084815260200190815260200160002060010160009054906101000a900460ff166004811115610af257610af1611801565b5b14610b32576040517f08c379a0000000000000000000000000000000000000000000000000000000008152600401610b2990611cb0565b60405180910390fd5b3373ffffffffffffffffffffffffffffffffffffffff166001600085815260200190815260200160002060050160009054906101000a900473ffffffffffffffffffffffffffffffffffffffff1673ffffffffffffffffffffffffffffffffffffffff1614610bd6576040517f08c379a0000000000000000000000000000000000000000000000000000000008152600401610bcd90611dae565b60405180910390fd5b60026001600085815260200190815260200160002060010160006101000a81548160ff02191690836004811115610c1057610c0f611801565b5b0217905550823373ffffffffffffffffffffffffffffffffffffffff167f9aef3be90d711f7754bc249cb377e6b789e3f2e862a22e5f04b3f71fcca9657c6001600087815260200190815260200160002060010160009054906101000a900460ff16604051610c7f9190611c23565b60405180910390a3505050565b633b9aca003411610cd2576040517f08c379a0000000000000000000000000000000000000000000000000000000008152600401610cc990611e1a565b60405180910390fd5b346000803373ffffffffffffffffffffffffffffffffffffffff1673ffffffffffffffffffffffffffffffffffffffff1681526020019081526020016000206000016000828254610d239190611b80565b92505081905550565b60016020528060005260406000206000915090508060000154908060010160009054906101000a900460ff16908060010160019054906101000a900473ffffffffffffffffffffffffffffffffffffffff16908060020154908060030154908060040154908060050160009054906101000a900473ffffffffffffffffffffffffffffffffffffffff16908060060154905088565b600060016000838152602001908152602001600020905060006004811115610dec57610deb611801565b5b8160010160009054906101000a900460ff166004811115610e1057610e0f611801565b5b03610eac578060010160019054906101000a900473ffffffffffffffffffffffffffffffffffffffff1673ffffffffffffffffffffffffffffffffffffffff163373ffffffffffffffffffffffffffffffffffffffff1614610ea7576040517f08c379a0000000000000000000000000000000000000000000000000000000008152600401610e9e90611eac565b60405180910390fd5b6110ac565b60016004811115610ec057610ebf611801565b5b8160010160009054906101000a900460ff166004811115610ee457610ee3611801565b5b03610fda578060010160019054906101000a900473ffffffffffffffffffffffffffffffffffffffff1673ffffffffffffffffffffffffffffffffffffffff163373ffffffffffffffffffffffffffffffffffffffff161480610f9657508060050160009054906101000a900473ffffffffffffffffffffffffffffffffffffffff1673ffffffffffffffffffffffffffffffffffffffff163373ffffffffffffffffffffffffffffffffffffffff16145b610fd5576040517f08c379a0000000000000000000000000000000000000000000000000000000008152600401610fcc90611f3e565b60405180910390fd5b6110ab565b60026004811115610fee57610fed611801565b5b8160010160009054906101000a900460ff16600481111561101257611011611801565b5b036110aa578060050160009054906101000a900473ffffffffffffffffffffffffffffffffffffffff1673ffffffffffffffffffffffffffffffffffffffff163373ffffffffffffffffffffffffffffffffffffffff16146110a9576040517f08c379a00000000000000000000000000000000000000000000000000000000081526004016110a090611f3e565b60405180910390fd5b5b5b5b600360048111156110c0576110bf611801565b5b8160010160009054906101000a900460ff1660048111156110e4576110e3611801565b5b141580156111275750600480811115611100576110ff611801565b5b8160010160009054906101000a900460ff16600481111561112457611123611801565b5b14155b1561119a576111358161156b565b80600001543373ffffffffffffffffffffffffffffffffffffffff167f9aef3be90d711f7754bc249cb377e6b789e3f2e862a22e5f04b3f71fcca9657c8360010160009054906101000a900460ff166040516111919190611c23565b60405180910390a35b5050565b60006020528060005260406000206000915090508060000154908060010154905082565b806000808473ffffffffffffffffffffffffffffffffffffffff1673ffffffffffffffffffffffffffffffffffffffff168152602001908152602001600020600001541015611246576040517f08c379a000000000000000000000000000000000000000000000000000000000815260040161123d90611fd0565b60405180910390fd5b806000808473ffffffffffffffffffffffffffffffffffffffff1673ffffffffffffffffffffffffffffffffffffffff16815260200190815260200160002060000160008282546112979190611a9a565b92505081905550806000808473ffffffffffffffffffffffffffffffffffffffff1673ffffffffffffffffffffffffffffffffffffffff16815260200190815260200160002060010160008282546112ef9190611b80565b925050819055505050565b806000808473ffffffffffffffffffffffffffffffffffffffff1673ffffffffffffffffffffffffffffffffffffffff16815260200190815260200160002060010154101561137e576040517f08c379a000000000000000000000000000000000000000000000000000000000815260040161137590612062565b60405180910390fd5b806000808473ffffffffffffffffffffffffffffffffffffffff1673ffffffffffffffffffffffffffffffffffffffff16815260200190815260200160002060000160008282546113cf9190611b80565b92505081905550806000808473ffffffffffffffffffffffffffffffffffffffff1673ffffffffffffffffffffffffffffffffffffffff16815260200190815260200160002060010160008282546114279190611a9a565b925050819055505050565b806000808573ffffffffffffffffffffffffffffffffffffffff1673ffffffffffffffffffffffffffffffffffffffff1681526020019081526020016000206000015410156114b6576040517f08c379a00000000000000000000000000000000000000000000000000000000081526004016114ad906120f4565b60405180910390fd5b806000808573ffffffffffffffffffffffffffffffffffffffff1673ffffffffffffffffffffffffffffffffffffffff16815260200190815260200160002060000160008282546115079190611a9a565b92505081905550806000808473ffffffffffffffffffffffffffffffffffffffff1673ffffffffffffffffffffffffffffffffffffffff168152602001908152602001600020600001600082825461155f9190611b80565b92505081905550505050565b6115ac8160010160019054906101000a900473ffffffffffffffffffffffffffffffffffffffff16826003015483600201546115a79190611b80565b6112fa565b6115de8160050160009054906101000a900473ffffffffffffffffffffffffffffffffffffffff1682600601546112fa565b60048160010160006101000a81548160ff0219169083600481111561160657611605611801565b5b021790555050565b604051806101000160405280600080191681526020016000600481111561163857611637611801565b5b8152602001600073ffffffffffffffffffffffffffffffffffffffff168152602001600081526020016000815260200160008152602001600073ffffffffffffffffffffffffffffffffffffffff168152602001600081525090565b600080fd5b6000819050919050565b6116ac81611699565b81146116b757600080fd5b50565b6000813590506116c9816116a3565b92915050565b6000602082840312156116e5576116e4611694565b5b60006116f3848285016116ba565b91505092915050565b60008060006060848603121561171557611714611694565b5b6000611723868287016116ba565b9350506020611734868287016116ba565b9250506040611745868287016116ba565b9150509250925092565b6000819050919050565b6117628161174f565b811461176d57600080fd5b50565b60008135905061177f81611759565b92915050565b60006020828403121561179b5761179a611694565b5b60006117a984828501611770565b91505092915050565b600080604083850312156117c9576117c8611694565b5b60006117d785828601611770565b92505060206117e8858286016116ba565b9150509250929050565b6117fb8161174f565b82525050565b7f4e487b7100000000000000000000000000000000000000000000000000000000600052602160045260246000fd5b6005811061184157611840611801565b5b50565b600081905061185282611830565b919050565b600061186282611844565b9050919050565b61187281611857565b82525050565b600073ffffffffffffffffffffffffffffffffffffffff82169050919050565b60006118a382611878565b9050919050565b6118b381611898565b82525050565b6118c281611699565b82525050565b6000610100820190506118de600083018b6117f2565b6118eb602083018a611869565b6118f860408301896118aa565b61190560608301886118b9565b61191260808301876118b9565b61191f60a08301866118b9565b61192c60c08301856118aa565b61193960e08301846118b9565b9998505050505050505050565b61194f81611898565b811461195a57600080fd5b50565b60008135905061196c81611946565b92915050565b60006020828403121561198857611987611694565b5b60006119968482850161195d565b91505092915050565b60006040820190506119b460008301856118b9565b6119c160208301846118b9565b9392505050565b600082825260208201905092915050565b7f5468657265206973206e6f20656e6f7567682066756e6420666f72207468652060008201527f63757272656e74206163636f756e740000000000000000000000000000000000602082015250565b6000611a35602f836119c8565b9150611a40826119d9565b604082019050919050565b60006020820190508181036000830152611a6481611a28565b9050919050565b7f4e487b7100000000000000000000000000000000000000000000000000000000600052601160045260246000fd5b6000611aa582611699565b9150611ab083611699565b9250828203905081811115611ac857611ac7611a6b565b5b92915050565b600081905092915050565b50565b6000611ae9600083611ace565b9150611af482611ad9565b600082019050919050565b6000611b0a82611adc565b9150819050919050565b7f5472616e73666572206661696c65640000000000000000000000000000000000600082015250565b6000611b4a600f836119c8565b9150611b5582611b14565b602082019050919050565b60006020820190508181036000830152611b7981611b3d565b9050919050565b6000611b8b82611699565b9150611b9683611699565b9250828201905080821115611bae57611bad611a6b565b5b92915050565b6000819050919050565b611bcf611bca82611699565b611bb4565b82525050565b6000611be18287611bbe565b602082019150611bf18286611bbe565b602082019150611c018285611bbe565b602082019150611c118284611bbe565b60208201915081905095945050505050565b6000602082019050611c386000830184611869565b92915050565b7f5461736b206973206e6f742061742074686520636f727265637420737461746560008201527f20666f7220746869732070726f63657373000000000000000000000000000000602082015250565b6000611c9a6031836119c8565b9150611ca582611c3e565b604082019050919050565b60006020820190508181036000830152611cc981611c8d565b9050919050565b7f53656e646572206973206e6f7420726571756573746572206f6620746865207460008201527f61736b0000000000000000000000000000000000000000000000000000000000602082015250565b6000611d2c6023836119c8565b9150611d3782611cd0565b604082019050919050565b60006020820190508181036000830152611d5b81611d1f565b9050919050565b7f53656e646572206973206e6f7420776f726b6572206f6620746865207461736b600082015250565b6000611d986020836119c8565b9150611da382611d62565b602082019050919050565b60006020820190508181036000830152611dc781611d8b565b9050919050565b7f4d696e696d756d206465706f7369742076616c75652069732031204757454900600082015250565b6000611e04601f836119c8565b9150611e0f82611dce565b602082019050919050565b60006020820190508181036000830152611e3381611df7565b9050919050565b7f5461736b20646f65736e7420657869737473207769746820746865207265717560008201527f6573746564206164647265737300000000000000000000000000000000000000602082015250565b6000611e96602d836119c8565b9150611ea182611e3a565b604082019050919050565b60006020820190508181036000830152611ec581611e89565b9050919050565b7f53656e64657220646f65736e742068617665207072656d697373696f6e20746f60008201527f2063616e63656c2074686973207461736b000000000000000000000000000000602082015250565b6000611f286031836119c8565b9150611f3382611ecc565b604082019050919050565b60006020820190508181036000830152611f5781611f1b565b9050919050565b7f5468657265206973206e6f20656e6f7567682061637475616c2066756e64206660008201527f6f722074686973206f776e657200000000000000000000000000000000000000602082015250565b6000611fba602d836119c8565b9150611fc582611f5e565b604082019050919050565b60006020820190508181036000830152611fe981611fad565b9050919050565b7f416d6f756e7420697320626967676572207468616e206c6f636b65642066756e60008201527f647320666f722074686973206f776e6572000000000000000000000000000000602082015250565b600061204c6031836119c8565b915061205782611ff0565b604082019050919050565b6000602082019050818103600083015261207b8161203f565b9050919050565b7f5468657265206973206e6f20656e6f7567682061637475616c2066756e64732060008201527f666f72207468652073656e646572000000000000000000000000000000000000602082015250565b60006120de602e836119c8565b91506120e982612082565b604082019050919050565b6000602082019050818103600083015261210d816120d1565b905091905056fea2646970667358221220e8177136fceb152f8e2bc00ef62073060fff72cc75b01da1d481acc3720c445264736f6c63430008120033",
  "immutableReferences": {},
  "source": "// SPDX-License-Identifier: GPL-3.0\n\npragma solidity >=0.7.0 <0.9.0;\n\nimport \"./Strongbox.sol\";\n\ncontract TrustExchange is Strongbox {\n\n    event TaskStateChanged(address indexed sender, bytes32 indexed taskAddr, TaskState newState);\n\n    enum TaskState {\n        CREATED_BY_REQUESTER,\n        ACCEPTED_BY_WORKER,\n        DONE_BY_WORKER,\n        FINISH_BY_REQUESTER,\n        CANCELED        \n    }\n\n    struct Task {\n        bytes32 taskAddr;\n        TaskState state;\n\n        address requester;\n        uint salary;\n        uint requesterProofOfTrust;\n        uint requesterMinimumTrustValueForWorker;\n\n        address worker;\n        uint workerProofOfTrust;       \n    }\n\n    modifier CurrentTask(bytes32 taskAddr, TaskState state) {\n        require(tasks[taskAddr].state == state, \"Task is not at the correct state for this process\");\n        _;\n    }\n\n    mapping (bytes32 => Task) public tasks;\n\n    function createTask(\n        uint _salary,\n        uint _requesterProofOfTrust,\n        uint _requesterMinimumTrustValueForWorker\n        ) public {\n            lock(msg.sender, _salary + _requesterProofOfTrust);\n\n            Task memory task;\n            task.state = TaskState.CREATED_BY_REQUESTER;\n            task.requester = msg.sender;\n            task.salary = _salary;\n            task.requesterProofOfTrust = _requesterProofOfTrust;\n            task.requesterMinimumTrustValueForWorker = _requesterMinimumTrustValueForWorker;\n            task.taskAddr = keccak256(abi.encodePacked(_salary, _requesterProofOfTrust, _requesterMinimumTrustValueForWorker, block.timestamp));\n\n            tasks[task.taskAddr] = task;\n            emit TaskStateChanged(msg.sender, task.taskAddr, task.state);\n    }\n\n    function acceptTask(bytes32 _taskAddr, uint _workerProofOfTrust) public CurrentTask(_taskAddr, TaskState.CREATED_BY_REQUESTER) {\n        require(tasks[_taskAddr].requester != address(0x0));\n        require(tasks[_taskAddr].requesterMinimumTrustValueForWorker <= _workerProofOfTrust);\n        lock(msg.sender, _workerProofOfTrust);\n\n        Task storage task = tasks[_taskAddr];\n        task.state = TaskState.ACCEPTED_BY_WORKER;\n        task.worker = msg.sender;\n        task.workerProofOfTrust = _workerProofOfTrust;\n        emit TaskStateChanged(msg.sender, task.taskAddr, task.state);\n    }\n\n    function doneTask(bytes32 _taskAddr) public CurrentTask(_taskAddr, TaskState.ACCEPTED_BY_WORKER) {\n        require(tasks[_taskAddr].worker == msg.sender, \"Sender is not worker of the task\");\n        tasks[_taskAddr].state = TaskState.DONE_BY_WORKER;\n        emit TaskStateChanged(msg.sender, _taskAddr, tasks[_taskAddr].state);\n    }\n\n    function finishTask(bytes32 _taskAddr) public CurrentTask(_taskAddr, TaskState.DONE_BY_WORKER) {\n        require(tasks[_taskAddr].requester == msg.sender, \"Sender is not requester of the task\");\n\n        Task storage task = tasks[_taskAddr];\n        unlock(task.requester, task.salary + task.requesterProofOfTrust);\n        unlock(task.worker, task.workerProofOfTrust);\n        transfer(task.requester, task.worker, task.salary);\n        task.state = TaskState.FINISH_BY_REQUESTER;\n        emit TaskStateChanged(msg.sender, task.taskAddr, task.state);\n    }\n\n    function cancelTask(bytes32 _taskAddr) public {\n        Task storage task = tasks[_taskAddr];\n        if (task.state == TaskState.CREATED_BY_REQUESTER) {\n            require(msg.sender == task.requester, \"Task doesnt exists with the requested address\");    \n        } else if (task.state == TaskState.ACCEPTED_BY_WORKER) {\n            require(msg.sender == task.requester || msg.sender == task.worker, \"Sender doesnt have premission to cancel this task\");\n        } else if (task.state == TaskState.DONE_BY_WORKER) {\n            require(msg.sender == task.worker, \"Sender doesnt have premission to cancel this task\");\n        }\n        \n        if (task.state != TaskState.FINISH_BY_REQUESTER && task.state != TaskState.CANCELED) {\n            _cancelTask(task);\n            emit TaskStateChanged(msg.sender, task.taskAddr, task.state);\n        }\n    }\n\n    function _cancelTask(Task storage _task) private {\n        unlock(_task.requester, _task.salary + _task.requesterProofOfTrust);\n        unlock(_task.worker, _task.workerProofOfTrust);\n        _task.state = TaskState.CANCELED;\n    }\n}",
  "sourcePath": "/home/sepehr/blockchain/TrustDeal/contracts/TrustExchange.sol",
  "compiler": {
    "name": "solc",
    "version": "0.8.18+commit.87f61d96.Linux.g++"
  },
  "schemaVersion": "3.4.13",
  "updatedAt": "2023-05-19T07:55:52.653Z",
  "networkType": "ethereum",
  "devdoc": {
    "kind": "dev",
    "methods": {},
    "version": 1
  },
  "userdoc": {
    "kind": "user",
    "methods": {},
    "version": 1
  }
}