{
  "contractName": "TrustExchange",
  "abi": [
    {
      "inputs": [],
      "stateMutability": "nonpayable",
      "type": "constructor"
    },
    {
      "anonymous": false,
      "inputs": [
        {
          "indexed": true,
          "internalType": "address",
          "name": "sender",
          "type": "address"
        },
        {
          "indexed": true,
          "internalType": "uint256",
          "name": "taskAddr",
          "type": "uint256"
        },
        {
          "indexed": false,
          "internalType": "enum TrustExchange.TaskState",
          "name": "newState",
          "type": "uint8"
        }
      ],
      "name": "TaskStateChanged",
      "type": "event"
    },
    {
      "inputs": [],
      "name": "deposit",
      "outputs": [],
      "stateMutability": "payable",
      "type": "function"
    },
    {
      "inputs": [
        {
          "internalType": "address",
          "name": "",
          "type": "address"
        }
      ],
      "name": "ownerToFunds",
      "outputs": [
        {
          "internalType": "uint256",
          "name": "actual",
          "type": "uint256"
        },
        {
          "internalType": "uint256",
          "name": "locked",
          "type": "uint256"
        }
      ],
      "stateMutability": "view",
      "type": "function"
    },
    {
      "inputs": [
        {
          "internalType": "uint256",
          "name": "",
          "type": "uint256"
        }
      ],
      "name": "tasks",
      "outputs": [
        {
          "internalType": "uint256",
          "name": "taskAddr",
          "type": "uint256"
        },
        {
          "internalType": "enum TrustExchange.TaskState",
          "name": "state",
          "type": "uint8"
        },
        {
          "internalType": "address",
          "name": "requester",
          "type": "address"
        },
        {
          "internalType": "uint256",
          "name": "salary",
          "type": "uint256"
        },
        {
          "internalType": "uint256",
          "name": "requesterProofOfTrust",
          "type": "uint256"
        },
        {
          "internalType": "uint256",
          "name": "requesterMinimumTrustValueForWorker",
          "type": "uint256"
        },
        {
          "internalType": "address",
          "name": "worker",
          "type": "address"
        },
        {
          "internalType": "uint256",
          "name": "workerProofOfTrust",
          "type": "uint256"
        }
      ],
      "stateMutability": "view",
      "type": "function"
    },
    {
      "inputs": [
        {
          "internalType": "uint256",
          "name": "_amount",
          "type": "uint256"
        }
      ],
      "name": "withdraw",
      "outputs": [],
      "stateMutability": "nonpayable",
      "type": "function"
    },
    {
      "inputs": [
        {
          "internalType": "address",
          "name": "_to",
          "type": "address"
        },
        {
          "internalType": "uint256",
          "name": "_taskAddr",
          "type": "uint256"
        }
      ],
      "name": "setDealer",
      "outputs": [],
      "stateMutability": "nonpayable",
      "type": "function"
    },
    {
      "inputs": [
        {
          "internalType": "uint256",
          "name": "_taskAddr",
          "type": "uint256"
        },
        {
          "internalType": "uint256",
          "name": "_salary",
          "type": "uint256"
        }
      ],
      "name": "setSalary",
      "outputs": [],
      "stateMutability": "nonpayable",
      "type": "function"
    },
    {
      "inputs": [
        {
          "internalType": "uint256",
          "name": "_taskAddr",
          "type": "uint256"
        },
        {
          "internalType": "uint256",
          "name": "_proof",
          "type": "uint256"
        }
      ],
      "name": "setProofOfTrust",
      "outputs": [],
      "stateMutability": "nonpayable",
      "type": "function"
    },
    {
      "inputs": [
        {
          "internalType": "uint256",
          "name": "_taskAddr",
          "type": "uint256"
        },
        {
          "internalType": "uint256",
          "name": "_proof",
          "type": "uint256"
        }
      ],
      "name": "setMinimumTrustForWorker",
      "outputs": [],
      "stateMutability": "nonpayable",
      "type": "function"
    },
    {
      "inputs": [
        {
          "internalType": "uint256",
          "name": "_salary",
          "type": "uint256"
        },
        {
          "internalType": "uint256",
          "name": "_requesterProofOfTrust",
          "type": "uint256"
        },
        {
          "internalType": "uint256",
          "name": "_requesterMinimumTrustValueForWorker",
          "type": "uint256"
        },
        {
          "internalType": "address",
          "name": "_dealer",
          "type": "address"
        }
      ],
      "name": "createTask",
      "outputs": [],
      "stateMutability": "nonpayable",
      "type": "function"
    },
    {
      "inputs": [
        {
          "internalType": "uint256",
          "name": "_taskAddr",
          "type": "uint256"
        },
        {
          "internalType": "uint256",
          "name": "_workerProofOfTrust",
          "type": "uint256"
        }
      ],
      "name": "acceptTask",
      "outputs": [],
      "stateMutability": "nonpayable",
      "type": "function"
    },
    {
      "inputs": [
        {
          "internalType": "uint256",
          "name": "_taskAddr",
          "type": "uint256"
        }
      ],
      "name": "doTask",
      "outputs": [],
      "stateMutability": "nonpayable",
      "type": "function"
    },
    {
      "inputs": [
        {
          "internalType": "uint256",
          "name": "_taskAddr",
          "type": "uint256"
        }
      ],
      "name": "finishTask",
      "outputs": [],
      "stateMutability": "nonpayable",
      "type": "function"
    },
    {
      "inputs": [
        {
          "internalType": "uint256",
          "name": "_taskAddr",
          "type": "uint256"
        }
      ],
      "name": "removeTask",
      "outputs": [],
      "stateMutability": "nonpayable",
      "type": "function"
    },
    {
      "inputs": [
        {
          "internalType": "uint256",
          "name": "_taskAddr",
          "type": "uint256"
        }
      ],
      "name": "rejectTask",
      "outputs": [],
      "stateMutability": "nonpayable",
      "type": "function"
    },
    {
      "inputs": [
        {
          "internalType": "uint256",
          "name": "_taskAddr",
          "type": "uint256"
        }
      ],
      "name": "cancelTask",
      "outputs": [],
      "stateMutability": "nonpayable",
      "type": "function"
    }
  ],
  "bytecode": "0x608060405234801561001057600080fd5b50612fd1806100206000396000f3fe6080604052600436106100e85760003560e01c80637eec20a81161008a578063a293b11411610059578063a293b114146102cb578063c3084117146102f4578063d0e30db01461031d578063efac524714610327576100e8565b80637eec20a81461020c578063842178b2146102355780638d9776721461025e5780638fe494d8146102a2576100e8565b80632bad31fc116100c65780632bad31fc146101685780632e1a7d4d1461019157806374a37efc146101ba5780637d81b40b146101e3576100e8565b806304c0e5aa146100ed5780631207ca521461011657806327cfe8e71461013f575b600080fd5b3480156100f957600080fd5b50610114600480360381019061010f9190612435565b610365565b005b34801561012257600080fd5b5061013d6004803603810190610138919061249c565b6105c7565b005b34801561014b57600080fd5b50610166600480360381019061016191906124dc565b610710565b005b34801561017457600080fd5b5061018f600480360381019061018a9190612509565b6108f2565b005b34801561019d57600080fd5b506101b860048036038101906101b391906124dc565b610a52565b005b3480156101c657600080fd5b506101e160048036038101906101dc9190612509565b610bde565b005b3480156101ef57600080fd5b5061020a600480360381019061020591906124dc565b610d3e565b005b34801561021857600080fd5b50610233600480360381019061022e91906124dc565b610f1c565b005b34801561024157600080fd5b5061025c600480360381019061025791906124dc565b611436565b005b34801561026a57600080fd5b50610285600480360381019061028091906124dc565b6116de565b6040516102999897969594939291906125de565b60405180910390f35b3480156102ae57600080fd5b506102c960048036038101906102c49190612509565b611773565b005b3480156102d757600080fd5b506102f260048036038101906102ed9190612509565b61198b565b005b34801561030057600080fd5b5061031b600480360381019061031691906124dc565b611a9a565b005b610325611c31565b005b34801561033357600080fd5b5061034e6004803603810190610349919061265c565b611cd1565b60405161035c929190612689565b60405180910390f35b61037a33848661037591906126e1565b611cf5565b610382612319565b60008160200190600481111561039b5761039a612558565b5b908160048111156103af576103ae612558565b5b8152505033816040019073ffffffffffffffffffffffffffffffffffffffff16908173ffffffffffffffffffffffffffffffffffffffff16815250508481606001818152505083816080018181525050828160a00181815250506104136002611e2d565b816000018181525050818160c0019073ffffffffffffffffffffffffffffffffffffffff16908173ffffffffffffffffffffffffffffffffffffffff168152505061045e6002611e3b565b8060016000836000015181526020019081526020016000206000820151816000015560208201518160010160006101000a81548160ff021916908360048111156104ab576104aa612558565b5b021790555060408201518160010160016101000a81548173ffffffffffffffffffffffffffffffffffffffff021916908373ffffffffffffffffffffffffffffffffffffffff160217905550606082015181600201556080820151816003015560a0820151816004015560c08201518160050160006101000a81548173ffffffffffffffffffffffffffffffffffffffff021916908373ffffffffffffffffffffffffffffffffffffffff16021790555060e0820151816006015590505080600001513373ffffffffffffffffffffffffffffffffffffffff167f5f54ce667b6030b388930f0357f5f8b7db064926b129a97ad5062edff2b162b183602001516040516105b89190612715565b60405180910390a35050505050565b8060008060048111156105dd576105dc612558565b5b6001600084815260200190815260200160002060010160009054906101000a900460ff16600481111561061357610612612558565b5b14610653576040517f08c379a000000000000000000000000000000000000000000000000000000000815260040161064a906127b3565b60405180910390fd5b60006001600085815260200190815260200160002090508060010160019054906101000a900473ffffffffffffffffffffffffffffffffffffffff1673ffffffffffffffffffffffffffffffffffffffff163373ffffffffffffffffffffffffffffffffffffffff16146106c657600080fd5b848160050160006101000a81548173ffffffffffffffffffffffffffffffffffffffff021916908373ffffffffffffffffffffffffffffffffffffffff1602179055505050505050565b3373ffffffffffffffffffffffffffffffffffffffff166001600083815260200190815260200160002060050160009054906101000a900473ffffffffffffffffffffffffffffffffffffffff1673ffffffffffffffffffffffffffffffffffffffff16146107b4576040517f08c379a00000000000000000000000000000000000000000000000000000000081526004016107ab9061281f565b60405180910390fd5b600160048111156107c8576107c7612558565b5b6001600083815260200190815260200160002060010160009054906101000a900460ff1660048111156107fe576107fd612558565b5b1461083e576040517f08c379a00000000000000000000000000000000000000000000000000000000081526004016108359061288b565b60405180910390fd5b60026001600083815260200190815260200160002060010160006101000a81548160ff0219169083600481111561087857610877612558565b5b0217905550803373ffffffffffffffffffffffffffffffffffffffff167f5f54ce667b6030b388930f0357f5f8b7db064926b129a97ad5062edff2b162b16001600085815260200190815260200160002060010160009054906101000a900460ff166040516108e79190612715565b60405180910390a350565b81600080600481111561090857610907612558565b5b6001600084815260200190815260200160002060010160009054906101000a900460ff16600481111561093e5761093d612558565b5b1461097e576040517f08c379a0000000000000000000000000000000000000000000000000000000008152600401610975906127b3565b60405180910390fd5b60006001600086815260200190815260200160002090508060010160019054906101000a900473ffffffffffffffffffffffffffffffffffffffff1673ffffffffffffffffffffffffffffffffffffffff163373ffffffffffffffffffffffffffffffffffffffff16146109f157600080fd5b8060030154841115610a1b57610a1633826003015486610a1191906128ab565b611cf5565b610a42565b8060030154841015610a4157610a4033858360030154610a3b91906128ab565b611e51565b5b5b8381600301819055505050505050565b806000803373ffffffffffffffffffffffffffffffffffffffff1673ffffffffffffffffffffffffffffffffffffffff168152602001908152602001600020600001541015610ad6576040517f08c379a0000000000000000000000000000000000000000000000000000000008152600401610acd90612951565b60405180910390fd5b806000803373ffffffffffffffffffffffffffffffffffffffff1673ffffffffffffffffffffffffffffffffffffffff1681526020019081526020016000206000016000828254610b2791906128ab565b9250508190555060003373ffffffffffffffffffffffffffffffffffffffff1682604051610b54906129a2565b60006040518083038185875af1925050503d8060008114610b91576040519150601f19603f3d011682016040523d82523d6000602084013e610b96565b606091505b5050905080610bda576040517f08c379a0000000000000000000000000000000000000000000000000000000008152600401610bd190612a03565b60405180910390fd5b5050565b816000806004811115610bf457610bf3612558565b5b6001600084815260200190815260200160002060010160009054906101000a900460ff166004811115610c2a57610c29612558565b5b14610c6a576040517f08c379a0000000000000000000000000000000000000000000000000000000008152600401610c61906127b3565b60405180910390fd5b60006001600086815260200190815260200160002090508060010160019054906101000a900473ffffffffffffffffffffffffffffffffffffffff1673ffffffffffffffffffffffffffffffffffffffff163373ffffffffffffffffffffffffffffffffffffffff1614610cdd57600080fd5b8060020154841115610d0757610d0233826002015486610cfd91906128ab565b611cf5565b610d2e565b8060020154841015610d2d57610d2c33858360020154610d2791906128ab565b611e51565b5b5b8381600201819055505050505050565b806002806004811115610d5457610d53612558565b5b6001600084815260200190815260200160002060010160009054906101000a900460ff166004811115610d8a57610d89612558565b5b14610dca576040517f08c379a0000000000000000000000000000000000000000000000000000000008152600401610dc1906127b3565b60405180910390fd5b3373ffffffffffffffffffffffffffffffffffffffff166001600085815260200190815260200160002060010160019054906101000a900473ffffffffffffffffffffffffffffffffffffffff1673ffffffffffffffffffffffffffffffffffffffff1614610e6e576040517f08c379a0000000000000000000000000000000000000000000000000000000008152600401610e6590612a95565b60405180910390fd5b600060016000858152602001908152602001600020905060018160010160006101000a81548160ff02191690836004811115610ead57610eac612558565b5b021790555080600001543373ffffffffffffffffffffffffffffffffffffffff167f5f54ce667b6030b388930f0357f5f8b7db064926b129a97ad5062edff2b162b18360010160009054906101000a900460ff16604051610f0e9190612715565b60405180910390a350505050565b600060016000838152602001908152602001600020905060016004811115610f4757610f46612558565b5b8160010160009054906101000a900460ff166004811115610f6b57610f6a612558565b5b1480610fac575060026004811115610f8657610f85612558565b5b8160010160009054906101000a900460ff166004811115610faa57610fa9612558565b5b145b610feb576040517f08c379a0000000000000000000000000000000000000000000000000000000008152600401610fe290612b01565b60405180910390fd5b3373ffffffffffffffffffffffffffffffffffffffff168160010160019054906101000a900473ffffffffffffffffffffffffffffffffffffffff1673ffffffffffffffffffffffffffffffffffffffff16148061109857503373ffffffffffffffffffffffffffffffffffffffff168160050160009054906101000a900473ffffffffffffffffffffffffffffffffffffffff1673ffffffffffffffffffffffffffffffffffffffff16145b6110d7576040517f08c379a00000000000000000000000000000000000000000000000000000000081526004016110ce90612b93565b60405180910390fd5b60006112078260405180610100016040529081600082015481526020016001820160009054906101000a900460ff16600481111561111857611117612558565b5b600481111561112a57611129612558565b5b81526020016001820160019054906101000a900473ffffffffffffffffffffffffffffffffffffffff1673ffffffffffffffffffffffffffffffffffffffff1673ffffffffffffffffffffffffffffffffffffffff1681526020016002820154815260200160038201548152602001600482015481526020016005820160009054906101000a900473ffffffffffffffffffffffffffffffffffffffff1673ffffffffffffffffffffffffffffffffffffffff1673ffffffffffffffffffffffffffffffffffffffff168152602001600682015481525050611f89565b905060008260030154836002015461121f91906126e1565b905060008360060154905060006064848461123a9190612bb3565b6112449190612c24565b90506000606485846112569190612bb3565b6112609190612c24565b90506112908660010160019054906101000a900473ffffffffffffffffffffffffffffffffffffffff1683611fdc565b6112be8660050160009054906101000a900473ffffffffffffffffffffffffffffffffffffffff1682611fdc565b6112f78660010160019054906101000a900473ffffffffffffffffffffffffffffffffffffffff1683866112f291906128ab565b611e51565b6113308660050160009054906101000a900473ffffffffffffffffffffffffffffffffffffffff16828561132b91906128ab565b611e51565b60008660010160006101000a81548160ff0219169083600481111561135857611357612558565b5b021790555060008660050160006101000a81548173ffffffffffffffffffffffffffffffffffffffff021916908373ffffffffffffffffffffffffffffffffffffffff1602179055506000866004018190555060008660030181905550600086600601819055506000866002018190555085600001543373ffffffffffffffffffffffffffffffffffffffff167f5f54ce667b6030b388930f0357f5f8b7db064926b129a97ad5062edff2b162b18860010160009054906101000a900460ff166040516114259190612715565b60405180910390a350505050505050565b80600280600481111561144c5761144b612558565b5b6001600084815260200190815260200160002060010160009054906101000a900460ff16600481111561148257611481612558565b5b146114c2576040517f08c379a00000000000000000000000000000000000000000000000000000000081526004016114b9906127b3565b60405180910390fd5b3373ffffffffffffffffffffffffffffffffffffffff166001600085815260200190815260200160002060010160019054906101000a900473ffffffffffffffffffffffffffffffffffffffff1673ffffffffffffffffffffffffffffffffffffffff1614611566576040517f08c379a000000000000000000000000000000000000000000000000000000000815260040161155d90612a95565b60405180910390fd5b60006001600085815260200190815260200160002090506115be8160010160019054906101000a900473ffffffffffffffffffffffffffffffffffffffff16826003015483600201546115b991906126e1565b611e51565b6115f08160050160009054906101000a900473ffffffffffffffffffffffffffffffffffffffff168260060154611e51565b6116478160010160019054906101000a900473ffffffffffffffffffffffffffffffffffffffff168260050160009054906101000a900473ffffffffffffffffffffffffffffffffffffffff16836002015461216f565b60038160010160006101000a81548160ff0219169083600481111561166f5761166e612558565b5b021790555080600001543373ffffffffffffffffffffffffffffffffffffffff167f5f54ce667b6030b388930f0357f5f8b7db064926b129a97ad5062edff2b162b18360010160009054906101000a900460ff166040516116d09190612715565b60405180910390a350505050565b60016020528060005260406000206000915090508060000154908060010160009054906101000a900460ff16908060010160019054906101000a900473ffffffffffffffffffffffffffffffffffffffff16908060020154908060030154908060040154908060050160009054906101000a900473ffffffffffffffffffffffffffffffffffffffff16908060060154905088565b81600080600481111561178957611788612558565b5b6001600084815260200190815260200160002060010160009054906101000a900460ff1660048111156117bf576117be612558565b5b146117ff576040517f08c379a00000000000000000000000000000000000000000000000000000000081526004016117f6906127b3565b60405180910390fd5b6000600160008681526020019081526020016000209050600073ffffffffffffffffffffffffffffffffffffffff168160010160019054906101000a900473ffffffffffffffffffffffffffffffffffffffff1673ffffffffffffffffffffffffffffffffffffffff160361187357600080fd5b838160040154111561188457600080fd5b3373ffffffffffffffffffffffffffffffffffffffff168160050160009054906101000a900473ffffffffffffffffffffffffffffffffffffffff1673ffffffffffffffffffffffffffffffffffffffff16146118e057600080fd5b6118ea3385611cf5565b60018160010160006101000a81548160ff0219169083600481111561191257611911612558565b5b021790555083816006018190555080600001543373ffffffffffffffffffffffffffffffffffffffff167f5f54ce667b6030b388930f0357f5f8b7db064926b129a97ad5062edff2b162b18360010160009054906101000a900460ff1660405161197c9190612715565b60405180910390a35050505050565b8160008060048111156119a1576119a0612558565b5b6001600084815260200190815260200160002060010160009054906101000a900460ff1660048111156119d7576119d6612558565b5b14611a17576040517f08c379a0000000000000000000000000000000000000000000000000000000008152600401611a0e906127b3565b60405180910390fd5b60006001600086815260200190815260200160002090508060010160019054906101000a900473ffffffffffffffffffffffffffffffffffffffff1673ffffffffffffffffffffffffffffffffffffffff163373ffffffffffffffffffffffffffffffffffffffff1614611a8a57600080fd5b8381600401819055505050505050565b600060016000838152602001908152602001600020905060006004811115611ac557611ac4612558565b5b8160010160009054906101000a900460ff166004811115611ae957611ae8612558565b5b03611bf2578060010160019054906101000a900473ffffffffffffffffffffffffffffffffffffffff1673ffffffffffffffffffffffffffffffffffffffff163373ffffffffffffffffffffffffffffffffffffffff1614611b80576040517f08c379a0000000000000000000000000000000000000000000000000000000008152600401611b7790612cc7565b60405180910390fd5b611b89816122a8565b80600001543373ffffffffffffffffffffffffffffffffffffffff167f5f54ce667b6030b388930f0357f5f8b7db064926b129a97ad5062edff2b162b18360010160009054906101000a900460ff16604051611be59190612715565b60405180910390a3611c2d565b6040517f08c379a0000000000000000000000000000000000000000000000000000000008152600401611c2490612d59565b60405180910390fd5b5050565b633b9aca003411611c77576040517f08c379a0000000000000000000000000000000000000000000000000000000008152600401611c6e90612dc5565b60405180910390fd5b346000803373ffffffffffffffffffffffffffffffffffffffff1673ffffffffffffffffffffffffffffffffffffffff1681526020019081526020016000206000016000828254611cc891906126e1565b92505081905550565b60006020528060005260406000206000915090508060000154908060010154905082565b806000808473ffffffffffffffffffffffffffffffffffffffff1673ffffffffffffffffffffffffffffffffffffffff168152602001908152602001600020600001541015611d79576040517f08c379a0000000000000000000000000000000000000000000000000000000008152600401611d7090612e57565b60405180910390fd5b806000808473ffffffffffffffffffffffffffffffffffffffff1673ffffffffffffffffffffffffffffffffffffffff1681526020019081526020016000206000016000828254611dca91906128ab565b92505081905550806000808473ffffffffffffffffffffffffffffffffffffffff1673ffffffffffffffffffffffffffffffffffffffff1681526020019081526020016000206001016000828254611e2291906126e1565b925050819055505050565b600081600001549050919050565b6001816000016000828254019250508190555050565b806000808473ffffffffffffffffffffffffffffffffffffffff1673ffffffffffffffffffffffffffffffffffffffff168152602001908152602001600020600101541015611ed5576040517f08c379a0000000000000000000000000000000000000000000000000000000008152600401611ecc90612ee9565b60405180910390fd5b806000808473ffffffffffffffffffffffffffffffffffffffff1673ffffffffffffffffffffffffffffffffffffffff1681526020019081526020016000206000016000828254611f2691906126e1565b92505081905550806000808473ffffffffffffffffffffffffffffffffffffffff1673ffffffffffffffffffffffffffffffffffffffff1681526020019081526020016000206001016000828254611f7e91906128ab565b925050819055505050565b600081608001518260600151611f9f91906126e1565b606460048460800151611fb29190612c24565b8460600151611fc191906126e1565b611fcb9190612bb3565b611fd59190612c24565b9050919050565b806000808473ffffffffffffffffffffffffffffffffffffffff1673ffffffffffffffffffffffffffffffffffffffff168152602001908152602001600020600101541015612060576040517f08c379a000000000000000000000000000000000000000000000000000000000815260040161205790612ee9565b60405180910390fd5b60008073ffffffffffffffffffffffffffffffffffffffff1682604051612086906129a2565b60006040518083038185875af1925050503d80600081146120c3576040519150601f19603f3d011682016040523d82523d6000602084013e6120c8565b606091505b50509050801561212f57816000808573ffffffffffffffffffffffffffffffffffffffff1673ffffffffffffffffffffffffffffffffffffffff168152602001908152602001600020600101600082825461212391906128ab565b9250508190555061216a565b6040517f08c379a000000000000000000000000000000000000000000000000000000000815260040161216190612a03565b60405180910390fd5b505050565b806000808573ffffffffffffffffffffffffffffffffffffffff1673ffffffffffffffffffffffffffffffffffffffff1681526020019081526020016000206000015410156121f3576040517f08c379a00000000000000000000000000000000000000000000000000000000081526004016121ea90612f7b565b60405180910390fd5b806000808573ffffffffffffffffffffffffffffffffffffffff1673ffffffffffffffffffffffffffffffffffffffff168152602001908152602001600020600001600082825461224491906128ab565b92505081905550806000808473ffffffffffffffffffffffffffffffffffffffff1673ffffffffffffffffffffffffffffffffffffffff168152602001908152602001600020600001600082825461229c91906126e1565b92505081905550505050565b6122e98160010160019054906101000a900473ffffffffffffffffffffffffffffffffffffffff16826003015483600201546122e491906126e1565b611e51565b60048160010160006101000a81548160ff0219169083600481111561231157612310612558565b5b021790555050565b60405180610100016040528060008152602001600060048111156123405761233f612558565b5b8152602001600073ffffffffffffffffffffffffffffffffffffffff168152602001600081526020016000815260200160008152602001600073ffffffffffffffffffffffffffffffffffffffff168152602001600081525090565b600080fd5b6000819050919050565b6123b4816123a1565b81146123bf57600080fd5b50565b6000813590506123d1816123ab565b92915050565b600073ffffffffffffffffffffffffffffffffffffffff82169050919050565b6000612402826123d7565b9050919050565b612412816123f7565b811461241d57600080fd5b50565b60008135905061242f81612409565b92915050565b6000806000806080858703121561244f5761244e61239c565b5b600061245d878288016123c2565b945050602061246e878288016123c2565b935050604061247f878288016123c2565b925050606061249087828801612420565b91505092959194509250565b600080604083850312156124b3576124b261239c565b5b60006124c185828601612420565b92505060206124d2858286016123c2565b9150509250929050565b6000602082840312156124f2576124f161239c565b5b6000612500848285016123c2565b91505092915050565b600080604083850312156125205761251f61239c565b5b600061252e858286016123c2565b925050602061253f858286016123c2565b9150509250929050565b612552816123a1565b82525050565b7f4e487b7100000000000000000000000000000000000000000000000000000000600052602160045260246000fd5b6005811061259857612597612558565b5b50565b60008190506125a982612587565b919050565b60006125b98261259b565b9050919050565b6125c9816125ae565b82525050565b6125d8816123f7565b82525050565b6000610100820190506125f4600083018b612549565b612601602083018a6125c0565b61260e60408301896125cf565b61261b6060830188612549565b6126286080830187612549565b61263560a0830186612549565b61264260c08301856125cf565b61264f60e0830184612549565b9998505050505050505050565b6000602082840312156126725761267161239c565b5b600061268084828501612420565b91505092915050565b600060408201905061269e6000830185612549565b6126ab6020830184612549565b9392505050565b7f4e487b7100000000000000000000000000000000000000000000000000000000600052601160045260246000fd5b60006126ec826123a1565b91506126f7836123a1565b925082820190508082111561270f5761270e6126b2565b5b92915050565b600060208201905061272a60008301846125c0565b92915050565b600082825260208201905092915050565b7f5461736b206973206e6f742061742074686520636f727265637420737461746560008201527f20666f7220746869732070726f63657373000000000000000000000000000000602082015250565b600061279d603183612730565b91506127a882612741565b604082019050919050565b600060208201905081810360008301526127cc81612790565b9050919050565b7f53656e646572206973206e6f7420776f726b6572206f6620746865207461736b600082015250565b6000612809602083612730565b9150612814826127d3565b602082019050919050565b60006020820190508181036000830152612838816127fc565b9050919050565b7f5461736b206973206e6f742061742074686520636f7272656374207374617465600082015250565b6000612875602083612730565b91506128808261283f565b602082019050919050565b600060208201905081810360008301526128a481612868565b9050919050565b60006128b6826123a1565b91506128c1836123a1565b92508282039050818111156128d9576128d86126b2565b5b92915050565b7f5468657265206973206e6f20656e6f7567682066756e6420666f72207468652060008201527f63757272656e74206163636f756e740000000000000000000000000000000000602082015250565b600061293b602f83612730565b9150612946826128df565b604082019050919050565b6000602082019050818103600083015261296a8161292e565b9050919050565b600081905092915050565b50565b600061298c600083612971565b91506129978261297c565b600082019050919050565b60006129ad8261297f565b9150819050919050565b7f5472616e73666572206661696c65640000000000000000000000000000000000600082015250565b60006129ed600f83612730565b91506129f8826129b7565b602082019050919050565b60006020820190508181036000830152612a1c816129e0565b9050919050565b7f53656e646572206973206e6f7420726571756573746572206f6620746865207460008201527f61736b0000000000000000000000000000000000000000000000000000000000602082015250565b6000612a7f602383612730565b9150612a8a82612a23565b604082019050919050565b60006020820190508181036000830152612aae81612a72565b9050919050565b7f5461736b206973206e6f7420617420636f727265637420737461746500000000600082015250565b6000612aeb601c83612730565b9150612af682612ab5565b602082019050919050565b60006020820190508181036000830152612b1a81612ade565b9050919050565b7f43616c6c657220686173206e6f74207072656d697373696f6e20746f2066696e60008201527f6973682074686973207461736b00000000000000000000000000000000000000602082015250565b6000612b7d602d83612730565b9150612b8882612b21565b604082019050919050565b60006020820190508181036000830152612bac81612b70565b9050919050565b6000612bbe826123a1565b9150612bc9836123a1565b9250828202612bd7816123a1565b91508282048414831517612bee57612bed6126b2565b5b5092915050565b7f4e487b7100000000000000000000000000000000000000000000000000000000600052601260045260246000fd5b6000612c2f826123a1565b9150612c3a836123a1565b925082612c4a57612c49612bf5565b5b828204905092915050565b7f5461736b20646f65736e7420657869737473207769746820746865207265717560008201527f6573746564206164647265737300000000000000000000000000000000000000602082015250565b6000612cb1602d83612730565b9150612cbc82612c55565b604082019050919050565b60006020820190508181036000830152612ce081612ca4565b9050919050565b7f5461736b206973206e6f742061742074686520737461746520554e415353494760008201527f4e45445f5441534b000000000000000000000000000000000000000000000000602082015250565b6000612d43602883612730565b9150612d4e82612ce7565b604082019050919050565b60006020820190508181036000830152612d7281612d36565b9050919050565b7f4d696e696d756d206465706f7369742076616c75652069732031204757454900600082015250565b6000612daf601f83612730565b9150612dba82612d79565b602082019050919050565b60006020820190508181036000830152612dde81612da2565b9050919050565b7f5468657265206973206e6f20656e6f7567682061637475616c2066756e64206660008201527f6f722074686973206f776e657200000000000000000000000000000000000000602082015250565b6000612e41602d83612730565b9150612e4c82612de5565b604082019050919050565b60006020820190508181036000830152612e7081612e34565b9050919050565b7f416d6f756e7420697320626967676572207468616e206c6f636b65642066756e60008201527f647320666f722074686973206f776e6572000000000000000000000000000000602082015250565b6000612ed3603183612730565b9150612ede82612e77565b604082019050919050565b60006020820190508181036000830152612f0281612ec6565b9050919050565b7f5468657265206973206e6f20656e6f7567682061637475616c2066756e64732060008201527f666f72207468652073656e646572000000000000000000000000000000000000602082015250565b6000612f65602e83612730565b9150612f7082612f09565b604082019050919050565b60006020820190508181036000830152612f9481612f58565b905091905056fea26469706673582212205a7ac94fab1a635637adcf8683277f47197be6852c8c6cbaa650f2c2d607622c64736f6c63430008120033",
  "immutableReferences": {},
  "source": "// SPDX-License-Identifier: GPL-3.0\n\npragma solidity >=0.7.0 <0.9.0;\n\nimport \"./Strongbox.sol\";\nimport \"./TaskNFT.sol\";\nimport \"@openzeppelin/contracts/utils/Counters.sol\";\n\ncontract TrustExchange is Strongbox {\n\n    constructor() {\n        \n    }\n\n    event TaskStateChanged(address indexed sender, uint indexed taskAddr, TaskState newState);\n\n    enum TaskState {\n        UNASSIGNED_TASK,\n        ASSIGNED_TASK,\n        VERIFY_TASK,\n        FINISHED_TASK,\n        REMOVED_TASK   \n    }\n\n    struct Task {\n        uint taskAddr;\n        TaskState state;\n\n        address requester;\n        uint salary;\n        uint requesterProofOfTrust;\n        uint requesterMinimumTrustValueForWorker;\n\n        address worker;\n        uint workerProofOfTrust;       \n    }\n\n    modifier CurrentTask(uint taskAddr, TaskState state) {\n        require(tasks[taskAddr].state == state, \"Task is not at the correct state for this process\");\n        _;\n    }\n\n    mapping (uint => Task) public tasks;\n\n    using Counters for Counters.Counter;\n    Counters.Counter private _taskIds;\n\n\n    function setDealer(address _to, uint256 _taskAddr) public CurrentTask(_taskAddr, TaskState.UNASSIGNED_TASK) {\n        Task storage task = tasks[_taskAddr];\n        require(msg.sender == task.requester);\n        task.worker = _to;\n    }\n\n    function setSalary(uint _taskAddr, uint _salary) public CurrentTask(_taskAddr, TaskState.UNASSIGNED_TASK) {\n        Task storage task = tasks[_taskAddr];\n        require(msg.sender == task.requester);\n\n        if(_salary > task.salary) {\n            lock(msg.sender, _salary - task.salary);\n        } else if (_salary < task.salary) {\n            unlock(msg.sender, task.salary - _salary);\n        }\n        task.salary = _salary;\n    }\n\n    function setProofOfTrust(uint _taskAddr, uint _proof) public CurrentTask(_taskAddr, TaskState.UNASSIGNED_TASK) {\n        Task storage task = tasks[_taskAddr];\n        require(msg.sender == task.requester);\n\n        if(_proof > task.requesterProofOfTrust) {\n            lock(msg.sender, _proof - task.requesterProofOfTrust);\n        } else if (_proof < task.requesterProofOfTrust) {\n            unlock(msg.sender, task.requesterProofOfTrust - _proof);\n        }\n        task.requesterProofOfTrust = _proof;\n    }\n\n    function setMinimumTrustForWorker(uint _taskAddr, uint _proof) public CurrentTask(_taskAddr, TaskState.UNASSIGNED_TASK) {\n        Task storage task = tasks[_taskAddr];\n        require(msg.sender == task.requester);\n        task.requesterMinimumTrustValueForWorker = _proof;\n    }\n\n    function createTask(\n        uint _salary,\n        uint _requesterProofOfTrust,\n        uint _requesterMinimumTrustValueForWorker,\n        address _dealer\n        ) public {\n            lock(msg.sender, _salary + _requesterProofOfTrust);\n\n            Task memory task;\n            task.state = TaskState.UNASSIGNED_TASK;\n            task.requester = msg.sender;\n            task.salary = _salary;\n            task.requesterProofOfTrust = _requesterProofOfTrust;\n            task.requesterMinimumTrustValueForWorker = _requesterMinimumTrustValueForWorker;\n\n            task.taskAddr = _taskIds.current();\n            task.worker = _dealer;\n            _taskIds.increment();\n\n            tasks[task.taskAddr] = task;\n            \n            emit TaskStateChanged(msg.sender, task.taskAddr, task.state);\n    }\n\n    function acceptTask(uint256 _taskAddr, uint _workerProofOfTrust) public CurrentTask(_taskAddr, TaskState.UNASSIGNED_TASK) {\n        Task storage task = tasks[_taskAddr];\n        require(task.requester != address(0x0));\n        require(task.requesterMinimumTrustValueForWorker <= _workerProofOfTrust);\n        require(task.worker == msg.sender);\n\n        lock(msg.sender, _workerProofOfTrust);\n\n        task.state = TaskState.ASSIGNED_TASK;\n\n        task.workerProofOfTrust = _workerProofOfTrust;\n        emit TaskStateChanged(msg.sender, task.taskAddr, task.state);\n    }\n\n    function doTask(uint256 _taskAddr) public {\n        require(tasks[_taskAddr].worker == msg.sender, \"Sender is not worker of the task\");\n        require(tasks[_taskAddr].state == TaskState.ASSIGNED_TASK, \"Task is not at the correct state\");\n        tasks[_taskAddr].state = TaskState.VERIFY_TASK;\n        emit TaskStateChanged(msg.sender, _taskAddr, tasks[_taskAddr].state);\n    }\n\n    function finishTask(uint256 _taskAddr) public CurrentTask(_taskAddr, TaskState.VERIFY_TASK) {\n        require(tasks[_taskAddr].requester == msg.sender, \"Sender is not requester of the task\");\n\n        Task storage task = tasks[_taskAddr];\n        unlock(task.requester, task.salary + task.requesterProofOfTrust);\n        unlock(task.worker, task.workerProofOfTrust);\n        transfer(task.requester, task.worker, task.salary);\n        task.state = TaskState.FINISHED_TASK;\n        emit TaskStateChanged(msg.sender, task.taskAddr, task.state);\n    }\n\n    function removeTask(uint256 _taskAddr) public {\n        Task storage task = tasks[_taskAddr];\n        if (task.state == TaskState.UNASSIGNED_TASK) {\n            require(msg.sender == task.requester, \"Task doesnt exists with the requested address\");    \n            _removeTask(task);\n            emit TaskStateChanged(msg.sender, task.taskAddr, task.state);\n        } else {\n            revert(\"Task is not at the state UNASSIGNED_TASK\");\n        }\n    }\n\n    function _removeTask(Task storage _task) private {\n        unlock(_task.requester, _task.salary + _task.requesterProofOfTrust);\n        _task.state = TaskState.REMOVED_TASK;\n    }\n\n    function rejectTask(uint256 _taskAddr) public CurrentTask(_taskAddr, TaskState.VERIFY_TASK) {\n        require(tasks[_taskAddr].requester == msg.sender, \"Sender is not requester of the task\");\n        Task storage task = tasks[_taskAddr];\n        task.state = TaskState.ASSIGNED_TASK;\n        emit TaskStateChanged(msg.sender, task.taskAddr, task.state);\n    }\n\n    function cancelTask(uint256 _taskAddr) public {\n        Task storage task = tasks[_taskAddr];\n        require(task.state == TaskState.ASSIGNED_TASK || task.state == TaskState.VERIFY_TASK, \"Task is not at correct state\");\n        require(task.requester == msg.sender || task.worker == msg.sender, \"Caller has not premission to finish this task\");\n\n        uint repaymentRate = calcRepaymentRate(task);\n\n        uint requesterTaskLockedFund = task.salary + task.requesterProofOfTrust;\n        uint workerTaskLockedFund = task.workerProofOfTrust;\n\n        uint requesterBurnValue = requesterTaskLockedFund * repaymentRate / 100;\n        uint workerBurnValue = workerTaskLockedFund * repaymentRate / 100;\n\n        burn(task.requester, requesterBurnValue);\n        burn(task.worker, workerBurnValue);\n        unlock(task.requester, requesterTaskLockedFund - requesterBurnValue);\n        unlock(task.worker, workerTaskLockedFund - workerBurnValue);\n\n        task.state = TaskState.UNASSIGNED_TASK;\n        task.worker = address(0);\n        task.requesterMinimumTrustValueForWorker = 0;\n        task.requesterProofOfTrust = 0;\n        task.workerProofOfTrust = 0;\n        task.salary = 0;\n\n        emit TaskStateChanged(msg.sender, task.taskAddr, task.state);\n    }\n\n    function calcRepaymentRate(Task memory task) internal pure returns (uint) {\n        return (((task.salary + (task.requesterProofOfTrust / 4)) * 100) / (task.salary + task.requesterProofOfTrust));\n    }\n\n}",
  "sourcePath": "/home/sepehr/blockchain/TrustDeal/contracts/TrustExchange.sol",
  "compiler": {
    "name": "solc",
    "version": "0.8.18+commit.87f61d96.Linux.g++"
  },
  "schemaVersion": "3.4.13",
  "updatedAt": "2023-07-05T08:09:52.529Z",
  "devdoc": {
    "kind": "dev",
    "methods": {},
    "version": 1
  },
  "userdoc": {
    "kind": "user",
    "methods": {},
    "version": 1
  }
}