{
  "contractName": "TrustExchange",
  "abi": [
    {
      "inputs": [],
      "stateMutability": "nonpayable",
      "type": "constructor"
    },
    {
      "anonymous": false,
      "inputs": [
        {
          "indexed": true,
          "internalType": "address",
          "name": "sender",
          "type": "address"
        },
        {
          "indexed": true,
          "internalType": "uint256",
          "name": "taskAddr",
          "type": "uint256"
        },
        {
          "indexed": false,
          "internalType": "enum TrustExchange.TaskState",
          "name": "newState",
          "type": "uint8"
        }
      ],
      "name": "TaskStateChanged",
      "type": "event"
    },
    {
      "inputs": [],
      "name": "deposit",
      "outputs": [],
      "stateMutability": "payable",
      "type": "function",
      "payable": true
    },
    {
      "inputs": [
        {
          "internalType": "address",
          "name": "",
          "type": "address"
        }
      ],
      "name": "ownerToFunds",
      "outputs": [
        {
          "internalType": "uint256",
          "name": "actual",
          "type": "uint256"
        },
        {
          "internalType": "uint256",
          "name": "locked",
          "type": "uint256"
        }
      ],
      "stateMutability": "view",
      "type": "function",
      "constant": true
    },
    {
      "inputs": [
        {
          "internalType": "uint256",
          "name": "",
          "type": "uint256"
        }
      ],
      "name": "tasks",
      "outputs": [
        {
          "internalType": "uint256",
          "name": "taskAddr",
          "type": "uint256"
        },
        {
          "internalType": "enum TrustExchange.TaskState",
          "name": "state",
          "type": "uint8"
        },
        {
          "internalType": "address",
          "name": "requester",
          "type": "address"
        },
        {
          "internalType": "uint256",
          "name": "salary",
          "type": "uint256"
        },
        {
          "internalType": "uint256",
          "name": "requesterProofOfTrust",
          "type": "uint256"
        },
        {
          "internalType": "uint256",
          "name": "requesterMinimumTrustValueForWorker",
          "type": "uint256"
        },
        {
          "internalType": "address",
          "name": "worker",
          "type": "address"
        },
        {
          "internalType": "uint256",
          "name": "workerProofOfTrust",
          "type": "uint256"
        }
      ],
      "stateMutability": "view",
      "type": "function",
      "constant": true
    },
    {
      "inputs": [
        {
          "internalType": "uint256",
          "name": "_amount",
          "type": "uint256"
        }
      ],
      "name": "withdraw",
      "outputs": [],
      "stateMutability": "nonpayable",
      "type": "function"
    },
    {
      "inputs": [],
      "name": "NFTaddress",
      "outputs": [
        {
          "internalType": "address",
          "name": "",
          "type": "address"
        }
      ],
      "stateMutability": "view",
      "type": "function",
      "constant": true
    },
    {
      "inputs": [
        {
          "internalType": "uint256",
          "name": "_salary",
          "type": "uint256"
        },
        {
          "internalType": "uint256",
          "name": "_requesterProofOfTrust",
          "type": "uint256"
        },
        {
          "internalType": "uint256",
          "name": "_requesterMinimumTrustValueForWorker",
          "type": "uint256"
        },
        {
          "internalType": "address",
          "name": "_worker",
          "type": "address"
        }
      ],
      "name": "createTask",
      "outputs": [],
      "stateMutability": "nonpayable",
      "type": "function"
    },
    {
      "inputs": [
        {
          "internalType": "uint256",
          "name": "_taskAddr",
          "type": "uint256"
        },
        {
          "internalType": "uint256",
          "name": "_workerProofOfTrust",
          "type": "uint256"
        }
      ],
      "name": "doneTaskWithTrust",
      "outputs": [],
      "stateMutability": "nonpayable",
      "type": "function"
    },
    {
      "inputs": [
        {
          "internalType": "uint256",
          "name": "_taskAddr",
          "type": "uint256"
        }
      ],
      "name": "doneTask",
      "outputs": [],
      "stateMutability": "nonpayable",
      "type": "function"
    },
    {
      "inputs": [
        {
          "internalType": "uint256",
          "name": "_taskAddr",
          "type": "uint256"
        }
      ],
      "name": "finishTask",
      "outputs": [],
      "stateMutability": "nonpayable",
      "type": "function"
    },
    {
      "inputs": [
        {
          "internalType": "uint256",
          "name": "_taskAddr",
          "type": "uint256"
        }
      ],
      "name": "cancelTask",
      "outputs": [],
      "stateMutability": "nonpayable",
      "type": "function"
    },
    {
      "inputs": [
        {
          "internalType": "uint256",
          "name": "_taskAddr",
          "type": "uint256"
        }
      ],
      "name": "rejectTask",
      "outputs": [],
      "stateMutability": "nonpayable",
      "type": "function"
    },
    {
      "inputs": [
        {
          "internalType": "uint256",
          "name": "_taskAddr",
          "type": "uint256"
        }
      ],
      "name": "unFinishTask",
      "outputs": [],
      "stateMutability": "nonpayable",
      "type": "function"
    }
  ],
  "bytecode": "0x60806040523480156200001157600080fd5b5033600160006101000a81548173ffffffffffffffffffffffffffffffffffffffff021916908373ffffffffffffffffffffffffffffffffffffffff1602179055506040516200006190620000c5565b604051809103906000f0801580156200007e573d6000803e3d6000fd5b50600260006101000a81548173ffffffffffffffffffffffffffffffffffffffff021916908373ffffffffffffffffffffffffffffffffffffffff160217905550620000d3565b612eb38062002e5c83390190565b612d7980620000e36000396000f3fe6080604052600436106100a75760003560e01c80637eec20a8116100645780637eec20a8146101a4578063842178b2146101cd5780638d977672146101f6578063d0e30db01461023a578063dc7aea0814610244578063efac52471461026d576100a7565b806304c0e5aa146100ac5780632299c51f146100d55780632e1a7d4d146101005780635e6f8337146101295780636c956820146101525780637d81b40b1461017b575b600080fd5b3480156100b857600080fd5b506100d360048036038101906100ce91906120b7565b6102ab565b005b3480156100e157600080fd5b506100ea610586565b6040516100f7919061212d565b60405180910390f35b34801561010c57600080fd5b5061012760048036038101906101229190612148565b6105b0565b005b34801561013557600080fd5b50610150600480360381019061014b9190612148565b61073c565b005b34801561015e57600080fd5b5061017960048036038101906101749190612175565b61091e565b005b34801561018757600080fd5b506101a2600480360381019061019d9190612148565b610bc4565b005b3480156101b057600080fd5b506101cb60048036038101906101c69190612148565b610da2565b005b3480156101d957600080fd5b506101f460048036038101906101ef9190612148565b610f39565b005b34801561020257600080fd5b5061021d60048036038101906102189190612148565b611272565b60405161023198979695949392919061223b565b60405180910390f35b610242611307565b005b34801561025057600080fd5b5061026b60048036038101906102669190612148565b6113a7565b005b34801561027957600080fd5b50610294600480360381019061028f91906122b9565b6118e6565b6040516102a29291906122e6565b60405180910390f35b6102c03384866102bb919061233e565b61190a565b6102c8611f9b565b6000816020019060058111156102e1576102e06121c4565b5b908160058111156102f5576102f46121c4565b5b8152505033816040019073ffffffffffffffffffffffffffffffffffffffff16908173ffffffffffffffffffffffffffffffffffffffff16815250508481606001818152505083816080018181525050828160a001818152505084848433426040516020016103689594939291906123db565b6040516020818303038152906040528051906020012060001c8160000181815250508060036000836000015181526020019081526020016000206000820151816000015560208201518160010160006101000a81548160ff021916908360058111156103d7576103d66121c4565b5b021790555060408201518160010160016101000a81548173ffffffffffffffffffffffffffffffffffffffff021916908373ffffffffffffffffffffffffffffffffffffffff160217905550606082015181600201556080820151816003015560a0820151816004015560c08201518160050160006101000a81548173ffffffffffffffffffffffffffffffffffffffff021916908373ffffffffffffffffffffffffffffffffffffffff16021790555060e08201518160060155905050600260009054906101000a900473ffffffffffffffffffffffffffffffffffffffff1673ffffffffffffffffffffffffffffffffffffffff166340c10f198383600001516040518363ffffffff1660e01b81526004016104f692919061243a565b600060405180830381600087803b15801561051057600080fd5b505af1158015610524573d6000803e3d6000fd5b5050505080600001513373ffffffffffffffffffffffffffffffffffffffff167f5f54ce667b6030b388930f0357f5f8b7db064926b129a97ad5062edff2b162b183602001516040516105779190612463565b60405180910390a35050505050565b6000600260009054906101000a900473ffffffffffffffffffffffffffffffffffffffff16905090565b806000803373ffffffffffffffffffffffffffffffffffffffff1673ffffffffffffffffffffffffffffffffffffffff168152602001908152602001600020600001541015610634576040517f08c379a000000000000000000000000000000000000000000000000000000000815260040161062b90612501565b60405180910390fd5b806000803373ffffffffffffffffffffffffffffffffffffffff1673ffffffffffffffffffffffffffffffffffffffff16815260200190815260200160002060000160008282546106859190612521565b9250508190555060003373ffffffffffffffffffffffffffffffffffffffff16826040516106b290612586565b60006040518083038185875af1925050503d80600081146106ef576040519150601f19603f3d011682016040523d82523d6000602084013e6106f4565b606091505b5050905080610738576040517f08c379a000000000000000000000000000000000000000000000000000000000815260040161072f906125e7565b60405180910390fd5b5050565b3373ffffffffffffffffffffffffffffffffffffffff166003600083815260200190815260200160002060050160009054906101000a900473ffffffffffffffffffffffffffffffffffffffff1673ffffffffffffffffffffffffffffffffffffffff16146107e0576040517f08c379a00000000000000000000000000000000000000000000000000000000081526004016107d790612653565b60405180910390fd5b600460058111156107f4576107f36121c4565b5b6003600083815260200190815260200160002060010160009054906101000a900460ff16600581111561082a576108296121c4565b5b1461086a576040517f08c379a0000000000000000000000000000000000000000000000000000000008152600401610861906126bf565b60405180910390fd5b60016003600083815260200190815260200160002060010160006101000a81548160ff021916908360058111156108a4576108a36121c4565b5b0217905550803373ffffffffffffffffffffffffffffffffffffffff167f5f54ce667b6030b388930f0357f5f8b7db064926b129a97ad5062edff2b162b16003600085815260200190815260200160002060010160009054906101000a900460ff166040516109139190612463565b60405180910390a350565b816000806005811115610934576109336121c4565b5b6003600084815260200190815260200160002060010160009054906101000a900460ff16600581111561096a576109696121c4565b5b146109aa576040517f08c379a00000000000000000000000000000000000000000000000000000000081526004016109a190612751565b60405180910390fd5b6000600360008681526020019081526020016000209050600073ffffffffffffffffffffffffffffffffffffffff168160010160019054906101000a900473ffffffffffffffffffffffffffffffffffffffff1673ffffffffffffffffffffffffffffffffffffffff1603610a1e57600080fd5b8381600401541115610a2f57600080fd5b600260009054906101000a900473ffffffffffffffffffffffffffffffffffffffff1673ffffffffffffffffffffffffffffffffffffffff1663430c208133876040518363ffffffff1660e01b8152600401610a8c92919061243a565b602060405180830381865afa158015610aa9573d6000803e3d6000fd5b505050506040513d601f19601f82011682018060405250810190610acd91906127a9565b610ad657600080fd5b610ae0338561190a565b60018160010160006101000a81548160ff02191690836005811115610b0857610b076121c4565b5b0217905550338160050160006101000a81548173ffffffffffffffffffffffffffffffffffffffff021916908373ffffffffffffffffffffffffffffffffffffffff16021790555083816006018190555080600001543373ffffffffffffffffffffffffffffffffffffffff167f5f54ce667b6030b388930f0357f5f8b7db064926b129a97ad5062edff2b162b18360010160009054906101000a900460ff16604051610bb59190612463565b60405180910390a35050505050565b806001806005811115610bda57610bd96121c4565b5b6003600084815260200190815260200160002060010160009054906101000a900460ff166005811115610c1057610c0f6121c4565b5b14610c50576040517f08c379a0000000000000000000000000000000000000000000000000000000008152600401610c4790612751565b60405180910390fd5b3373ffffffffffffffffffffffffffffffffffffffff166003600085815260200190815260200160002060010160019054906101000a900473ffffffffffffffffffffffffffffffffffffffff1673ffffffffffffffffffffffffffffffffffffffff1614610cf4576040517f08c379a0000000000000000000000000000000000000000000000000000000008152600401610ceb90612848565b60405180910390fd5b600060036000858152602001908152602001600020905060048160010160006101000a81548160ff02191690836005811115610d3357610d326121c4565b5b021790555080600001543373ffffffffffffffffffffffffffffffffffffffff167f5f54ce667b6030b388930f0357f5f8b7db064926b129a97ad5062edff2b162b18360010160009054906101000a900460ff16604051610d949190612463565b60405180910390a350505050565b600060036000838152602001908152602001600020905060006005811115610dcd57610dcc6121c4565b5b8160010160009054906101000a900460ff166005811115610df157610df06121c4565b5b03610efa578060010160019054906101000a900473ffffffffffffffffffffffffffffffffffffffff1673ffffffffffffffffffffffffffffffffffffffff163373ffffffffffffffffffffffffffffffffffffffff1614610e88576040517f08c379a0000000000000000000000000000000000000000000000000000000008152600401610e7f906128da565b60405180910390fd5b610e9181611a42565b80600001543373ffffffffffffffffffffffffffffffffffffffff167f5f54ce667b6030b388930f0357f5f8b7db064926b129a97ad5062edff2b162b18360010160009054906101000a900460ff16604051610eed9190612463565b60405180910390a3610f35565b6040517f08c379a0000000000000000000000000000000000000000000000000000000008152600401610f2c90612946565b60405180910390fd5b5050565b806001806005811115610f4f57610f4e6121c4565b5b6003600084815260200190815260200160002060010160009054906101000a900460ff166005811115610f8557610f846121c4565b5b14610fc5576040517f08c379a0000000000000000000000000000000000000000000000000000000008152600401610fbc90612751565b60405180910390fd5b3373ffffffffffffffffffffffffffffffffffffffff166003600085815260200190815260200160002060010160019054906101000a900473ffffffffffffffffffffffffffffffffffffffff1673ffffffffffffffffffffffffffffffffffffffff1614611069576040517f08c379a000000000000000000000000000000000000000000000000000000000815260040161106090612848565b60405180910390fd5b60006003600085815260200190815260200160002090506110c18160010160019054906101000a900473ffffffffffffffffffffffffffffffffffffffff16826003015483600201546110bc919061233e565b611b44565b6110f38160050160009054906101000a900473ffffffffffffffffffffffffffffffffffffffff168260060154611b44565b61114a8160010160019054906101000a900473ffffffffffffffffffffffffffffffffffffffff168260050160009054906101000a900473ffffffffffffffffffffffffffffffffffffffff168360020154611c7c565b60028160010160006101000a81548160ff02191690836005811115611172576111716121c4565b5b0217905550600260009054906101000a900473ffffffffffffffffffffffffffffffffffffffff1673ffffffffffffffffffffffffffffffffffffffff166342966c6882600001546040518263ffffffff1660e01b81526004016111d69190612966565b600060405180830381600087803b1580156111f057600080fd5b505af1158015611204573d6000803e3d6000fd5b5050505080600001543373ffffffffffffffffffffffffffffffffffffffff167f5f54ce667b6030b388930f0357f5f8b7db064926b129a97ad5062edff2b162b18360010160009054906101000a900460ff166040516112649190612463565b60405180910390a350505050565b60036020528060005260406000206000915090508060000154908060010160009054906101000a900460ff16908060010160019054906101000a900473ffffffffffffffffffffffffffffffffffffffff16908060020154908060030154908060040154908060050160009054906101000a900473ffffffffffffffffffffffffffffffffffffffff16908060060154905088565b633b9aca00341161134d576040517f08c379a0000000000000000000000000000000000000000000000000000000008152600401611344906129cd565b60405180910390fd5b346000803373ffffffffffffffffffffffffffffffffffffffff1673ffffffffffffffffffffffffffffffffffffffff168152602001908152602001600020600001600082825461139e919061233e565b92505081905550565b6000600360008381526020019081526020016000209050600460058111156113d2576113d16121c4565b5b8160010160009054906101000a900460ff1660058111156113f6576113f56121c4565b5b1480611437575060016005811115611411576114106121c4565b5b8160010160009054906101000a900460ff166005811115611435576114346121c4565b5b145b611476576040517f08c379a000000000000000000000000000000000000000000000000000000000815260040161146d90612a39565b60405180910390fd5b3373ffffffffffffffffffffffffffffffffffffffff168160010160019054906101000a900473ffffffffffffffffffffffffffffffffffffffff1673ffffffffffffffffffffffffffffffffffffffff16148061152357503373ffffffffffffffffffffffffffffffffffffffff168160050160009054906101000a900473ffffffffffffffffffffffffffffffffffffffff1673ffffffffffffffffffffffffffffffffffffffff16145b611562576040517f08c379a000000000000000000000000000000000000000000000000000000000815260040161155990612acb565b60405180910390fd5b60006116928260405180610100016040529081600082015481526020016001820160009054906101000a900460ff1660058111156115a3576115a26121c4565b5b60058111156115b5576115b46121c4565b5b81526020016001820160019054906101000a900473ffffffffffffffffffffffffffffffffffffffff1673ffffffffffffffffffffffffffffffffffffffff1673ffffffffffffffffffffffffffffffffffffffff1681526020016002820154815260200160038201548152602001600482015481526020016005820160009054906101000a900473ffffffffffffffffffffffffffffffffffffffff1673ffffffffffffffffffffffffffffffffffffffff1673ffffffffffffffffffffffffffffffffffffffff168152602001600682015481525050611db5565b90506000826003015483600201546116aa919061233e565b90506000836006015490506000606484846116c59190612aeb565b6116cf9190612b5c565b90506000606485846116e19190612aeb565b6116eb9190612b5c565b905061171b8660010160019054906101000a900473ffffffffffffffffffffffffffffffffffffffff1683611e08565b6117498660050160009054906101000a900473ffffffffffffffffffffffffffffffffffffffff1682611e08565b6117828660010160019054906101000a900473ffffffffffffffffffffffffffffffffffffffff16838661177d9190612521565b611b44565b6117bb8660050160009054906101000a900473ffffffffffffffffffffffffffffffffffffffff1682856117b69190612521565b611b44565b60058660010160006101000a81548160ff021916908360058111156117e3576117e26121c4565b5b0217905550600260009054906101000a900473ffffffffffffffffffffffffffffffffffffffff1673ffffffffffffffffffffffffffffffffffffffff166342966c6887600001546040518263ffffffff1660e01b81526004016118479190612966565b600060405180830381600087803b15801561186157600080fd5b505af1158015611875573d6000803e3d6000fd5b5050505085600001543373ffffffffffffffffffffffffffffffffffffffff167f5f54ce667b6030b388930f0357f5f8b7db064926b129a97ad5062edff2b162b18860010160009054906101000a900460ff166040516118d59190612463565b60405180910390a350505050505050565b60006020528060005260406000206000915090508060000154908060010154905082565b806000808473ffffffffffffffffffffffffffffffffffffffff1673ffffffffffffffffffffffffffffffffffffffff16815260200190815260200160002060000154101561198e576040517f08c379a000000000000000000000000000000000000000000000000000000000815260040161198590612bff565b60405180910390fd5b806000808473ffffffffffffffffffffffffffffffffffffffff1673ffffffffffffffffffffffffffffffffffffffff16815260200190815260200160002060000160008282546119df9190612521565b92505081905550806000808473ffffffffffffffffffffffffffffffffffffffff1673ffffffffffffffffffffffffffffffffffffffff1681526020019081526020016000206001016000828254611a37919061233e565b925050819055505050565b611a838160010160019054906101000a900473ffffffffffffffffffffffffffffffffffffffff1682600301548360020154611a7e919061233e565b611b44565b60038160010160006101000a81548160ff02191690836005811115611aab57611aaa6121c4565b5b0217905550600260009054906101000a900473ffffffffffffffffffffffffffffffffffffffff1673ffffffffffffffffffffffffffffffffffffffff166342966c6882600001546040518263ffffffff1660e01b8152600401611b0f9190612966565b600060405180830381600087803b158015611b2957600080fd5b505af1158015611b3d573d6000803e3d6000fd5b5050505050565b806000808473ffffffffffffffffffffffffffffffffffffffff1673ffffffffffffffffffffffffffffffffffffffff168152602001908152602001600020600101541015611bc8576040517f08c379a0000000000000000000000000000000000000000000000000000000008152600401611bbf90612c91565b60405180910390fd5b806000808473ffffffffffffffffffffffffffffffffffffffff1673ffffffffffffffffffffffffffffffffffffffff1681526020019081526020016000206000016000828254611c19919061233e565b92505081905550806000808473ffffffffffffffffffffffffffffffffffffffff1673ffffffffffffffffffffffffffffffffffffffff1681526020019081526020016000206001016000828254611c719190612521565b925050819055505050565b806000808573ffffffffffffffffffffffffffffffffffffffff1673ffffffffffffffffffffffffffffffffffffffff168152602001908152602001600020600001541015611d00576040517f08c379a0000000000000000000000000000000000000000000000000000000008152600401611cf790612d23565b60405180910390fd5b806000808573ffffffffffffffffffffffffffffffffffffffff1673ffffffffffffffffffffffffffffffffffffffff1681526020019081526020016000206000016000828254611d519190612521565b92505081905550806000808473ffffffffffffffffffffffffffffffffffffffff1673ffffffffffffffffffffffffffffffffffffffff1681526020019081526020016000206000016000828254611da9919061233e565b92505081905550505050565b600081608001518260600151611dcb919061233e565b606460048460800151611dde9190612b5c565b8460600151611ded919061233e565b611df79190612aeb565b611e019190612b5c565b9050919050565b806000808473ffffffffffffffffffffffffffffffffffffffff1673ffffffffffffffffffffffffffffffffffffffff168152602001908152602001600020600101541015611e8c576040517f08c379a0000000000000000000000000000000000000000000000000000000008152600401611e8390612c91565b60405180910390fd5b60008073ffffffffffffffffffffffffffffffffffffffff1682604051611eb290612586565b60006040518083038185875af1925050503d8060008114611eef576040519150601f19603f3d011682016040523d82523d6000602084013e611ef4565b606091505b505090508015611f5b57816000808573ffffffffffffffffffffffffffffffffffffffff1673ffffffffffffffffffffffffffffffffffffffff1681526020019081526020016000206001016000828254611f4f9190612521565b92505081905550611f96565b6040517f08c379a0000000000000000000000000000000000000000000000000000000008152600401611f8d906125e7565b60405180910390fd5b505050565b6040518061010001604052806000815260200160006005811115611fc257611fc16121c4565b5b8152602001600073ffffffffffffffffffffffffffffffffffffffff168152602001600081526020016000815260200160008152602001600073ffffffffffffffffffffffffffffffffffffffff168152602001600081525090565b600080fd5b6000819050919050565b61203681612023565b811461204157600080fd5b50565b6000813590506120538161202d565b92915050565b600073ffffffffffffffffffffffffffffffffffffffff82169050919050565b600061208482612059565b9050919050565b61209481612079565b811461209f57600080fd5b50565b6000813590506120b18161208b565b92915050565b600080600080608085870312156120d1576120d061201e565b5b60006120df87828801612044565b94505060206120f087828801612044565b935050604061210187828801612044565b9250506060612112878288016120a2565b91505092959194509250565b61212781612079565b82525050565b6000602082019050612142600083018461211e565b92915050565b60006020828403121561215e5761215d61201e565b5b600061216c84828501612044565b91505092915050565b6000806040838503121561218c5761218b61201e565b5b600061219a85828601612044565b92505060206121ab85828601612044565b9150509250929050565b6121be81612023565b82525050565b7f4e487b7100000000000000000000000000000000000000000000000000000000600052602160045260246000fd5b60068110612204576122036121c4565b5b50565b6000819050612215826121f3565b919050565b600061222582612207565b9050919050565b6122358161221a565b82525050565b600061010082019050612251600083018b6121b5565b61225e602083018a61222c565b61226b604083018961211e565b61227860608301886121b5565b61228560808301876121b5565b61229260a08301866121b5565b61229f60c083018561211e565b6122ac60e08301846121b5565b9998505050505050505050565b6000602082840312156122cf576122ce61201e565b5b60006122dd848285016120a2565b91505092915050565b60006040820190506122fb60008301856121b5565b61230860208301846121b5565b9392505050565b7f4e487b7100000000000000000000000000000000000000000000000000000000600052601160045260246000fd5b600061234982612023565b915061235483612023565b925082820190508082111561236c5761236b61230f565b5b92915050565b6000819050919050565b61238d61238882612023565b612372565b82525050565b60008160601b9050919050565b60006123ab82612393565b9050919050565b60006123bd826123a0565b9050919050565b6123d56123d082612079565b6123b2565b82525050565b60006123e7828861237c565b6020820191506123f7828761237c565b602082019150612407828661237c565b60208201915061241782856123c4565b601482019150612427828461237c565b6020820191508190509695505050505050565b600060408201905061244f600083018561211e565b61245c60208301846121b5565b9392505050565b6000602082019050612478600083018461222c565b92915050565b600082825260208201905092915050565b7f5468657265206973206e6f20656e6f7567682066756e6420666f72207468652060008201527f63757272656e74206163636f756e740000000000000000000000000000000000602082015250565b60006124eb602f8361247e565b91506124f68261248f565b604082019050919050565b6000602082019050818103600083015261251a816124de565b9050919050565b600061252c82612023565b915061253783612023565b925082820390508181111561254f5761254e61230f565b5b92915050565b600081905092915050565b50565b6000612570600083612555565b915061257b82612560565b600082019050919050565b600061259182612563565b9150819050919050565b7f5472616e73666572206661696c65640000000000000000000000000000000000600082015250565b60006125d1600f8361247e565b91506125dc8261259b565b602082019050919050565b60006020820190508181036000830152612600816125c4565b9050919050565b7f53656e646572206973206e6f7420776f726b6572206f6620746865207461736b600082015250565b600061263d60208361247e565b915061264882612607565b602082019050919050565b6000602082019050818103600083015261266c81612630565b9050919050565b7f5461736b206973206e6f742061742074686520636f7272656374207374617465600082015250565b60006126a960208361247e565b91506126b482612673565b602082019050919050565b600060208201905081810360008301526126d88161269c565b9050919050565b7f5461736b206973206e6f742061742074686520636f727265637420737461746560008201527f20666f7220746869732070726f63657373000000000000000000000000000000602082015250565b600061273b60318361247e565b9150612746826126df565b604082019050919050565b6000602082019050818103600083015261276a8161272e565b9050919050565b60008115159050919050565b61278681612771565b811461279157600080fd5b50565b6000815190506127a38161277d565b92915050565b6000602082840312156127bf576127be61201e565b5b60006127cd84828501612794565b91505092915050565b7f53656e646572206973206e6f7420726571756573746572206f6620746865207460008201527f61736b0000000000000000000000000000000000000000000000000000000000602082015250565b600061283260238361247e565b915061283d826127d6565b604082019050919050565b6000602082019050818103600083015261286181612825565b9050919050565b7f5461736b20646f65736e7420657869737473207769746820746865207265717560008201527f6573746564206164647265737300000000000000000000000000000000000000602082015250565b60006128c4602d8361247e565b91506128cf82612868565b604082019050919050565b600060208201905081810360008301526128f3816128b7565b9050919050565b7f5461736b206973206e6f74206174207468652073746174652043524541544544600082015250565b600061293060208361247e565b915061293b826128fa565b602082019050919050565b6000602082019050818103600083015261295f81612923565b9050919050565b600060208201905061297b60008301846121b5565b92915050565b7f4d696e696d756d206465706f7369742076616c75652069732031204757454900600082015250565b60006129b7601f8361247e565b91506129c282612981565b602082019050919050565b600060208201905081810360008301526129e6816129aa565b9050919050565b7f5461736b206973206e6f7420617420636f727265637420737461746500000000600082015250565b6000612a23601c8361247e565b9150612a2e826129ed565b602082019050919050565b60006020820190508181036000830152612a5281612a16565b9050919050565b7f43616c6c657220686173206e6f74207072656d697373696f6e20746f2066696e60008201527f6973682074686973207461736b00000000000000000000000000000000000000602082015250565b6000612ab5602d8361247e565b9150612ac082612a59565b604082019050919050565b60006020820190508181036000830152612ae481612aa8565b9050919050565b6000612af682612023565b9150612b0183612023565b9250828202612b0f81612023565b91508282048414831517612b2657612b2561230f565b5b5092915050565b7f4e487b7100000000000000000000000000000000000000000000000000000000600052601260045260246000fd5b6000612b6782612023565b9150612b7283612023565b925082612b8257612b81612b2d565b5b828204905092915050565b7f5468657265206973206e6f20656e6f7567682061637475616c2066756e64206660008201527f6f722074686973206f776e657200000000000000000000000000000000000000602082015250565b6000612be9602d8361247e565b9150612bf482612b8d565b604082019050919050565b60006020820190508181036000830152612c1881612bdc565b9050919050565b7f416d6f756e7420697320626967676572207468616e206c6f636b65642066756e60008201527f647320666f722074686973206f776e6572000000000000000000000000000000602082015250565b6000612c7b60318361247e565b9150612c8682612c1f565b604082019050919050565b60006020820190508181036000830152612caa81612c6e565b9050919050565b7f5468657265206973206e6f20656e6f7567682061637475616c2066756e64732060008201527f666f72207468652073656e646572000000000000000000000000000000000000602082015250565b6000612d0d602e8361247e565b9150612d1882612cb1565b604082019050919050565b60006020820190508181036000830152612d3c81612d00565b905091905056fea2646970667358221220bef17405a4f1c0306f0925082b571559573038aa75a697ad5122259d651a31e464736f6c6343000812003360806040523480156200001157600080fd5b506040518060400160405280601a81526020017f4e6f6e2066756e6769626c6520746f6b656e206f66207461736b0000000000008152506040518060400160405280600481526020017f4e4654540000000000000000000000000000000000000000000000000000000081525081600090816200008f919062000412565b508060019081620000a1919062000412565b505050620000c4620000b8620000ca60201b60201c565b620000d260201b60201c565b620004f9565b600033905090565b6000600660009054906101000a900473ffffffffffffffffffffffffffffffffffffffff16905081600660006101000a81548173ffffffffffffffffffffffffffffffffffffffff021916908373ffffffffffffffffffffffffffffffffffffffff1602179055508173ffffffffffffffffffffffffffffffffffffffff168173ffffffffffffffffffffffffffffffffffffffff167f8be0079c531659141344cd1fd0a4f28419497f9722a3daafe3b4186f6b6457e060405160405180910390a35050565b600081519050919050565b7f4e487b7100000000000000000000000000000000000000000000000000000000600052604160045260246000fd5b7f4e487b7100000000000000000000000000000000000000000000000000000000600052602260045260246000fd5b600060028204905060018216806200021a57607f821691505b60208210810362000230576200022f620001d2565b5b50919050565b60008190508160005260206000209050919050565b60006020601f8301049050919050565b600082821b905092915050565b6000600883026200029a7fffffffffffffffffffffffffffffffffffffffffffffffffffffffffffffffff826200025b565b620002a686836200025b565b95508019841693508086168417925050509392505050565b6000819050919050565b6000819050919050565b6000620002f3620002ed620002e784620002be565b620002c8565b620002be565b9050919050565b6000819050919050565b6200030f83620002d2565b620003276200031e82620002fa565b84845462000268565b825550505050565b600090565b6200033e6200032f565b6200034b81848462000304565b505050565b5b8181101562000373576200036760008262000334565b60018101905062000351565b5050565b601f821115620003c2576200038c8162000236565b62000397846200024b565b81016020851015620003a7578190505b620003bf620003b6856200024b565b83018262000350565b50505b505050565b600082821c905092915050565b6000620003e760001984600802620003c7565b1980831691505092915050565b6000620004028383620003d4565b9150826002028217905092915050565b6200041d8262000198565b67ffffffffffffffff811115620004395762000438620001a3565b5b62000445825462000201565b6200045282828562000377565b600060209050601f8311600181146200048a576000841562000475578287015190505b620004818582620003f4565b865550620004f1565b601f1984166200049a8662000236565b60005b82811015620004c4578489015182556001820191506020850194506020810190506200049d565b86831015620004e45784890151620004e0601f891682620003d4565b8355505b6001600288020188555050505b505050505050565b6129aa80620005096000396000f3fe608060405234801561001057600080fd5b50600436106101215760003560e01c80636352211e116100ad578063a22cb46511610071578063a22cb46514610306578063b88d4fde14610322578063c87b56dd1461033e578063e985e9c51461036e578063f2fde38b1461039e57610121565b80636352211e1461026057806370a0823114610290578063715018a6146102c05780638da5cb5b146102ca57806395d89b41146102e857610121565b806323b872dd116100f457806323b872dd146101c057806340c10f19146101dc57806342842e0e146101f857806342966c6814610214578063430c20811461023057610121565b806301ffc9a71461012657806306fdde0314610156578063081812fc14610174578063095ea7b3146101a4575b600080fd5b610140600480360381019061013b9190611ba8565b6103ba565b60405161014d9190611bf0565b60405180910390f35b61015e61049c565b60405161016b9190611c9b565b60405180910390f35b61018e60048036038101906101899190611cf3565b61052e565b60405161019b9190611d61565b60405180910390f35b6101be60048036038101906101b99190611da8565b610574565b005b6101da60048036038101906101d59190611de8565b61068b565b005b6101f660048036038101906101f19190611da8565b6106eb565b005b610212600480360381019061020d9190611de8565b610701565b005b61022e60048036038101906102299190611cf3565b610721565b005b61024a60048036038101906102459190611da8565b610735565b6040516102579190611bf0565b60405180910390f35b61027a60048036038101906102759190611cf3565b610751565b6040516102879190611d61565b60405180910390f35b6102aa60048036038101906102a59190611e3b565b6107d7565b6040516102b79190611e77565b60405180910390f35b6102c861088e565b005b6102d26108a2565b6040516102df9190611d61565b60405180910390f35b6102f06108cc565b6040516102fd9190611c9b565b60405180910390f35b610320600480360381019061031b9190611ebe565b61095e565b005b61033c60048036038101906103379190612033565b610974565b005b61035860048036038101906103539190611cf3565b6109d6565b6040516103659190611c9b565b60405180910390f35b610388600480360381019061038391906120b6565b610a3e565b6040516103959190611bf0565b60405180910390f35b6103b860048036038101906103b39190611e3b565b610ad2565b005b60007f80ac58cd000000000000000000000000000000000000000000000000000000007bffffffffffffffffffffffffffffffffffffffffffffffffffffffff1916827bffffffffffffffffffffffffffffffffffffffffffffffffffffffff1916148061048557507f5b5e139f000000000000000000000000000000000000000000000000000000007bffffffffffffffffffffffffffffffffffffffffffffffffffffffff1916827bffffffffffffffffffffffffffffffffffffffffffffffffffffffff1916145b80610495575061049482610b55565b5b9050919050565b6060600080546104ab90612125565b80601f01602080910402602001604051908101604052809291908181526020018280546104d790612125565b80156105245780601f106104f957610100808354040283529160200191610524565b820191906000526020600020905b81548152906001019060200180831161050757829003601f168201915b5050505050905090565b600061053982610bbf565b6004600083815260200190815260200160002060009054906101000a900473ffffffffffffffffffffffffffffffffffffffff169050919050565b600061057f82610751565b90508073ffffffffffffffffffffffffffffffffffffffff168373ffffffffffffffffffffffffffffffffffffffff16036105ef576040517f08c379a00000000000000000000000000000000000000000000000000000000081526004016105e6906121c8565b60405180910390fd5b8073ffffffffffffffffffffffffffffffffffffffff1661060e610c0a565b73ffffffffffffffffffffffffffffffffffffffff16148061063d575061063c81610637610c0a565b610a3e565b5b61067c576040517f08c379a00000000000000000000000000000000000000000000000000000000081526004016106739061225a565b60405180910390fd5b6106868383610c12565b505050565b61069c610696610c0a565b82610ccb565b6106db576040517f08c379a00000000000000000000000000000000000000000000000000000000081526004016106d2906122ec565b60405180910390fd5b6106e6838383610d60565b505050565b6106f3611059565b6106fd82826110d7565b5050565b61071c83838360405180602001604052806000815250610974565b505050565b610729611059565b610732816112f4565b50565b600061073f611059565b6107498383610ccb565b905092915050565b60008061075d83611442565b9050600073ffffffffffffffffffffffffffffffffffffffff168173ffffffffffffffffffffffffffffffffffffffff16036107ce576040517f08c379a00000000000000000000000000000000000000000000000000000000081526004016107c590612358565b60405180910390fd5b80915050919050565b60008073ffffffffffffffffffffffffffffffffffffffff168273ffffffffffffffffffffffffffffffffffffffff1603610847576040517f08c379a000000000000000000000000000000000000000000000000000000000815260040161083e906123ea565b60405180910390fd5b600360008373ffffffffffffffffffffffffffffffffffffffff1673ffffffffffffffffffffffffffffffffffffffff168152602001908152602001600020549050919050565b610896611059565b6108a0600061147f565b565b6000600660009054906101000a900473ffffffffffffffffffffffffffffffffffffffff16905090565b6060600180546108db90612125565b80601f016020809104026020016040519081016040528092919081815260200182805461090790612125565b80156109545780601f1061092957610100808354040283529160200191610954565b820191906000526020600020905b81548152906001019060200180831161093757829003601f168201915b5050505050905090565b610970610969610c0a565b8383611545565b5050565b61098561097f610c0a565b83610ccb565b6109c4576040517f08c379a00000000000000000000000000000000000000000000000000000000081526004016109bb906122ec565b60405180910390fd5b6109d0848484846116b1565b50505050565b60606109e182610bbf565b60006109eb61170d565b90506000815111610a0b5760405180602001604052806000815250610a36565b80610a1584611724565b604051602001610a26929190612446565b6040516020818303038152906040525b915050919050565b6000600560008473ffffffffffffffffffffffffffffffffffffffff1673ffffffffffffffffffffffffffffffffffffffff16815260200190815260200160002060008373ffffffffffffffffffffffffffffffffffffffff1673ffffffffffffffffffffffffffffffffffffffff16815260200190815260200160002060009054906101000a900460ff16905092915050565b610ada611059565b600073ffffffffffffffffffffffffffffffffffffffff168173ffffffffffffffffffffffffffffffffffffffff1603610b49576040517f08c379a0000000000000000000000000000000000000000000000000000000008152600401610b40906124dc565b60405180910390fd5b610b528161147f565b50565b60007f01ffc9a7000000000000000000000000000000000000000000000000000000007bffffffffffffffffffffffffffffffffffffffffffffffffffffffff1916827bffffffffffffffffffffffffffffffffffffffffffffffffffffffff1916149050919050565b610bc8816117f2565b610c07576040517f08c379a0000000000000000000000000000000000000000000000000000000008152600401610bfe90612358565b60405180910390fd5b50565b600033905090565b816004600083815260200190815260200160002060006101000a81548173ffffffffffffffffffffffffffffffffffffffff021916908373ffffffffffffffffffffffffffffffffffffffff160217905550808273ffffffffffffffffffffffffffffffffffffffff16610c8583610751565b73ffffffffffffffffffffffffffffffffffffffff167f8c5be1e5ebec7d5bd14f71427d1e84f3dd0314c0f7b2291e5b200ac8c7c3b92560405160405180910390a45050565b600080610cd783610751565b90508073ffffffffffffffffffffffffffffffffffffffff168473ffffffffffffffffffffffffffffffffffffffff161480610d195750610d188185610a3e565b5b80610d5757508373ffffffffffffffffffffffffffffffffffffffff16610d3f8461052e565b73ffffffffffffffffffffffffffffffffffffffff16145b91505092915050565b8273ffffffffffffffffffffffffffffffffffffffff16610d8082610751565b73ffffffffffffffffffffffffffffffffffffffff1614610dd6576040517f08c379a0000000000000000000000000000000000000000000000000000000008152600401610dcd9061256e565b60405180910390fd5b600073ffffffffffffffffffffffffffffffffffffffff168273ffffffffffffffffffffffffffffffffffffffff1603610e45576040517f08c379a0000000000000000000000000000000000000000000000000000000008152600401610e3c90612600565b60405180910390fd5b610e528383836001611833565b8273ffffffffffffffffffffffffffffffffffffffff16610e7282610751565b73ffffffffffffffffffffffffffffffffffffffff1614610ec8576040517f08c379a0000000000000000000000000000000000000000000000000000000008152600401610ebf9061256e565b60405180910390fd5b6004600082815260200190815260200160002060006101000a81549073ffffffffffffffffffffffffffffffffffffffff02191690556001600360008573ffffffffffffffffffffffffffffffffffffffff1673ffffffffffffffffffffffffffffffffffffffff168152602001908152602001600020600082825403925050819055506001600360008473ffffffffffffffffffffffffffffffffffffffff1673ffffffffffffffffffffffffffffffffffffffff16815260200190815260200160002060008282540192505081905550816002600083815260200190815260200160002060006101000a81548173ffffffffffffffffffffffffffffffffffffffff021916908373ffffffffffffffffffffffffffffffffffffffff160217905550808273ffffffffffffffffffffffffffffffffffffffff168473ffffffffffffffffffffffffffffffffffffffff167fddf252ad1be2c89b69c2b068fc378daa952ba7f163c4a11628f55a4df523b3ef60405160405180910390a46110548383836001611839565b505050565b611061610c0a565b73ffffffffffffffffffffffffffffffffffffffff1661107f6108a2565b73ffffffffffffffffffffffffffffffffffffffff16146110d5576040517f08c379a00000000000000000000000000000000000000000000000000000000081526004016110cc9061266c565b60405180910390fd5b565b600073ffffffffffffffffffffffffffffffffffffffff168273ffffffffffffffffffffffffffffffffffffffff1603611146576040517f08c379a000000000000000000000000000000000000000000000000000000000815260040161113d906126d8565b60405180910390fd5b61114f816117f2565b1561118f576040517f08c379a000000000000000000000000000000000000000000000000000000000815260040161118690612744565b60405180910390fd5b61119d600083836001611833565b6111a6816117f2565b156111e6576040517f08c379a00000000000000000000000000000000000000000000000000000000081526004016111dd90612744565b60405180910390fd5b6001600360008473ffffffffffffffffffffffffffffffffffffffff1673ffffffffffffffffffffffffffffffffffffffff16815260200190815260200160002060008282540192505081905550816002600083815260200190815260200160002060006101000a81548173ffffffffffffffffffffffffffffffffffffffff021916908373ffffffffffffffffffffffffffffffffffffffff160217905550808273ffffffffffffffffffffffffffffffffffffffff16600073ffffffffffffffffffffffffffffffffffffffff167fddf252ad1be2c89b69c2b068fc378daa952ba7f163c4a11628f55a4df523b3ef60405160405180910390a46112f0600083836001611839565b5050565b60006112ff82610751565b905061130f816000846001611833565b61131882610751565b90506004600083815260200190815260200160002060006101000a81549073ffffffffffffffffffffffffffffffffffffffff02191690556001600360008373ffffffffffffffffffffffffffffffffffffffff1673ffffffffffffffffffffffffffffffffffffffff168152602001908152602001600020600082825403925050819055506002600083815260200190815260200160002060006101000a81549073ffffffffffffffffffffffffffffffffffffffff021916905581600073ffffffffffffffffffffffffffffffffffffffff168273ffffffffffffffffffffffffffffffffffffffff167fddf252ad1be2c89b69c2b068fc378daa952ba7f163c4a11628f55a4df523b3ef60405160405180910390a461143e816000846001611839565b5050565b60006002600083815260200190815260200160002060009054906101000a900473ffffffffffffffffffffffffffffffffffffffff169050919050565b6000600660009054906101000a900473ffffffffffffffffffffffffffffffffffffffff16905081600660006101000a81548173ffffffffffffffffffffffffffffffffffffffff021916908373ffffffffffffffffffffffffffffffffffffffff1602179055508173ffffffffffffffffffffffffffffffffffffffff168173ffffffffffffffffffffffffffffffffffffffff167f8be0079c531659141344cd1fd0a4f28419497f9722a3daafe3b4186f6b6457e060405160405180910390a35050565b8173ffffffffffffffffffffffffffffffffffffffff168373ffffffffffffffffffffffffffffffffffffffff16036115b3576040517f08c379a00000000000000000000000000000000000000000000000000000000081526004016115aa906127b0565b60405180910390fd5b80600560008573ffffffffffffffffffffffffffffffffffffffff1673ffffffffffffffffffffffffffffffffffffffff16815260200190815260200160002060008473ffffffffffffffffffffffffffffffffffffffff1673ffffffffffffffffffffffffffffffffffffffff16815260200190815260200160002060006101000a81548160ff0219169083151502179055508173ffffffffffffffffffffffffffffffffffffffff168373ffffffffffffffffffffffffffffffffffffffff167f17307eab39ab6107e8899845ad3d59bd9653f200f220920489ca2b5937696c31836040516116a49190611bf0565b60405180910390a3505050565b6116bc848484610d60565b6116c88484848461183f565b611707576040517f08c379a00000000000000000000000000000000000000000000000000000000081526004016116fe90612842565b60405180910390fd5b50505050565b606060405180602001604052806000815250905090565b606060006001611733846119c6565b01905060008167ffffffffffffffff81111561175257611751611f08565b5b6040519080825280601f01601f1916602001820160405280156117845781602001600182028036833780820191505090505b509050600082602001820190505b6001156117e7578080600190039150507f3031323334353637383961626364656600000000000000000000000000000000600a86061a8153600a85816117db576117da612862565b5b04945060008503611792575b819350505050919050565b60008073ffffffffffffffffffffffffffffffffffffffff1661181483611442565b73ffffffffffffffffffffffffffffffffffffffff1614159050919050565b50505050565b50505050565b60006118608473ffffffffffffffffffffffffffffffffffffffff16611b19565b156119b9578373ffffffffffffffffffffffffffffffffffffffff1663150b7a02611889610c0a565b8786866040518563ffffffff1660e01b81526004016118ab94939291906128e6565b6020604051808303816000875af19250505080156118e757506040513d601f19601f820116820180604052508101906118e49190612947565b60015b611969573d8060008114611917576040519150601f19603f3d011682016040523d82523d6000602084013e61191c565b606091505b506000815103611961576040517f08c379a000000000000000000000000000000000000000000000000000000000815260040161195890612842565b60405180910390fd5b805181602001fd5b63150b7a0260e01b7bffffffffffffffffffffffffffffffffffffffffffffffffffffffff1916817bffffffffffffffffffffffffffffffffffffffffffffffffffffffff1916149150506119be565b600190505b949350505050565b600080600090507a184f03e93ff9f4daa797ed6e38ed64bf6a1f0100000000000000008310611a24577a184f03e93ff9f4daa797ed6e38ed64bf6a1f0100000000000000008381611a1a57611a19612862565b5b0492506040810190505b6d04ee2d6d415b85acef81000000008310611a61576d04ee2d6d415b85acef81000000008381611a5757611a56612862565b5b0492506020810190505b662386f26fc100008310611a9057662386f26fc100008381611a8657611a85612862565b5b0492506010810190505b6305f5e1008310611ab9576305f5e1008381611aaf57611aae612862565b5b0492506008810190505b6127108310611ade576127108381611ad457611ad3612862565b5b0492506004810190505b60648310611b015760648381611af757611af6612862565b5b0492506002810190505b600a8310611b10576001810190505b80915050919050565b6000808273ffffffffffffffffffffffffffffffffffffffff163b119050919050565b6000604051905090565b600080fd5b600080fd5b60007fffffffff0000000000000000000000000000000000000000000000000000000082169050919050565b611b8581611b50565b8114611b9057600080fd5b50565b600081359050611ba281611b7c565b92915050565b600060208284031215611bbe57611bbd611b46565b5b6000611bcc84828501611b93565b91505092915050565b60008115159050919050565b611bea81611bd5565b82525050565b6000602082019050611c056000830184611be1565b92915050565b600081519050919050565b600082825260208201905092915050565b60005b83811015611c45578082015181840152602081019050611c2a565b60008484015250505050565b6000601f19601f8301169050919050565b6000611c6d82611c0b565b611c778185611c16565b9350611c87818560208601611c27565b611c9081611c51565b840191505092915050565b60006020820190508181036000830152611cb58184611c62565b905092915050565b6000819050919050565b611cd081611cbd565b8114611cdb57600080fd5b50565b600081359050611ced81611cc7565b92915050565b600060208284031215611d0957611d08611b46565b5b6000611d1784828501611cde565b91505092915050565b600073ffffffffffffffffffffffffffffffffffffffff82169050919050565b6000611d4b82611d20565b9050919050565b611d5b81611d40565b82525050565b6000602082019050611d766000830184611d52565b92915050565b611d8581611d40565b8114611d9057600080fd5b50565b600081359050611da281611d7c565b92915050565b60008060408385031215611dbf57611dbe611b46565b5b6000611dcd85828601611d93565b9250506020611dde85828601611cde565b9150509250929050565b600080600060608486031215611e0157611e00611b46565b5b6000611e0f86828701611d93565b9350506020611e2086828701611d93565b9250506040611e3186828701611cde565b9150509250925092565b600060208284031215611e5157611e50611b46565b5b6000611e5f84828501611d93565b91505092915050565b611e7181611cbd565b82525050565b6000602082019050611e8c6000830184611e68565b92915050565b611e9b81611bd5565b8114611ea657600080fd5b50565b600081359050611eb881611e92565b92915050565b60008060408385031215611ed557611ed4611b46565b5b6000611ee385828601611d93565b9250506020611ef485828601611ea9565b9150509250929050565b600080fd5b600080fd5b7f4e487b7100000000000000000000000000000000000000000000000000000000600052604160045260246000fd5b611f4082611c51565b810181811067ffffffffffffffff82111715611f5f57611f5e611f08565b5b80604052505050565b6000611f72611b3c565b9050611f7e8282611f37565b919050565b600067ffffffffffffffff821115611f9e57611f9d611f08565b5b611fa782611c51565b9050602081019050919050565b82818337600083830152505050565b6000611fd6611fd184611f83565b611f68565b905082815260208101848484011115611ff257611ff1611f03565b5b611ffd848285611fb4565b509392505050565b600082601f83011261201a57612019611efe565b5b813561202a848260208601611fc3565b91505092915050565b6000806000806080858703121561204d5761204c611b46565b5b600061205b87828801611d93565b945050602061206c87828801611d93565b935050604061207d87828801611cde565b925050606085013567ffffffffffffffff81111561209e5761209d611b4b565b5b6120aa87828801612005565b91505092959194509250565b600080604083850312156120cd576120cc611b46565b5b60006120db85828601611d93565b92505060206120ec85828601611d93565b9150509250929050565b7f4e487b7100000000000000000000000000000000000000000000000000000000600052602260045260246000fd5b6000600282049050600182168061213d57607f821691505b6020821081036121505761214f6120f6565b5b50919050565b7f4552433732313a20617070726f76616c20746f2063757272656e74206f776e6560008201527f7200000000000000000000000000000000000000000000000000000000000000602082015250565b60006121b2602183611c16565b91506121bd82612156565b604082019050919050565b600060208201905081810360008301526121e1816121a5565b9050919050565b7f4552433732313a20617070726f76652063616c6c6572206973206e6f7420746f60008201527f6b656e206f776e6572206f7220617070726f76656420666f7220616c6c000000602082015250565b6000612244603d83611c16565b915061224f826121e8565b604082019050919050565b6000602082019050818103600083015261227381612237565b9050919050565b7f4552433732313a2063616c6c6572206973206e6f7420746f6b656e206f776e6560008201527f72206f7220617070726f76656400000000000000000000000000000000000000602082015250565b60006122d6602d83611c16565b91506122e18261227a565b604082019050919050565b60006020820190508181036000830152612305816122c9565b9050919050565b7f4552433732313a20696e76616c696420746f6b656e2049440000000000000000600082015250565b6000612342601883611c16565b915061234d8261230c565b602082019050919050565b6000602082019050818103600083015261237181612335565b9050919050565b7f4552433732313a2061646472657373207a65726f206973206e6f74206120766160008201527f6c6964206f776e65720000000000000000000000000000000000000000000000602082015250565b60006123d4602983611c16565b91506123df82612378565b604082019050919050565b60006020820190508181036000830152612403816123c7565b9050919050565b600081905092915050565b600061242082611c0b565b61242a818561240a565b935061243a818560208601611c27565b80840191505092915050565b60006124528285612415565b915061245e8284612415565b91508190509392505050565b7f4f776e61626c653a206e6577206f776e657220697320746865207a65726f206160008201527f6464726573730000000000000000000000000000000000000000000000000000602082015250565b60006124c6602683611c16565b91506124d18261246a565b604082019050919050565b600060208201905081810360008301526124f5816124b9565b9050919050565b7f4552433732313a207472616e736665722066726f6d20696e636f72726563742060008201527f6f776e6572000000000000000000000000000000000000000000000000000000602082015250565b6000612558602583611c16565b9150612563826124fc565b604082019050919050565b600060208201905081810360008301526125878161254b565b9050919050565b7f4552433732313a207472616e7366657220746f20746865207a65726f2061646460008201527f7265737300000000000000000000000000000000000000000000000000000000602082015250565b60006125ea602483611c16565b91506125f58261258e565b604082019050919050565b60006020820190508181036000830152612619816125dd565b9050919050565b7f4f776e61626c653a2063616c6c6572206973206e6f7420746865206f776e6572600082015250565b6000612656602083611c16565b915061266182612620565b602082019050919050565b6000602082019050818103600083015261268581612649565b9050919050565b7f4552433732313a206d696e7420746f20746865207a65726f2061646472657373600082015250565b60006126c2602083611c16565b91506126cd8261268c565b602082019050919050565b600060208201905081810360008301526126f1816126b5565b9050919050565b7f4552433732313a20746f6b656e20616c7265616479206d696e74656400000000600082015250565b600061272e601c83611c16565b9150612739826126f8565b602082019050919050565b6000602082019050818103600083015261275d81612721565b9050919050565b7f4552433732313a20617070726f766520746f2063616c6c657200000000000000600082015250565b600061279a601983611c16565b91506127a582612764565b602082019050919050565b600060208201905081810360008301526127c98161278d565b9050919050565b7f4552433732313a207472616e7366657220746f206e6f6e20455243373231526560008201527f63656976657220696d706c656d656e7465720000000000000000000000000000602082015250565b600061282c603283611c16565b9150612837826127d0565b604082019050919050565b6000602082019050818103600083015261285b8161281f565b9050919050565b7f4e487b7100000000000000000000000000000000000000000000000000000000600052601260045260246000fd5b600081519050919050565b600082825260208201905092915050565b60006128b882612891565b6128c2818561289c565b93506128d2818560208601611c27565b6128db81611c51565b840191505092915050565b60006080820190506128fb6000830187611d52565b6129086020830186611d52565b6129156040830185611e68565b818103606083015261292781846128ad565b905095945050505050565b60008151905061294181611b7c565b92915050565b60006020828403121561295d5761295c611b46565b5b600061296b84828501612932565b9150509291505056fea264697066735822122036b30756f6cdc45b23bc65e03629c66f2897e69c6d451153bbda6eb6b19847b164736f6c63430008120033",
  "immutableReferences": {},
  "source": "// SPDX-License-Identifier: GPL-3.0\n\npragma solidity >=0.7.0 <0.9.0;\n\nimport \"./Strongbox.sol\";\nimport \"./TaskNFT.sol\";\n\ncontract TrustExchange is Strongbox {\n\n    address private owner;\n    TaskNFT private taskNft;\n\n    constructor() {\n        owner = msg.sender;\n        taskNft = new TaskNFT();\n    }\n\n    event TaskStateChanged(address indexed sender, uint indexed taskAddr, TaskState newState);\n\n    enum TaskState {\n        CREATED_BY_REQUESTER,\n        DONE_BY_WORKER,\n        FINISH_BY_REQUESTER,\n        CANCELED,\n        REJECTED,\n        UNFINISHED   \n    }\n\n    struct Task {\n        uint taskAddr;\n        TaskState state;\n\n        address requester;\n        uint salary;\n        uint requesterProofOfTrust;\n        uint requesterMinimumTrustValueForWorker;\n\n        address worker;\n        uint workerProofOfTrust;       \n    }\n\n    modifier CurrentTask(uint taskAddr, TaskState state) {\n        require(tasks[taskAddr].state == state, \"Task is not at the correct state for this process\");\n        _;\n    }\n\n    mapping (uint => Task) public tasks;\n\n    function NFTaddress() public view returns (address) {\n        return address(taskNft);\n    }\n\n    function createTask(\n        uint _salary,\n        uint _requesterProofOfTrust,\n        uint _requesterMinimumTrustValueForWorker,\n        address _worker\n        ) public {\n            lock(msg.sender, _salary + _requesterProofOfTrust);\n\n            Task memory task;\n            task.state = TaskState.CREATED_BY_REQUESTER;\n            task.requester = msg.sender;\n            task.salary = _salary;\n            task.requesterProofOfTrust = _requesterProofOfTrust;\n            task.requesterMinimumTrustValueForWorker = _requesterMinimumTrustValueForWorker;\n            task.taskAddr = uint(keccak256(abi.encodePacked(_salary, _requesterProofOfTrust, _requesterMinimumTrustValueForWorker, msg.sender, block.timestamp)));\n\n            tasks[task.taskAddr] = task;\n            taskNft.mint(_worker, task.taskAddr);\n            \n            emit TaskStateChanged(msg.sender, task.taskAddr, task.state);\n    }\n\n    function doneTaskWithTrust(uint256 _taskAddr, uint _workerProofOfTrust) public CurrentTask(_taskAddr, TaskState.CREATED_BY_REQUESTER) {\n        Task storage task = tasks[_taskAddr];\n        require(task.requester != address(0x0));\n        require(task.requesterMinimumTrustValueForWorker <= _workerProofOfTrust);\n        require(taskNft.isApprovedOrOwner(msg.sender, _taskAddr));\n\n        lock(msg.sender, _workerProofOfTrust);\n\n        task.state = TaskState.DONE_BY_WORKER;\n        task.worker = msg.sender;\n        task.workerProofOfTrust = _workerProofOfTrust;\n        emit TaskStateChanged(msg.sender, task.taskAddr, task.state);\n    }\n\n    function doneTask(uint256 _taskAddr) public {\n        require(tasks[_taskAddr].worker == msg.sender, \"Sender is not worker of the task\");\n        require(tasks[_taskAddr].state == TaskState.REJECTED, \"Task is not at the correct state\");\n        tasks[_taskAddr].state = TaskState.DONE_BY_WORKER;\n        emit TaskStateChanged(msg.sender, _taskAddr, tasks[_taskAddr].state);\n    }\n\n    function finishTask(uint256 _taskAddr) public CurrentTask(_taskAddr, TaskState.DONE_BY_WORKER) {\n        require(tasks[_taskAddr].requester == msg.sender, \"Sender is not requester of the task\");\n\n        Task storage task = tasks[_taskAddr];\n        unlock(task.requester, task.salary + task.requesterProofOfTrust);\n        unlock(task.worker, task.workerProofOfTrust);\n        transfer(task.requester, task.worker, task.salary);\n        task.state = TaskState.FINISH_BY_REQUESTER;\n        taskNft.burn(task.taskAddr);\n        emit TaskStateChanged(msg.sender, task.taskAddr, task.state);\n    }\n\n    function cancelTask(uint256 _taskAddr) public {\n        Task storage task = tasks[_taskAddr];\n        if (task.state == TaskState.CREATED_BY_REQUESTER) {\n            require(msg.sender == task.requester, \"Task doesnt exists with the requested address\");    \n            _cancelTask(task);\n            emit TaskStateChanged(msg.sender, task.taskAddr, task.state);\n        } else {\n            revert(\"Task is not at the state CREATED\");\n        }\n    }\n\n    function _cancelTask(Task storage _task) private {\n        unlock(_task.requester, _task.salary + _task.requesterProofOfTrust);\n        _task.state = TaskState.CANCELED;\n        taskNft.burn(_task.taskAddr);\n    }\n\n    function rejectTask(uint256 _taskAddr) public CurrentTask(_taskAddr, TaskState.DONE_BY_WORKER) {\n        require(tasks[_taskAddr].requester == msg.sender, \"Sender is not requester of the task\");\n        Task storage task = tasks[_taskAddr];\n        task.state = TaskState.REJECTED;\n        emit TaskStateChanged(msg.sender, task.taskAddr, task.state);\n    }\n\n    function unFinishTask(uint256 _taskAddr) public {\n        Task storage task = tasks[_taskAddr];\n        require(task.state == TaskState.REJECTED || task.state == TaskState.DONE_BY_WORKER, \"Task is not at correct state\");\n        require(task.requester == msg.sender || task.worker == msg.sender, \"Caller has not premission to finish this task\");\n\n        uint repaymentRate = calcRepaymentRate(task);\n\n        uint requesterTaskLockedFund = task.salary + task.requesterProofOfTrust;\n        uint workerTaskLockedFund = task.workerProofOfTrust;\n\n        uint requesterBurnValue = requesterTaskLockedFund * repaymentRate / 100;\n        uint workerBurnValue = workerTaskLockedFund * repaymentRate / 100;\n\n        burn(task.requester, requesterBurnValue);\n        burn(task.worker, workerBurnValue);\n        unlock(task.requester, requesterTaskLockedFund - requesterBurnValue);\n        unlock(task.worker, workerTaskLockedFund - workerBurnValue);\n\n        task.state = TaskState.UNFINISHED;\n        taskNft.burn(task.taskAddr);\n        emit TaskStateChanged(msg.sender, task.taskAddr, task.state);\n    }\n\n    function calcRepaymentRate(Task memory task) internal pure returns (uint) {\n        return (((task.salary + (task.requesterProofOfTrust / 4)) * 100) / (task.salary + task.requesterProofOfTrust));\n    }\n\n}",
  "sourcePath": "/home/sepehr/blockchain/TrustDeal/contracts/TrustExchange.sol",
  "compiler": {
    "name": "solc",
    "version": "0.8.18+commit.87f61d96.Linux.g++"
  },
  "schemaVersion": "3.4.13",
  "updatedAt": "2023-06-06T11:11:06.863Z",
  "networkType": "ethereum",
  "devdoc": {
    "kind": "dev",
    "methods": {},
    "version": 1
  },
  "userdoc": {
    "kind": "user",
    "methods": {},
    "version": 1
  }
}