{
  "contractName": "TrustExchange",
  "abi": [
    {
      "anonymous": false,
      "inputs": [
        {
          "indexed": true,
          "internalType": "address",
          "name": "sender",
          "type": "address"
        },
        {
          "indexed": true,
          "internalType": "bytes32",
          "name": "taskAddr",
          "type": "bytes32"
        },
        {
          "indexed": false,
          "internalType": "enum TrustExchange.TaskState",
          "name": "newState",
          "type": "uint8"
        }
      ],
      "name": "TaskStateChanged",
      "type": "event"
    },
    {
      "inputs": [],
      "name": "deposit",
      "outputs": [],
      "stateMutability": "payable",
      "type": "function",
      "payable": true
    },
    {
      "inputs": [
        {
          "internalType": "address",
          "name": "",
          "type": "address"
        }
      ],
      "name": "ownerToFunds",
      "outputs": [
        {
          "internalType": "uint256",
          "name": "actual",
          "type": "uint256"
        },
        {
          "internalType": "uint256",
          "name": "locked",
          "type": "uint256"
        }
      ],
      "stateMutability": "view",
      "type": "function",
      "constant": true
    },
    {
      "inputs": [
        {
          "internalType": "bytes32",
          "name": "",
          "type": "bytes32"
        }
      ],
      "name": "tasks",
      "outputs": [
        {
          "internalType": "bytes32",
          "name": "taskAddr",
          "type": "bytes32"
        },
        {
          "internalType": "enum TrustExchange.TaskState",
          "name": "state",
          "type": "uint8"
        },
        {
          "internalType": "address",
          "name": "requester",
          "type": "address"
        },
        {
          "internalType": "uint256",
          "name": "salary",
          "type": "uint256"
        },
        {
          "internalType": "uint256",
          "name": "requesterProofOfTrust",
          "type": "uint256"
        },
        {
          "internalType": "uint256",
          "name": "requesterMinimumTrustValueForWorker",
          "type": "uint256"
        },
        {
          "internalType": "address",
          "name": "worker",
          "type": "address"
        },
        {
          "internalType": "uint256",
          "name": "workerProofOfTrust",
          "type": "uint256"
        }
      ],
      "stateMutability": "view",
      "type": "function",
      "constant": true
    },
    {
      "inputs": [
        {
          "internalType": "uint256",
          "name": "_amount",
          "type": "uint256"
        }
      ],
      "name": "withdraw",
      "outputs": [],
      "stateMutability": "nonpayable",
      "type": "function"
    },
    {
      "inputs": [
        {
          "internalType": "uint256",
          "name": "_salary",
          "type": "uint256"
        },
        {
          "internalType": "uint256",
          "name": "_requesterProofOfTrust",
          "type": "uint256"
        },
        {
          "internalType": "uint256",
          "name": "_requesterMinimumTrustValueForWorker",
          "type": "uint256"
        }
      ],
      "name": "createTask",
      "outputs": [],
      "stateMutability": "nonpayable",
      "type": "function"
    },
    {
      "inputs": [
        {
          "internalType": "bytes32",
          "name": "_taskAddr",
          "type": "bytes32"
        },
        {
          "internalType": "uint256",
          "name": "_workerProofOfTrust",
          "type": "uint256"
        }
      ],
      "name": "doneTaskWithTrust",
      "outputs": [],
      "stateMutability": "nonpayable",
      "type": "function"
    },
    {
      "inputs": [
        {
          "internalType": "bytes32",
          "name": "_taskAddr",
          "type": "bytes32"
        }
      ],
      "name": "doneTask",
      "outputs": [],
      "stateMutability": "nonpayable",
      "type": "function"
    },
    {
      "inputs": [
        {
          "internalType": "bytes32",
          "name": "_taskAddr",
          "type": "bytes32"
        }
      ],
      "name": "finishTask",
      "outputs": [],
      "stateMutability": "nonpayable",
      "type": "function"
    },
    {
      "inputs": [
        {
          "internalType": "bytes32",
          "name": "_taskAddr",
          "type": "bytes32"
        }
      ],
      "name": "cancelTask",
      "outputs": [],
      "stateMutability": "nonpayable",
      "type": "function"
    },
    {
      "inputs": [
        {
          "internalType": "bytes32",
          "name": "_taskAddr",
          "type": "bytes32"
        }
      ],
      "name": "rejectTask",
      "outputs": [],
      "stateMutability": "nonpayable",
      "type": "function"
    },
    {
      "inputs": [
        {
          "internalType": "bytes32",
          "name": "_taskAddr",
          "type": "bytes32"
        }
      ],
      "name": "unFinishTask",
      "outputs": [],
      "stateMutability": "nonpayable",
      "type": "function"
    }
  ],
  "bytecode": "0x608060405260008060006101000a81548173ffffffffffffffffffffffffffffffffffffffff021916908373ffffffffffffffffffffffffffffffffffffffff16021790555034801561005157600080fd5b50612b6e806100616000396000f3fe60806040526004361061009c5760003560e01c8063ab1b606f11610064578063ab1b606f1461016e578063c531062a14610197578063d0e30db0146101c0578063e579f500146101ca578063ee8ca3b51461020e578063efac5247146102375761009c565b806318faa5a2146100a15780632e1a7d4d146100ca5780634d0f9880146100f35780635dc5aec91461011c578063781d102a14610145575b600080fd5b3480156100ad57600080fd5b506100c860048036038101906100c39190611ee7565b610275565b005b3480156100d657600080fd5b506100f160048036038101906100ec9190611f4a565b610723565b005b3480156100ff57600080fd5b5061011a60048036038101906101159190611f77565b6108b1565b005b34801561012857600080fd5b50610143600480360381019061013e9190611fb7565b610ad4565b005b34801561015157600080fd5b5061016c60048036038101906101679190611ee7565b610d16565b005b34801561017a57600080fd5b5061019560048036038101906101909190611ee7565b610fbe565b005b3480156101a357600080fd5b506101be60048036038101906101b99190611ee7565b6111a0565b005b6101c861137e565b005b3480156101d657600080fd5b506101f160048036038101906101ec9190611ee7565b61141f565b6040516102059897969594939291906120e0565b60405180910390f35b34801561021a57600080fd5b5061023560048036038101906102309190611ee7565b6114b4565b005b34801561024357600080fd5b5061025e6004803603810190610259919061218a565b6117a4565b60405161026c9291906121b7565b60405180910390f35b6000600260008381526020019081526020016000209050600460058111156102a05761029f612019565b5b8160010160009054906101000a900460ff1660058111156102c4576102c3612019565b5b14806103055750600160058111156102df576102de612019565b5b8160010160009054906101000a900460ff16600581111561030357610302612019565b5b145b610344576040517f08c379a000000000000000000000000000000000000000000000000000000000815260040161033b9061223d565b60405180910390fd5b3373ffffffffffffffffffffffffffffffffffffffff168160010160019054906101000a900473ffffffffffffffffffffffffffffffffffffffff1673ffffffffffffffffffffffffffffffffffffffff1614806103f157503373ffffffffffffffffffffffffffffffffffffffff168160050160009054906101000a900473ffffffffffffffffffffffffffffffffffffffff1673ffffffffffffffffffffffffffffffffffffffff16145b610430576040517f08c379a0000000000000000000000000000000000000000000000000000000008152600401610427906122cf565b60405180910390fd5b60006105608260405180610100016040529081600082015481526020016001820160009054906101000a900460ff16600581111561047157610470612019565b5b600581111561048357610482612019565b5b81526020016001820160019054906101000a900473ffffffffffffffffffffffffffffffffffffffff1673ffffffffffffffffffffffffffffffffffffffff1673ffffffffffffffffffffffffffffffffffffffff1681526020016002820154815260200160038201548152602001600482015481526020016005820160009054906101000a900473ffffffffffffffffffffffffffffffffffffffff1673ffffffffffffffffffffffffffffffffffffffff1673ffffffffffffffffffffffffffffffffffffffff1681526020016006820154815250506117c8565b9050600082600301548360020154610578919061231e565b90506000836006015490506000606484846105939190612352565b61059d91906123c3565b90506000606485846105af9190612352565b6105b991906123c3565b90506105e98660010160019054906101000a900473ffffffffffffffffffffffffffffffffffffffff168361181b565b6106178660050160009054906101000a900473ffffffffffffffffffffffffffffffffffffffff168261181b565b6106508660010160019054906101000a900473ffffffffffffffffffffffffffffffffffffffff16838661064b91906123f4565b6119d1565b6106898660050160009054906101000a900473ffffffffffffffffffffffffffffffffffffffff16828561068491906123f4565b6119d1565b60058660010160006101000a81548160ff021916908360058111156106b1576106b0612019565b5b021790555085600001543373ffffffffffffffffffffffffffffffffffffffff167f9aef3be90d711f7754bc249cb377e6b789e3f2e862a22e5f04b3f71fcca9657c8860010160009054906101000a900460ff166040516107129190612428565b60405180910390a350505050505050565b80600160003373ffffffffffffffffffffffffffffffffffffffff1673ffffffffffffffffffffffffffffffffffffffff1681526020019081526020016000206000015410156107a8576040517f08c379a000000000000000000000000000000000000000000000000000000000815260040161079f906124b5565b60405180910390fd5b80600160003373ffffffffffffffffffffffffffffffffffffffff1673ffffffffffffffffffffffffffffffffffffffff16815260200190815260200160002060000160008282546107fa91906123f4565b9250508190555060003373ffffffffffffffffffffffffffffffffffffffff168260405161082790612506565b60006040518083038185875af1925050503d8060008114610864576040519150601f19603f3d011682016040523d82523d6000602084013e610869565b606091505b50509050806108ad576040517f08c379a00000000000000000000000000000000000000000000000000000000081526004016108a490612567565b60405180910390fd5b5050565b8160008060058111156108c7576108c6612019565b5b6002600084815260200190815260200160002060010160009054906101000a900460ff1660058111156108fd576108fc612019565b5b1461093d576040517f08c379a0000000000000000000000000000000000000000000000000000000008152600401610934906125f9565b60405180910390fd5b600073ffffffffffffffffffffffffffffffffffffffff166002600086815260200190815260200160002060010160019054906101000a900473ffffffffffffffffffffffffffffffffffffffff1673ffffffffffffffffffffffffffffffffffffffff16036109ac57600080fd5b82600260008681526020019081526020016000206004015411156109cf57600080fd5b6109d93384611b0c565b600060026000868152602001908152602001600020905060018160010160006101000a81548160ff02191690836005811115610a1857610a17612019565b5b0217905550338160050160006101000a81548173ffffffffffffffffffffffffffffffffffffffff021916908373ffffffffffffffffffffffffffffffffffffffff16021790555083816006018190555080600001543373ffffffffffffffffffffffffffffffffffffffff167f9aef3be90d711f7754bc249cb377e6b789e3f2e862a22e5f04b3f71fcca9657c8360010160009054906101000a900460ff16604051610ac59190612428565b60405180910390a35050505050565b610ae9338385610ae4919061231e565b611b0c565b610af1611e26565b600081602001906005811115610b0a57610b09612019565b5b90816005811115610b1e57610b1d612019565b5b8152505033816040019073ffffffffffffffffffffffffffffffffffffffff16908173ffffffffffffffffffffffffffffffffffffffff16815250508381606001818152505082816080018181525050818160a001818152505083838342604051602001610b8f949392919061263a565b604051602081830303815290604052805190602001208160000181815250508060026000836000015181526020019081526020016000206000820151816000015560208201518160010160006101000a81548160ff02191690836005811115610bfb57610bfa612019565b5b021790555060408201518160010160016101000a81548173ffffffffffffffffffffffffffffffffffffffff021916908373ffffffffffffffffffffffffffffffffffffffff160217905550606082015181600201556080820151816003015560a0820151816004015560c08201518160050160006101000a81548173ffffffffffffffffffffffffffffffffffffffff021916908373ffffffffffffffffffffffffffffffffffffffff16021790555060e0820151816006015590505080600001513373ffffffffffffffffffffffffffffffffffffffff167f9aef3be90d711f7754bc249cb377e6b789e3f2e862a22e5f04b3f71fcca9657c8360200151604051610d089190612428565b60405180910390a350505050565b806001806005811115610d2c57610d2b612019565b5b6002600084815260200190815260200160002060010160009054906101000a900460ff166005811115610d6257610d61612019565b5b14610da2576040517f08c379a0000000000000000000000000000000000000000000000000000000008152600401610d99906125f9565b60405180910390fd5b3373ffffffffffffffffffffffffffffffffffffffff166002600085815260200190815260200160002060010160019054906101000a900473ffffffffffffffffffffffffffffffffffffffff1673ffffffffffffffffffffffffffffffffffffffff1614610e46576040517f08c379a0000000000000000000000000000000000000000000000000000000008152600401610e3d906126fa565b60405180910390fd5b6000600260008581526020019081526020016000209050610e9e8160010160019054906101000a900473ffffffffffffffffffffffffffffffffffffffff1682600301548360020154610e99919061231e565b6119d1565b610ed08160050160009054906101000a900473ffffffffffffffffffffffffffffffffffffffff1682600601546119d1565b610f278160010160019054906101000a900473ffffffffffffffffffffffffffffffffffffffff168260050160009054906101000a900473ffffffffffffffffffffffffffffffffffffffff168360020154611c47565b60028160010160006101000a81548160ff02191690836005811115610f4f57610f4e612019565b5b021790555080600001543373ffffffffffffffffffffffffffffffffffffffff167f9aef3be90d711f7754bc249cb377e6b789e3f2e862a22e5f04b3f71fcca9657c8360010160009054906101000a900460ff16604051610fb09190612428565b60405180910390a350505050565b3373ffffffffffffffffffffffffffffffffffffffff166002600083815260200190815260200160002060050160009054906101000a900473ffffffffffffffffffffffffffffffffffffffff1673ffffffffffffffffffffffffffffffffffffffff1614611062576040517f08c379a000000000000000000000000000000000000000000000000000000000815260040161105990612766565b60405180910390fd5b6004600581111561107657611075612019565b5b6002600083815260200190815260200160002060010160009054906101000a900460ff1660058111156110ac576110ab612019565b5b146110ec576040517f08c379a00000000000000000000000000000000000000000000000000000000081526004016110e3906127d2565b60405180910390fd5b60016002600083815260200190815260200160002060010160006101000a81548160ff0219169083600581111561112657611125612019565b5b0217905550803373ffffffffffffffffffffffffffffffffffffffff167f9aef3be90d711f7754bc249cb377e6b789e3f2e862a22e5f04b3f71fcca9657c6002600085815260200190815260200160002060010160009054906101000a900460ff166040516111959190612428565b60405180910390a350565b8060018060058111156111b6576111b5612019565b5b6002600084815260200190815260200160002060010160009054906101000a900460ff1660058111156111ec576111eb612019565b5b1461122c576040517f08c379a0000000000000000000000000000000000000000000000000000000008152600401611223906125f9565b60405180910390fd5b3373ffffffffffffffffffffffffffffffffffffffff166002600085815260200190815260200160002060010160019054906101000a900473ffffffffffffffffffffffffffffffffffffffff1673ffffffffffffffffffffffffffffffffffffffff16146112d0576040517f08c379a00000000000000000000000000000000000000000000000000000000081526004016112c7906126fa565b60405180910390fd5b600060026000858152602001908152602001600020905060048160010160006101000a81548160ff0219169083600581111561130f5761130e612019565b5b021790555080600001543373ffffffffffffffffffffffffffffffffffffffff167f9aef3be90d711f7754bc249cb377e6b789e3f2e862a22e5f04b3f71fcca9657c8360010160009054906101000a900460ff166040516113709190612428565b60405180910390a350505050565b633b9aca0034116113c4576040517f08c379a00000000000000000000000000000000000000000000000000000000081526004016113bb9061283e565b60405180910390fd5b34600160003373ffffffffffffffffffffffffffffffffffffffff1673ffffffffffffffffffffffffffffffffffffffff1681526020019081526020016000206000016000828254611416919061231e565b92505081905550565b60026020528060005260406000206000915090508060000154908060010160009054906101000a900460ff16908060010160019054906101000a900473ffffffffffffffffffffffffffffffffffffffff16908060020154908060030154908060040154908060050160009054906101000a900473ffffffffffffffffffffffffffffffffffffffff16908060060154905088565b6000600260008381526020019081526020016000209050600060058111156114df576114de612019565b5b8160010160009054906101000a900460ff16600581111561150357611502612019565b5b0361159f578060010160019054906101000a900473ffffffffffffffffffffffffffffffffffffffff1673ffffffffffffffffffffffffffffffffffffffff163373ffffffffffffffffffffffffffffffffffffffff161461159a576040517f08c379a0000000000000000000000000000000000000000000000000000000008152600401611591906128d0565b60405180910390fd5b611670565b600160058111156115b3576115b2612019565b5b8160010160009054906101000a900460ff1660058111156115d7576115d6612019565b5b0361166f578060050160009054906101000a900473ffffffffffffffffffffffffffffffffffffffff1673ffffffffffffffffffffffffffffffffffffffff163373ffffffffffffffffffffffffffffffffffffffff161461166e576040517f08c379a000000000000000000000000000000000000000000000000000000000815260040161166590612962565b60405180910390fd5b5b5b6002600581111561168457611683612019565b5b8160010160009054906101000a900460ff1660058111156116a8576116a7612019565b5b141580156116ec5750600360058111156116c5576116c4612019565b5b8160010160009054906101000a900460ff1660058111156116e9576116e8612019565b5b14155b801561172d575060058081111561170657611705612019565b5b8160010160009054906101000a900460ff16600581111561172a57611729612019565b5b14155b156117a05761173b81611d83565b80600001543373ffffffffffffffffffffffffffffffffffffffff167f9aef3be90d711f7754bc249cb377e6b789e3f2e862a22e5f04b3f71fcca9657c8360010160009054906101000a900460ff166040516117979190612428565b60405180910390a35b5050565b60016020528060005260406000206000915090508060000154908060010154905082565b6000816080015182606001516117de919061231e565b6064600484608001516117f191906123c3565b8460600151611800919061231e565b61180a9190612352565b61181491906123c3565b9050919050565b80600160008473ffffffffffffffffffffffffffffffffffffffff1673ffffffffffffffffffffffffffffffffffffffff1681526020019081526020016000206001015410156118a0576040517f08c379a0000000000000000000000000000000000000000000000000000000008152600401611897906129f4565b60405180910390fd5b60008060009054906101000a900473ffffffffffffffffffffffffffffffffffffffff1673ffffffffffffffffffffffffffffffffffffffff16826040516118e790612506565b60006040518083038185875af1925050503d8060008114611924576040519150601f19603f3d011682016040523d82523d6000602084013e611929565b606091505b5050905080156119915781600160008573ffffffffffffffffffffffffffffffffffffffff1673ffffffffffffffffffffffffffffffffffffffff168152602001908152602001600020600101600082825461198591906123f4565b925050819055506119cc565b6040517f08c379a00000000000000000000000000000000000000000000000000000000081526004016119c390612567565b60405180910390fd5b505050565b80600160008473ffffffffffffffffffffffffffffffffffffffff1673ffffffffffffffffffffffffffffffffffffffff168152602001908152602001600020600101541015611a56576040517f08c379a0000000000000000000000000000000000000000000000000000000008152600401611a4d906129f4565b60405180910390fd5b80600160008473ffffffffffffffffffffffffffffffffffffffff1673ffffffffffffffffffffffffffffffffffffffff1681526020019081526020016000206000016000828254611aa8919061231e565b9250508190555080600160008473ffffffffffffffffffffffffffffffffffffffff1673ffffffffffffffffffffffffffffffffffffffff1681526020019081526020016000206001016000828254611b0191906123f4565b925050819055505050565b80600160008473ffffffffffffffffffffffffffffffffffffffff1673ffffffffffffffffffffffffffffffffffffffff168152602001908152602001600020600001541015611b91576040517f08c379a0000000000000000000000000000000000000000000000000000000008152600401611b8890612a86565b60405180910390fd5b80600160008473ffffffffffffffffffffffffffffffffffffffff1673ffffffffffffffffffffffffffffffffffffffff1681526020019081526020016000206000016000828254611be391906123f4565b9250508190555080600160008473ffffffffffffffffffffffffffffffffffffffff1673ffffffffffffffffffffffffffffffffffffffff1681526020019081526020016000206001016000828254611c3c919061231e565b925050819055505050565b80600160008573ffffffffffffffffffffffffffffffffffffffff1673ffffffffffffffffffffffffffffffffffffffff168152602001908152602001600020600001541015611ccc576040517f08c379a0000000000000000000000000000000000000000000000000000000008152600401611cc390612b18565b60405180910390fd5b80600160008573ffffffffffffffffffffffffffffffffffffffff1673ffffffffffffffffffffffffffffffffffffffff1681526020019081526020016000206000016000828254611d1e91906123f4565b9250508190555080600160008473ffffffffffffffffffffffffffffffffffffffff1673ffffffffffffffffffffffffffffffffffffffff1681526020019081526020016000206000016000828254611d77919061231e565b92505081905550505050565b611dc48160010160019054906101000a900473ffffffffffffffffffffffffffffffffffffffff1682600301548360020154611dbf919061231e565b6119d1565b611df68160050160009054906101000a900473ffffffffffffffffffffffffffffffffffffffff1682600601546119d1565b60038160010160006101000a81548160ff02191690836005811115611e1e57611e1d612019565b5b021790555050565b6040518061010001604052806000801916815260200160006005811115611e5057611e4f612019565b5b8152602001600073ffffffffffffffffffffffffffffffffffffffff168152602001600081526020016000815260200160008152602001600073ffffffffffffffffffffffffffffffffffffffff168152602001600081525090565b600080fd5b6000819050919050565b611ec481611eb1565b8114611ecf57600080fd5b50565b600081359050611ee181611ebb565b92915050565b600060208284031215611efd57611efc611eac565b5b6000611f0b84828501611ed2565b91505092915050565b6000819050919050565b611f2781611f14565b8114611f3257600080fd5b50565b600081359050611f4481611f1e565b92915050565b600060208284031215611f6057611f5f611eac565b5b6000611f6e84828501611f35565b91505092915050565b60008060408385031215611f8e57611f8d611eac565b5b6000611f9c85828601611ed2565b9250506020611fad85828601611f35565b9150509250929050565b600080600060608486031215611fd057611fcf611eac565b5b6000611fde86828701611f35565b9350506020611fef86828701611f35565b925050604061200086828701611f35565b9150509250925092565b61201381611eb1565b82525050565b7f4e487b7100000000000000000000000000000000000000000000000000000000600052602160045260246000fd5b6006811061205957612058612019565b5b50565b600081905061206a82612048565b919050565b600061207a8261205c565b9050919050565b61208a8161206f565b82525050565b600073ffffffffffffffffffffffffffffffffffffffff82169050919050565b60006120bb82612090565b9050919050565b6120cb816120b0565b82525050565b6120da81611f14565b82525050565b6000610100820190506120f6600083018b61200a565b612103602083018a612081565b61211060408301896120c2565b61211d60608301886120d1565b61212a60808301876120d1565b61213760a08301866120d1565b61214460c08301856120c2565b61215160e08301846120d1565b9998505050505050505050565b612167816120b0565b811461217257600080fd5b50565b6000813590506121848161215e565b92915050565b6000602082840312156121a05761219f611eac565b5b60006121ae84828501612175565b91505092915050565b60006040820190506121cc60008301856120d1565b6121d960208301846120d1565b9392505050565b600082825260208201905092915050565b7f5461736b206973206e6f7420617420636f727265637420737461746500000000600082015250565b6000612227601c836121e0565b9150612232826121f1565b602082019050919050565b600060208201905081810360008301526122568161221a565b9050919050565b7f43616c6c657220686173206e6f74207072656d697373696f6e20746f2066696e60008201527f6973682074686973207461736b00000000000000000000000000000000000000602082015250565b60006122b9602d836121e0565b91506122c48261225d565b604082019050919050565b600060208201905081810360008301526122e8816122ac565b9050919050565b7f4e487b7100000000000000000000000000000000000000000000000000000000600052601160045260246000fd5b600061232982611f14565b915061233483611f14565b925082820190508082111561234c5761234b6122ef565b5b92915050565b600061235d82611f14565b915061236883611f14565b925082820261237681611f14565b9150828204841483151761238d5761238c6122ef565b5b5092915050565b7f4e487b7100000000000000000000000000000000000000000000000000000000600052601260045260246000fd5b60006123ce82611f14565b91506123d983611f14565b9250826123e9576123e8612394565b5b828204905092915050565b60006123ff82611f14565b915061240a83611f14565b9250828203905081811115612422576124216122ef565b5b92915050565b600060208201905061243d6000830184612081565b92915050565b7f5468657265206973206e6f20656e6f7567682066756e6420666f72207468652060008201527f63757272656e74206163636f756e740000000000000000000000000000000000602082015250565b600061249f602f836121e0565b91506124aa82612443565b604082019050919050565b600060208201905081810360008301526124ce81612492565b9050919050565b600081905092915050565b50565b60006124f06000836124d5565b91506124fb826124e0565b600082019050919050565b6000612511826124e3565b9150819050919050565b7f5472616e73666572206661696c65640000000000000000000000000000000000600082015250565b6000612551600f836121e0565b915061255c8261251b565b602082019050919050565b6000602082019050818103600083015261258081612544565b9050919050565b7f5461736b206973206e6f742061742074686520636f727265637420737461746560008201527f20666f7220746869732070726f63657373000000000000000000000000000000602082015250565b60006125e36031836121e0565b91506125ee82612587565b604082019050919050565b60006020820190508181036000830152612612816125d6565b9050919050565b6000819050919050565b61263461262f82611f14565b612619565b82525050565b60006126468287612623565b6020820191506126568286612623565b6020820191506126668285612623565b6020820191506126768284612623565b60208201915081905095945050505050565b7f53656e646572206973206e6f7420726571756573746572206f6620746865207460008201527f61736b0000000000000000000000000000000000000000000000000000000000602082015250565b60006126e46023836121e0565b91506126ef82612688565b604082019050919050565b60006020820190508181036000830152612713816126d7565b9050919050565b7f53656e646572206973206e6f7420776f726b6572206f6620746865207461736b600082015250565b60006127506020836121e0565b915061275b8261271a565b602082019050919050565b6000602082019050818103600083015261277f81612743565b9050919050565b7f5461736b206973206e6f742061742074686520636f7272656374207374617465600082015250565b60006127bc6020836121e0565b91506127c782612786565b602082019050919050565b600060208201905081810360008301526127eb816127af565b9050919050565b7f4d696e696d756d206465706f7369742076616c75652069732031204757454900600082015250565b6000612828601f836121e0565b9150612833826127f2565b602082019050919050565b600060208201905081810360008301526128578161281b565b9050919050565b7f5461736b20646f65736e7420657869737473207769746820746865207265717560008201527f6573746564206164647265737300000000000000000000000000000000000000602082015250565b60006128ba602d836121e0565b91506128c58261285e565b604082019050919050565b600060208201905081810360008301526128e9816128ad565b9050919050565b7f53656e64657220646f65736e742068617665207072656d697373696f6e20746f60008201527f2063616e63656c2074686973207461736b000000000000000000000000000000602082015250565b600061294c6031836121e0565b9150612957826128f0565b604082019050919050565b6000602082019050818103600083015261297b8161293f565b9050919050565b7f416d6f756e7420697320626967676572207468616e206c6f636b65642066756e60008201527f647320666f722074686973206f776e6572000000000000000000000000000000602082015250565b60006129de6031836121e0565b91506129e982612982565b604082019050919050565b60006020820190508181036000830152612a0d816129d1565b9050919050565b7f5468657265206973206e6f20656e6f7567682061637475616c2066756e64206660008201527f6f722074686973206f776e657200000000000000000000000000000000000000602082015250565b6000612a70602d836121e0565b9150612a7b82612a14565b604082019050919050565b60006020820190508181036000830152612a9f81612a63565b9050919050565b7f5468657265206973206e6f20656e6f7567682061637475616c2066756e64732060008201527f666f72207468652073656e646572000000000000000000000000000000000000602082015250565b6000612b02602e836121e0565b9150612b0d82612aa6565b604082019050919050565b60006020820190508181036000830152612b3181612af5565b905091905056fea2646970667358221220ca9307343f6d8314a43ea724b6e7e65cc9be076de614166d8afab60c994d53e364736f6c63430008120033",
  "immutableReferences": {},
  "source": "// SPDX-License-Identifier: GPL-3.0\n\npragma solidity >=0.7.0 <0.9.0;\n\nimport \"./Strongbox.sol\";\n\ncontract TrustExchange is Strongbox {\n\n    event TaskStateChanged(address indexed sender, bytes32 indexed taskAddr, TaskState newState);\n\n    enum TaskState {\n        CREATED_BY_REQUESTER,\n        DONE_BY_WORKER,\n        FINISH_BY_REQUESTER,\n        CANCELED,\n        REJECTED,\n        UNFINISHED   \n    }\n\n    struct Task {\n        bytes32 taskAddr;\n        TaskState state;\n\n        address requester;\n        uint salary;\n        uint requesterProofOfTrust;\n        uint requesterMinimumTrustValueForWorker;\n\n        address worker;\n        uint workerProofOfTrust;       \n    }\n\n    modifier CurrentTask(bytes32 taskAddr, TaskState state) {\n        require(tasks[taskAddr].state == state, \"Task is not at the correct state for this process\");\n        _;\n    }\n\n    mapping (bytes32 => Task) public tasks;\n\n    function createTask(\n        uint _salary,\n        uint _requesterProofOfTrust,\n        uint _requesterMinimumTrustValueForWorker\n        ) public {\n            lock(msg.sender, _salary + _requesterProofOfTrust);\n\n            Task memory task;\n            task.state = TaskState.CREATED_BY_REQUESTER;\n            task.requester = msg.sender;\n            task.salary = _salary;\n            task.requesterProofOfTrust = _requesterProofOfTrust;\n            task.requesterMinimumTrustValueForWorker = _requesterMinimumTrustValueForWorker;\n            task.taskAddr = keccak256(abi.encodePacked(_salary, _requesterProofOfTrust, _requesterMinimumTrustValueForWorker, block.timestamp));\n\n            tasks[task.taskAddr] = task;\n            emit TaskStateChanged(msg.sender, task.taskAddr, task.state);\n    }\n\n    function doneTaskWithTrust(bytes32 _taskAddr, uint _workerProofOfTrust) public CurrentTask(_taskAddr, TaskState.CREATED_BY_REQUESTER) {\n        require(tasks[_taskAddr].requester != address(0x0));\n        require(tasks[_taskAddr].requesterMinimumTrustValueForWorker <= _workerProofOfTrust);\n        lock(msg.sender, _workerProofOfTrust);\n\n        Task storage task = tasks[_taskAddr];\n        task.state = TaskState.DONE_BY_WORKER;\n        task.worker = msg.sender;\n        task.workerProofOfTrust = _workerProofOfTrust;\n        emit TaskStateChanged(msg.sender, task.taskAddr, task.state);\n    }\n\n    function doneTask(bytes32 _taskAddr) public {\n        require(tasks[_taskAddr].worker == msg.sender, \"Sender is not worker of the task\");\n        require(tasks[_taskAddr].state == TaskState.REJECTED, \"Task is not at the correct state\");\n        tasks[_taskAddr].state = TaskState.DONE_BY_WORKER;\n        emit TaskStateChanged(msg.sender, _taskAddr, tasks[_taskAddr].state);\n    }\n\n    function finishTask(bytes32 _taskAddr) public CurrentTask(_taskAddr, TaskState.DONE_BY_WORKER) {\n        require(tasks[_taskAddr].requester == msg.sender, \"Sender is not requester of the task\");\n\n        Task storage task = tasks[_taskAddr];\n        unlock(task.requester, task.salary + task.requesterProofOfTrust);\n        unlock(task.worker, task.workerProofOfTrust);\n        transfer(task.requester, task.worker, task.salary);\n        task.state = TaskState.FINISH_BY_REQUESTER;\n        emit TaskStateChanged(msg.sender, task.taskAddr, task.state);\n    }\n\n    function cancelTask(bytes32 _taskAddr) public {\n        Task storage task = tasks[_taskAddr];\n        if (task.state == TaskState.CREATED_BY_REQUESTER) {\n            require(msg.sender == task.requester, \"Task doesnt exists with the requested address\");    \n        } else if (task.state == TaskState.DONE_BY_WORKER) {\n            require(msg.sender == task.worker, \"Sender doesnt have premission to cancel this task\");\n        }\n        \n        if (task.state != TaskState.FINISH_BY_REQUESTER && \n            task.state != TaskState.CANCELED &&\n            task.state != TaskState.UNFINISHED) {\n            _cancelTask(task);\n            emit TaskStateChanged(msg.sender, task.taskAddr, task.state);\n        }\n    }\n\n    function _cancelTask(Task storage _task) private {\n        unlock(_task.requester, _task.salary + _task.requesterProofOfTrust);\n        unlock(_task.worker, _task.workerProofOfTrust);\n        _task.state = TaskState.CANCELED;\n    }\n\n    function rejectTask(bytes32 _taskAddr) public CurrentTask(_taskAddr, TaskState.DONE_BY_WORKER) {\n        require(tasks[_taskAddr].requester == msg.sender, \"Sender is not requester of the task\");\n        Task storage task = tasks[_taskAddr];\n        task.state = TaskState.REJECTED;\n        emit TaskStateChanged(msg.sender, task.taskAddr, task.state);\n    }\n\n    function unFinishTask(bytes32 _taskAddr) public {\n        Task storage task = tasks[_taskAddr];\n        require(task.state == TaskState.REJECTED || task.state == TaskState.DONE_BY_WORKER, \"Task is not at correct state\");\n        require(task.requester == msg.sender || task.worker == msg.sender, \"Caller has not premission to finish this task\");\n\n        uint repaymentRate = calcRepaymentRate(task);\n\n        uint requesterTaskLockedFund = task.salary + task.requesterProofOfTrust;\n        uint workerTaskLockedFund = task.workerProofOfTrust;\n\n        uint requesterBurnValue = requesterTaskLockedFund * repaymentRate / 100;\n        uint workerBurnValue = workerTaskLockedFund * repaymentRate / 100;\n\n        burn(task.requester, requesterBurnValue);\n        burn(task.worker, workerBurnValue);\n        unlock(task.requester, requesterTaskLockedFund - requesterBurnValue);\n        unlock(task.worker, workerTaskLockedFund - workerBurnValue);\n\n        task.state = TaskState.UNFINISHED;\n        emit TaskStateChanged(msg.sender, task.taskAddr, task.state);\n    }\n\n    function calcRepaymentRate(Task memory task) internal pure returns (uint) {\n        return (((task.salary + (task.requesterProofOfTrust / 4)) * 100) / (task.salary + task.requesterProofOfTrust));\n    }\n\n}",
  "sourcePath": "/home/sepehr/blockchain/TrustDeal/contracts/TrustExchange.sol",
  "compiler": {
    "name": "solc",
    "version": "0.8.18+commit.87f61d96.Linux.g++"
  },
  "schemaVersion": "3.4.13",
  "updatedAt": "2023-06-01T19:33:55.345Z",
  "networkType": "ethereum",
  "devdoc": {
    "kind": "dev",
    "methods": {},
    "version": 1
  },
  "userdoc": {
    "kind": "user",
    "methods": {},
    "version": 1
  }
}