{
  "contractName": "TrustExchange",
  "abi": [
    {
      "anonymous": false,
      "inputs": [
        {
          "indexed": true,
          "internalType": "address",
          "name": "sender",
          "type": "address"
        },
        {
          "indexed": true,
          "internalType": "bytes32",
          "name": "taskAddr",
          "type": "bytes32"
        },
        {
          "indexed": false,
          "internalType": "enum TrustExchange.TaskState",
          "name": "newState",
          "type": "uint8"
        }
      ],
      "name": "TaskStateChanged",
      "type": "event"
    },
    {
      "inputs": [],
      "name": "deposit",
      "outputs": [],
      "stateMutability": "payable",
      "type": "function"
    },
    {
      "inputs": [
        {
          "internalType": "address",
          "name": "",
          "type": "address"
        }
      ],
      "name": "ownerToFunds",
      "outputs": [
        {
          "internalType": "uint256",
          "name": "actual",
          "type": "uint256"
        },
        {
          "internalType": "uint256",
          "name": "locked",
          "type": "uint256"
        }
      ],
      "stateMutability": "view",
      "type": "function"
    },
    {
      "inputs": [
        {
          "internalType": "bytes32",
          "name": "",
          "type": "bytes32"
        }
      ],
      "name": "tasks",
      "outputs": [
        {
          "internalType": "bytes32",
          "name": "taskAddr",
          "type": "bytes32"
        },
        {
          "internalType": "enum TrustExchange.TaskState",
          "name": "state",
          "type": "uint8"
        },
        {
          "internalType": "address",
          "name": "requester",
          "type": "address"
        },
        {
          "internalType": "uint256",
          "name": "salary",
          "type": "uint256"
        },
        {
          "internalType": "uint256",
          "name": "requesterProofOfTrust",
          "type": "uint256"
        },
        {
          "internalType": "uint256",
          "name": "requesterMinimumTrustValueForWorker",
          "type": "uint256"
        },
        {
          "internalType": "address",
          "name": "worker",
          "type": "address"
        },
        {
          "internalType": "uint256",
          "name": "workerProofOfTrust",
          "type": "uint256"
        }
      ],
      "stateMutability": "view",
      "type": "function"
    },
    {
      "inputs": [
        {
          "internalType": "uint256",
          "name": "_amount",
          "type": "uint256"
        }
      ],
      "name": "withdraw",
      "outputs": [],
      "stateMutability": "nonpayable",
      "type": "function"
    },
    {
      "inputs": [
        {
          "internalType": "uint256",
          "name": "_salary",
          "type": "uint256"
        },
        {
          "internalType": "uint256",
          "name": "_requesterProofOfTrust",
          "type": "uint256"
        },
        {
          "internalType": "uint256",
          "name": "_requesterMinimumTrustValueForWorker",
          "type": "uint256"
        }
      ],
      "name": "createTask",
      "outputs": [],
      "stateMutability": "nonpayable",
      "type": "function"
    },
    {
      "inputs": [
        {
          "internalType": "bytes32",
          "name": "_taskAddr",
          "type": "bytes32"
        },
        {
          "internalType": "uint256",
          "name": "_workerProofOfTrust",
          "type": "uint256"
        }
      ],
      "name": "acceptTask",
      "outputs": [],
      "stateMutability": "nonpayable",
      "type": "function"
    },
    {
      "inputs": [
        {
          "internalType": "bytes32",
          "name": "_taskAddr",
          "type": "bytes32"
        }
      ],
      "name": "doneTask",
      "outputs": [],
      "stateMutability": "nonpayable",
      "type": "function"
    },
    {
      "inputs": [
        {
          "internalType": "bytes32",
          "name": "_taskAddr",
          "type": "bytes32"
        }
      ],
      "name": "finishTask",
      "outputs": [],
      "stateMutability": "nonpayable",
      "type": "function"
    },
    {
      "inputs": [
        {
          "internalType": "bytes32",
          "name": "_taskAddr",
          "type": "bytes32"
        }
      ],
      "name": "cancelTask",
      "outputs": [],
      "stateMutability": "nonpayable",
      "type": "function"
    },
    {
      "inputs": [
        {
          "internalType": "bytes32",
          "name": "_taskAddr",
          "type": "bytes32"
        }
      ],
      "name": "rejectTask",
      "outputs": [],
      "stateMutability": "nonpayable",
      "type": "function"
    },
    {
      "inputs": [
        {
          "internalType": "bytes32",
          "name": "_taskAddr",
          "type": "bytes32"
        }
      ],
      "name": "unFinishTask",
      "outputs": [],
      "stateMutability": "nonpayable",
      "type": "function"
    }
  ],
  "bytecode": "0x608060405260008060006101000a81548173ffffffffffffffffffffffffffffffffffffffff021916908373ffffffffffffffffffffffffffffffffffffffff16021790555034801561005157600080fd5b50612cb9806100616000396000f3fe60806040526004361061009c5760003560e01c8063ab1b606f11610064578063ab1b606f1461016e578063c531062a14610197578063d0e30db0146101c0578063e579f500146101ca578063ee8ca3b51461020e578063efac5247146102375761009c565b806318faa5a2146100a15780632e1a7d4d146100ca5780635dc5aec9146100f3578063781d102a1461011c5780637d2b33ee14610145575b600080fd5b3480156100ad57600080fd5b506100c860048036038101906100c39190612032565b610275565b005b3480156100d657600080fd5b506100f160048036038101906100ec9190612095565b610723565b005b3480156100ff57600080fd5b5061011a600480360381019061011591906120c2565b6108b1565b005b34801561012857600080fd5b50610143600480360381019061013e9190612032565b610af3565b005b34801561015157600080fd5b5061016c60048036038101906101679190612115565b610d9b565b005b34801561017a57600080fd5b5061019560048036038101906101909190612032565b610fbe565b005b3480156101a357600080fd5b506101be60048036038101906101b99190612032565b6111f1565b005b6101c86113cf565b005b3480156101d657600080fd5b506101f160048036038101906101ec9190612032565b611470565b60405161020598979695949392919061222b565b60405180910390f35b34801561021a57600080fd5b5061023560048036038101906102309190612032565b611505565b005b34801561024357600080fd5b5061025e600480360381019061025991906122d5565b6118e3565b60405161026c929190612302565b60405180910390f35b6000600260008381526020019081526020016000209050600560068111156102a05761029f612164565b5b8160010160009054906101000a900460ff1660068111156102c4576102c3612164565b5b14806103055750600260068111156102df576102de612164565b5b8160010160009054906101000a900460ff16600681111561030357610302612164565b5b145b610344576040517f08c379a000000000000000000000000000000000000000000000000000000000815260040161033b90612388565b60405180910390fd5b3373ffffffffffffffffffffffffffffffffffffffff168160010160019054906101000a900473ffffffffffffffffffffffffffffffffffffffff1673ffffffffffffffffffffffffffffffffffffffff1614806103f157503373ffffffffffffffffffffffffffffffffffffffff168160050160009054906101000a900473ffffffffffffffffffffffffffffffffffffffff1673ffffffffffffffffffffffffffffffffffffffff16145b610430576040517f08c379a00000000000000000000000000000000000000000000000000000000081526004016104279061241a565b60405180910390fd5b60006105608260405180610100016040529081600082015481526020016001820160009054906101000a900460ff16600681111561047157610470612164565b5b600681111561048357610482612164565b5b81526020016001820160019054906101000a900473ffffffffffffffffffffffffffffffffffffffff1673ffffffffffffffffffffffffffffffffffffffff1673ffffffffffffffffffffffffffffffffffffffff1681526020016002820154815260200160038201548152602001600482015481526020016005820160009054906101000a900473ffffffffffffffffffffffffffffffffffffffff1673ffffffffffffffffffffffffffffffffffffffff1673ffffffffffffffffffffffffffffffffffffffff168152602001600682015481525050611907565b90506000826003015483600201546105789190612469565b9050600083600601549050600060648484610593919061249d565b61059d919061250e565b90506000606485846105af919061249d565b6105b9919061250e565b90506105e98660010160019054906101000a900473ffffffffffffffffffffffffffffffffffffffff1683611966565b6106178660050160009054906101000a900473ffffffffffffffffffffffffffffffffffffffff1682611966565b6106508660010160019054906101000a900473ffffffffffffffffffffffffffffffffffffffff16838661064b919061253f565b611b1c565b6106898660050160009054906101000a900473ffffffffffffffffffffffffffffffffffffffff168285610684919061253f565b611b1c565b60068660010160006101000a81548160ff021916908360068111156106b1576106b0612164565b5b021790555085600001543373ffffffffffffffffffffffffffffffffffffffff167f9aef3be90d711f7754bc249cb377e6b789e3f2e862a22e5f04b3f71fcca9657c8860010160009054906101000a900460ff166040516107129190612573565b60405180910390a350505050505050565b80600160003373ffffffffffffffffffffffffffffffffffffffff1673ffffffffffffffffffffffffffffffffffffffff1681526020019081526020016000206000015410156107a8576040517f08c379a000000000000000000000000000000000000000000000000000000000815260040161079f90612600565b60405180910390fd5b80600160003373ffffffffffffffffffffffffffffffffffffffff1673ffffffffffffffffffffffffffffffffffffffff16815260200190815260200160002060000160008282546107fa919061253f565b9250508190555060003373ffffffffffffffffffffffffffffffffffffffff168260405161082790612651565b60006040518083038185875af1925050503d8060008114610864576040519150601f19603f3d011682016040523d82523d6000602084013e610869565b606091505b50509050806108ad576040517f08c379a00000000000000000000000000000000000000000000000000000000081526004016108a4906126b2565b60405180910390fd5b5050565b6108c63383856108c19190612469565b611c57565b6108ce611f71565b6000816020019060068111156108e7576108e6612164565b5b908160068111156108fb576108fa612164565b5b8152505033816040019073ffffffffffffffffffffffffffffffffffffffff16908173ffffffffffffffffffffffffffffffffffffffff16815250508381606001818152505082816080018181525050818160a00181815250508383834260405160200161096c94939291906126f3565b604051602081830303815290604052805190602001208160000181815250508060026000836000015181526020019081526020016000206000820151816000015560208201518160010160006101000a81548160ff021916908360068111156109d8576109d7612164565b5b021790555060408201518160010160016101000a81548173ffffffffffffffffffffffffffffffffffffffff021916908373ffffffffffffffffffffffffffffffffffffffff160217905550606082015181600201556080820151816003015560a0820151816004015560c08201518160050160006101000a81548173ffffffffffffffffffffffffffffffffffffffff021916908373ffffffffffffffffffffffffffffffffffffffff16021790555060e0820151816006015590505080600001513373ffffffffffffffffffffffffffffffffffffffff167f9aef3be90d711f7754bc249cb377e6b789e3f2e862a22e5f04b3f71fcca9657c8360200151604051610ae59190612573565b60405180910390a350505050565b806002806006811115610b0957610b08612164565b5b6002600084815260200190815260200160002060010160009054906101000a900460ff166006811115610b3f57610b3e612164565b5b14610b7f576040517f08c379a0000000000000000000000000000000000000000000000000000000008152600401610b76906127b3565b60405180910390fd5b3373ffffffffffffffffffffffffffffffffffffffff166002600085815260200190815260200160002060010160019054906101000a900473ffffffffffffffffffffffffffffffffffffffff1673ffffffffffffffffffffffffffffffffffffffff1614610c23576040517f08c379a0000000000000000000000000000000000000000000000000000000008152600401610c1a90612845565b60405180910390fd5b6000600260008581526020019081526020016000209050610c7b8160010160019054906101000a900473ffffffffffffffffffffffffffffffffffffffff1682600301548360020154610c769190612469565b611b1c565b610cad8160050160009054906101000a900473ffffffffffffffffffffffffffffffffffffffff168260060154611b1c565b610d048160010160019054906101000a900473ffffffffffffffffffffffffffffffffffffffff168260050160009054906101000a900473ffffffffffffffffffffffffffffffffffffffff168360020154611d92565b60038160010160006101000a81548160ff02191690836006811115610d2c57610d2b612164565b5b021790555080600001543373ffffffffffffffffffffffffffffffffffffffff167f9aef3be90d711f7754bc249cb377e6b789e3f2e862a22e5f04b3f71fcca9657c8360010160009054906101000a900460ff16604051610d8d9190612573565b60405180910390a350505050565b816000806006811115610db157610db0612164565b5b6002600084815260200190815260200160002060010160009054906101000a900460ff166006811115610de757610de6612164565b5b14610e27576040517f08c379a0000000000000000000000000000000000000000000000000000000008152600401610e1e906127b3565b60405180910390fd5b600073ffffffffffffffffffffffffffffffffffffffff166002600086815260200190815260200160002060010160019054906101000a900473ffffffffffffffffffffffffffffffffffffffff1673ffffffffffffffffffffffffffffffffffffffff1603610e9657600080fd5b8260026000868152602001908152602001600020600401541115610eb957600080fd5b610ec33384611c57565b600060026000868152602001908152602001600020905060018160010160006101000a81548160ff02191690836006811115610f0257610f01612164565b5b0217905550338160050160006101000a81548173ffffffffffffffffffffffffffffffffffffffff021916908373ffffffffffffffffffffffffffffffffffffffff16021790555083816006018190555080600001543373ffffffffffffffffffffffffffffffffffffffff167f9aef3be90d711f7754bc249cb377e6b789e3f2e862a22e5f04b3f71fcca9657c8360010160009054906101000a900460ff16604051610faf9190612573565b60405180910390a35050505050565b3373ffffffffffffffffffffffffffffffffffffffff166002600083815260200190815260200160002060050160009054906101000a900473ffffffffffffffffffffffffffffffffffffffff1673ffffffffffffffffffffffffffffffffffffffff1614611062576040517f08c379a0000000000000000000000000000000000000000000000000000000008152600401611059906128b1565b60405180910390fd5b6001600681111561107657611075612164565b5b6002600083815260200190815260200160002060010160009054906101000a900460ff1660068111156110ac576110ab612164565b5b14806110ff5750600560068111156110c7576110c6612164565b5b6002600083815260200190815260200160002060010160009054906101000a900460ff1660068111156110fd576110fc612164565b5b145b61113e576040517f08c379a00000000000000000000000000000000000000000000000000000000081526004016111359061291d565b60405180910390fd5b600280600083815260200190815260200160002060010160006101000a81548160ff0219169083600681111561117757611176612164565b5b0217905550803373ffffffffffffffffffffffffffffffffffffffff167f9aef3be90d711f7754bc249cb377e6b789e3f2e862a22e5f04b3f71fcca9657c6002600085815260200190815260200160002060010160009054906101000a900460ff166040516111e69190612573565b60405180910390a350565b80600280600681111561120757611206612164565b5b6002600084815260200190815260200160002060010160009054906101000a900460ff16600681111561123d5761123c612164565b5b1461127d576040517f08c379a0000000000000000000000000000000000000000000000000000000008152600401611274906127b3565b60405180910390fd5b3373ffffffffffffffffffffffffffffffffffffffff166002600085815260200190815260200160002060010160019054906101000a900473ffffffffffffffffffffffffffffffffffffffff1673ffffffffffffffffffffffffffffffffffffffff1614611321576040517f08c379a000000000000000000000000000000000000000000000000000000000815260040161131890612845565b60405180910390fd5b600060026000858152602001908152602001600020905060058160010160006101000a81548160ff021916908360068111156113605761135f612164565b5b021790555080600001543373ffffffffffffffffffffffffffffffffffffffff167f9aef3be90d711f7754bc249cb377e6b789e3f2e862a22e5f04b3f71fcca9657c8360010160009054906101000a900460ff166040516113c19190612573565b60405180910390a350505050565b633b9aca003411611415576040517f08c379a000000000000000000000000000000000000000000000000000000000815260040161140c90612989565b60405180910390fd5b34600160003373ffffffffffffffffffffffffffffffffffffffff1673ffffffffffffffffffffffffffffffffffffffff16815260200190815260200160002060000160008282546114679190612469565b92505081905550565b60026020528060005260406000206000915090508060000154908060010160009054906101000a900460ff16908060010160019054906101000a900473ffffffffffffffffffffffffffffffffffffffff16908060020154908060030154908060040154908060050160009054906101000a900473ffffffffffffffffffffffffffffffffffffffff16908060060154905088565b6000600260008381526020019081526020016000209050600060068111156115305761152f612164565b5b8160010160009054906101000a900460ff16600681111561155457611553612164565b5b036115f0578060010160019054906101000a900473ffffffffffffffffffffffffffffffffffffffff1673ffffffffffffffffffffffffffffffffffffffff163373ffffffffffffffffffffffffffffffffffffffff16146115eb576040517f08c379a00000000000000000000000000000000000000000000000000000000081526004016115e290612a1b565b60405180910390fd5b6117f0565b6001600681111561160457611603612164565b5b8160010160009054906101000a900460ff16600681111561162857611627612164565b5b0361171e578060010160019054906101000a900473ffffffffffffffffffffffffffffffffffffffff1673ffffffffffffffffffffffffffffffffffffffff163373ffffffffffffffffffffffffffffffffffffffff1614806116da57508060050160009054906101000a900473ffffffffffffffffffffffffffffffffffffffff1673ffffffffffffffffffffffffffffffffffffffff163373ffffffffffffffffffffffffffffffffffffffff16145b611719576040517f08c379a000000000000000000000000000000000000000000000000000000000815260040161171090612aad565b60405180910390fd5b6117ef565b6002600681111561173257611731612164565b5b8160010160009054906101000a900460ff16600681111561175657611755612164565b5b036117ee578060050160009054906101000a900473ffffffffffffffffffffffffffffffffffffffff1673ffffffffffffffffffffffffffffffffffffffff163373ffffffffffffffffffffffffffffffffffffffff16146117ed576040517f08c379a00000000000000000000000000000000000000000000000000000000081526004016117e490612aad565b60405180910390fd5b5b5b5b6003600681111561180457611803612164565b5b8160010160009054906101000a900460ff16600681111561182857611827612164565b5b1415801561186c57506004600681111561184557611844612164565b5b8160010160009054906101000a900460ff16600681111561186957611868612164565b5b14155b156118df5761187a81611ece565b80600001543373ffffffffffffffffffffffffffffffffffffffff167f9aef3be90d711f7754bc249cb377e6b789e3f2e862a22e5f04b3f71fcca9657c8360010160009054906101000a900460ff166040516118d69190612573565b60405180910390a35b5050565b60016020528060005260406000206000915090508060000154908060010154905082565b60008160800151826060015161191d9190612469565b606460048460800151611930919061250e565b846060015161193f9190612469565b611949919061249d565b611953919061250e565b606461195f919061253f565b9050919050565b80600160008473ffffffffffffffffffffffffffffffffffffffff1673ffffffffffffffffffffffffffffffffffffffff1681526020019081526020016000206001015410156119eb576040517f08c379a00000000000000000000000000000000000000000000000000000000081526004016119e290612b3f565b60405180910390fd5b60008060009054906101000a900473ffffffffffffffffffffffffffffffffffffffff1673ffffffffffffffffffffffffffffffffffffffff1682604051611a3290612651565b60006040518083038185875af1925050503d8060008114611a6f576040519150601f19603f3d011682016040523d82523d6000602084013e611a74565b606091505b505090508015611adc5781600160008573ffffffffffffffffffffffffffffffffffffffff1673ffffffffffffffffffffffffffffffffffffffff1681526020019081526020016000206001016000828254611ad0919061253f565b92505081905550611b17565b6040517f08c379a0000000000000000000000000000000000000000000000000000000008152600401611b0e906126b2565b60405180910390fd5b505050565b80600160008473ffffffffffffffffffffffffffffffffffffffff1673ffffffffffffffffffffffffffffffffffffffff168152602001908152602001600020600101541015611ba1576040517f08c379a0000000000000000000000000000000000000000000000000000000008152600401611b9890612b3f565b60405180910390fd5b80600160008473ffffffffffffffffffffffffffffffffffffffff1673ffffffffffffffffffffffffffffffffffffffff1681526020019081526020016000206000016000828254611bf39190612469565b9250508190555080600160008473ffffffffffffffffffffffffffffffffffffffff1673ffffffffffffffffffffffffffffffffffffffff1681526020019081526020016000206001016000828254611c4c919061253f565b925050819055505050565b80600160008473ffffffffffffffffffffffffffffffffffffffff1673ffffffffffffffffffffffffffffffffffffffff168152602001908152602001600020600001541015611cdc576040517f08c379a0000000000000000000000000000000000000000000000000000000008152600401611cd390612bd1565b60405180910390fd5b80600160008473ffffffffffffffffffffffffffffffffffffffff1673ffffffffffffffffffffffffffffffffffffffff1681526020019081526020016000206000016000828254611d2e919061253f565b9250508190555080600160008473ffffffffffffffffffffffffffffffffffffffff1673ffffffffffffffffffffffffffffffffffffffff1681526020019081526020016000206001016000828254611d879190612469565b925050819055505050565b80600160008573ffffffffffffffffffffffffffffffffffffffff1673ffffffffffffffffffffffffffffffffffffffff168152602001908152602001600020600001541015611e17576040517f08c379a0000000000000000000000000000000000000000000000000000000008152600401611e0e90612c63565b60405180910390fd5b80600160008573ffffffffffffffffffffffffffffffffffffffff1673ffffffffffffffffffffffffffffffffffffffff1681526020019081526020016000206000016000828254611e69919061253f565b9250508190555080600160008473ffffffffffffffffffffffffffffffffffffffff1673ffffffffffffffffffffffffffffffffffffffff1681526020019081526020016000206000016000828254611ec29190612469565b92505081905550505050565b611f0f8160010160019054906101000a900473ffffffffffffffffffffffffffffffffffffffff1682600301548360020154611f0a9190612469565b611b1c565b611f418160050160009054906101000a900473ffffffffffffffffffffffffffffffffffffffff168260060154611b1c565b60048160010160006101000a81548160ff02191690836006811115611f6957611f68612164565b5b021790555050565b6040518061010001604052806000801916815260200160006006811115611f9b57611f9a612164565b5b8152602001600073ffffffffffffffffffffffffffffffffffffffff168152602001600081526020016000815260200160008152602001600073ffffffffffffffffffffffffffffffffffffffff168152602001600081525090565b600080fd5b6000819050919050565b61200f81611ffc565b811461201a57600080fd5b50565b60008135905061202c81612006565b92915050565b60006020828403121561204857612047611ff7565b5b60006120568482850161201d565b91505092915050565b6000819050919050565b6120728161205f565b811461207d57600080fd5b50565b60008135905061208f81612069565b92915050565b6000602082840312156120ab576120aa611ff7565b5b60006120b984828501612080565b91505092915050565b6000806000606084860312156120db576120da611ff7565b5b60006120e986828701612080565b93505060206120fa86828701612080565b925050604061210b86828701612080565b9150509250925092565b6000806040838503121561212c5761212b611ff7565b5b600061213a8582860161201d565b925050602061214b85828601612080565b9150509250929050565b61215e81611ffc565b82525050565b7f4e487b7100000000000000000000000000000000000000000000000000000000600052602160045260246000fd5b600781106121a4576121a3612164565b5b50565b60008190506121b582612193565b919050565b60006121c5826121a7565b9050919050565b6121d5816121ba565b82525050565b600073ffffffffffffffffffffffffffffffffffffffff82169050919050565b6000612206826121db565b9050919050565b612216816121fb565b82525050565b6122258161205f565b82525050565b600061010082019050612241600083018b612155565b61224e602083018a6121cc565b61225b604083018961220d565b612268606083018861221c565b612275608083018761221c565b61228260a083018661221c565b61228f60c083018561220d565b61229c60e083018461221c565b9998505050505050505050565b6122b2816121fb565b81146122bd57600080fd5b50565b6000813590506122cf816122a9565b92915050565b6000602082840312156122eb576122ea611ff7565b5b60006122f9848285016122c0565b91505092915050565b6000604082019050612317600083018561221c565b612324602083018461221c565b9392505050565b600082825260208201905092915050565b7f5461736b206973206e6f7420617420636f727265637420737461746500000000600082015250565b6000612372601c8361232b565b915061237d8261233c565b602082019050919050565b600060208201905081810360008301526123a181612365565b9050919050565b7f43616c6c657220686173206e6f74207072656d697373696f6e20746f2066696e60008201527f6973682074686973207461736b00000000000000000000000000000000000000602082015250565b6000612404602d8361232b565b915061240f826123a8565b604082019050919050565b60006020820190508181036000830152612433816123f7565b9050919050565b7f4e487b7100000000000000000000000000000000000000000000000000000000600052601160045260246000fd5b60006124748261205f565b915061247f8361205f565b92508282019050808211156124975761249661243a565b5b92915050565b60006124a88261205f565b91506124b38361205f565b92508282026124c18161205f565b915082820484148315176124d8576124d761243a565b5b5092915050565b7f4e487b7100000000000000000000000000000000000000000000000000000000600052601260045260246000fd5b60006125198261205f565b91506125248361205f565b925082612534576125336124df565b5b828204905092915050565b600061254a8261205f565b91506125558361205f565b925082820390508181111561256d5761256c61243a565b5b92915050565b600060208201905061258860008301846121cc565b92915050565b7f5468657265206973206e6f20656e6f7567682066756e6420666f72207468652060008201527f63757272656e74206163636f756e740000000000000000000000000000000000602082015250565b60006125ea602f8361232b565b91506125f58261258e565b604082019050919050565b60006020820190508181036000830152612619816125dd565b9050919050565b600081905092915050565b50565b600061263b600083612620565b91506126468261262b565b600082019050919050565b600061265c8261262e565b9150819050919050565b7f5472616e73666572206661696c65640000000000000000000000000000000000600082015250565b600061269c600f8361232b565b91506126a782612666565b602082019050919050565b600060208201905081810360008301526126cb8161268f565b9050919050565b6000819050919050565b6126ed6126e88261205f565b6126d2565b82525050565b60006126ff82876126dc565b60208201915061270f82866126dc565b60208201915061271f82856126dc565b60208201915061272f82846126dc565b60208201915081905095945050505050565b7f5461736b206973206e6f742061742074686520636f727265637420737461746560008201527f20666f7220746869732070726f63657373000000000000000000000000000000602082015250565b600061279d60318361232b565b91506127a882612741565b604082019050919050565b600060208201905081810360008301526127cc81612790565b9050919050565b7f53656e646572206973206e6f7420726571756573746572206f6620746865207460008201527f61736b0000000000000000000000000000000000000000000000000000000000602082015250565b600061282f60238361232b565b915061283a826127d3565b604082019050919050565b6000602082019050818103600083015261285e81612822565b9050919050565b7f53656e646572206973206e6f7420776f726b6572206f6620746865207461736b600082015250565b600061289b60208361232b565b91506128a682612865565b602082019050919050565b600060208201905081810360008301526128ca8161288e565b9050919050565b7f5461736b206973206e6f742061742074686520636f7272656374207374617465600082015250565b600061290760208361232b565b9150612912826128d1565b602082019050919050565b60006020820190508181036000830152612936816128fa565b9050919050565b7f4d696e696d756d206465706f7369742076616c75652069732031204757454900600082015250565b6000612973601f8361232b565b915061297e8261293d565b602082019050919050565b600060208201905081810360008301526129a281612966565b9050919050565b7f5461736b20646f65736e7420657869737473207769746820746865207265717560008201527f6573746564206164647265737300000000000000000000000000000000000000602082015250565b6000612a05602d8361232b565b9150612a10826129a9565b604082019050919050565b60006020820190508181036000830152612a34816129f8565b9050919050565b7f53656e64657220646f65736e742068617665207072656d697373696f6e20746f60008201527f2063616e63656c2074686973207461736b000000000000000000000000000000602082015250565b6000612a9760318361232b565b9150612aa282612a3b565b604082019050919050565b60006020820190508181036000830152612ac681612a8a565b9050919050565b7f416d6f756e7420697320626967676572207468616e206c6f636b65642066756e60008201527f647320666f722074686973206f776e6572000000000000000000000000000000602082015250565b6000612b2960318361232b565b9150612b3482612acd565b604082019050919050565b60006020820190508181036000830152612b5881612b1c565b9050919050565b7f5468657265206973206e6f20656e6f7567682061637475616c2066756e64206660008201527f6f722074686973206f776e657200000000000000000000000000000000000000602082015250565b6000612bbb602d8361232b565b9150612bc682612b5f565b604082019050919050565b60006020820190508181036000830152612bea81612bae565b9050919050565b7f5468657265206973206e6f20656e6f7567682061637475616c2066756e64732060008201527f666f72207468652073656e646572000000000000000000000000000000000000602082015250565b6000612c4d602e8361232b565b9150612c5882612bf1565b604082019050919050565b60006020820190508181036000830152612c7c81612c40565b905091905056fea2646970667358221220d3bdd2fcd35f7138358da3865836dce2b48c1428ba294848e20aa5e20ba1a27264736f6c63430008120033",
  "immutableReferences": {},
  "source": "// SPDX-License-Identifier: GPL-3.0\n\npragma solidity >=0.7.0 <0.9.0;\n\nimport \"./Strongbox.sol\";\n\ncontract TrustExchange is Strongbox {\n\n    event TaskStateChanged(address indexed sender, bytes32 indexed taskAddr, TaskState newState);\n\n    enum TaskState {\n        CREATED_BY_REQUESTER,\n        ACCEPTED_BY_WORKER,\n        DONE_BY_WORKER,\n        FINISH_BY_REQUESTER,\n        CANCELED,\n        REJECTED,\n        UNFINISHED   \n    }\n\n    struct Task {\n        bytes32 taskAddr;\n        TaskState state;\n\n        address requester;\n        uint salary;\n        uint requesterProofOfTrust;\n        uint requesterMinimumTrustValueForWorker;\n\n        address worker;\n        uint workerProofOfTrust;       \n    }\n\n    modifier CurrentTask(bytes32 taskAddr, TaskState state) {\n        require(tasks[taskAddr].state == state, \"Task is not at the correct state for this process\");\n        _;\n    }\n\n    mapping (bytes32 => Task) public tasks;\n\n    function createTask(\n        uint _salary,\n        uint _requesterProofOfTrust,\n        uint _requesterMinimumTrustValueForWorker\n        ) public {\n            lock(msg.sender, _salary + _requesterProofOfTrust);\n\n            Task memory task;\n            task.state = TaskState.CREATED_BY_REQUESTER;\n            task.requester = msg.sender;\n            task.salary = _salary;\n            task.requesterProofOfTrust = _requesterProofOfTrust;\n            task.requesterMinimumTrustValueForWorker = _requesterMinimumTrustValueForWorker;\n            task.taskAddr = keccak256(abi.encodePacked(_salary, _requesterProofOfTrust, _requesterMinimumTrustValueForWorker, block.timestamp));\n\n            tasks[task.taskAddr] = task;\n            emit TaskStateChanged(msg.sender, task.taskAddr, task.state);\n    }\n\n    function acceptTask(bytes32 _taskAddr, uint _workerProofOfTrust) public CurrentTask(_taskAddr, TaskState.CREATED_BY_REQUESTER) {\n        require(tasks[_taskAddr].requester != address(0x0));\n        require(tasks[_taskAddr].requesterMinimumTrustValueForWorker <= _workerProofOfTrust);\n        lock(msg.sender, _workerProofOfTrust);\n\n        Task storage task = tasks[_taskAddr];\n        task.state = TaskState.ACCEPTED_BY_WORKER;\n        task.worker = msg.sender;\n        task.workerProofOfTrust = _workerProofOfTrust;\n        emit TaskStateChanged(msg.sender, task.taskAddr, task.state);\n    }\n\n    function doneTask(bytes32 _taskAddr) public {\n        require(tasks[_taskAddr].worker == msg.sender, \"Sender is not worker of the task\");\n        require(tasks[_taskAddr].state == TaskState.ACCEPTED_BY_WORKER || tasks[_taskAddr].state == TaskState.REJECTED, \"Task is not at the correct state\");\n        tasks[_taskAddr].state = TaskState.DONE_BY_WORKER;\n        emit TaskStateChanged(msg.sender, _taskAddr, tasks[_taskAddr].state);\n    }\n\n    function finishTask(bytes32 _taskAddr) public CurrentTask(_taskAddr, TaskState.DONE_BY_WORKER) {\n        require(tasks[_taskAddr].requester == msg.sender, \"Sender is not requester of the task\");\n\n        Task storage task = tasks[_taskAddr];\n        unlock(task.requester, task.salary + task.requesterProofOfTrust);\n        unlock(task.worker, task.workerProofOfTrust);\n        transfer(task.requester, task.worker, task.salary);\n        task.state = TaskState.FINISH_BY_REQUESTER;\n        emit TaskStateChanged(msg.sender, task.taskAddr, task.state);\n    }\n\n    function cancelTask(bytes32 _taskAddr) public {\n        Task storage task = tasks[_taskAddr];\n        if (task.state == TaskState.CREATED_BY_REQUESTER) {\n            require(msg.sender == task.requester, \"Task doesnt exists with the requested address\");    \n        } else if (task.state == TaskState.ACCEPTED_BY_WORKER) {\n            require(msg.sender == task.requester || msg.sender == task.worker, \"Sender doesnt have premission to cancel this task\");\n        } else if (task.state == TaskState.DONE_BY_WORKER) {\n            require(msg.sender == task.worker, \"Sender doesnt have premission to cancel this task\");\n        }\n        \n        if (task.state != TaskState.FINISH_BY_REQUESTER && task.state != TaskState.CANCELED) {\n            _cancelTask(task);\n            emit TaskStateChanged(msg.sender, task.taskAddr, task.state);\n        }\n    }\n\n    function _cancelTask(Task storage _task) private {\n        unlock(_task.requester, _task.salary + _task.requesterProofOfTrust);\n        unlock(_task.worker, _task.workerProofOfTrust);\n        _task.state = TaskState.CANCELED;\n    }\n\n    function rejectTask(bytes32 _taskAddr) public CurrentTask(_taskAddr, TaskState.DONE_BY_WORKER) {\n        require(tasks[_taskAddr].requester == msg.sender, \"Sender is not requester of the task\");\n        Task storage task = tasks[_taskAddr];\n        task.state = TaskState.REJECTED;\n        emit TaskStateChanged(msg.sender, task.taskAddr, task.state);\n    }\n\n    function unFinishTask(bytes32 _taskAddr) public {\n        Task storage task = tasks[_taskAddr];\n        require(task.state == TaskState.REJECTED || task.state == TaskState.DONE_BY_WORKER, \"Task is not at correct state\");\n        require(task.requester == msg.sender || task.worker == msg.sender, \"Caller has not premission to finish this task\");\n\n        uint repaymentRate = calcRepaymentRate(task);\n\n        uint requesterTaskLockedFund = task.salary + task.requesterProofOfTrust;\n        uint workerTaskLockedFund = task.workerProofOfTrust;\n\n        uint requesterBurnValue = requesterTaskLockedFund * repaymentRate / 100;\n        uint workerBurnValue = workerTaskLockedFund * repaymentRate / 100;\n\n        burn(task.requester, requesterBurnValue);\n        burn(task.worker, workerBurnValue);\n        unlock(task.requester, requesterTaskLockedFund - requesterBurnValue);\n        unlock(task.worker, workerTaskLockedFund - workerBurnValue);\n\n        task.state = TaskState.UNFINISHED;\n        emit TaskStateChanged(msg.sender, task.taskAddr, task.state);\n    }\n\n    function calcRepaymentRate(Task memory task) internal pure returns (uint) {\n        return 100 - (((task.salary + (task.requesterProofOfTrust / 4)) * 100) / (task.salary + task.requesterProofOfTrust));\n    }\n\n}",
  "sourcePath": "/home/sepehr/blockchain/TrustDeal/contracts/TrustExchange.sol",
  "compiler": {
    "name": "solc",
    "version": "0.8.18+commit.87f61d96.Linux.g++"
  },
  "schemaVersion": "3.4.13",
  "updatedAt": "2023-05-29T18:58:01.477Z",
  "devdoc": {
    "kind": "dev",
    "methods": {},
    "version": 1
  },
  "userdoc": {
    "kind": "user",
    "methods": {},
    "version": 1
  }
}